:100000000C94CE040C94EB040C94EB040C94C634C6
:100010000C94EB040C94EB040C94EB040C94EB04A4
:100020000C94EB040C94EB040C946A1A0C94261AAE
:100030000C943F2C0C94EB040C94EB040C94EB0408
:100040000C94EB040C94EB040C94EB040C94EB0474
:100050000C94EB040C94431B0C94EB040C94EB04F5
:100060000C94EB040C94EB040C94EB040C94EB0454
:100070000C94EB040C94EB040C94EB040C94EB0444
:100080000C94EB040C94EB040C94EB040C94EB0434
:100090000C94EB040C94EB040C94EB040C94EB0424
:1000A0000C94EB040C94EB040C94EB040501090292
:1000B000A10185020901A1000509190129081500FE
:1000C0002501950875018102050109300931158165
:1000D000257F95027508810609381581257F9501D0
:1000E00075088106050C0A38021581257F95017572
:1000F000088106C0C00660FF0961A1010962150000
:1001000026FF009520750881020963150026FF006F
:10011000952075089102C005010906A1010507197E
:10012000E029E71500250195087501810295017503
:100130000881010507190029FF150026FF00950613
:100140007508810005081901290515002501950587
:1001500075019102950175039101C02D2D000000DC
:10016000000000000000000000000000000000008F
:10017000000000000000000000000000000000007F
:1001800000007E0F00D4FFFFFFC7000000780000D2
:100190000000000000002A2B2800000000000000E2
:1001A00000000000000000000029000000002C1EDC
:1001B0003420212224342627252E362D3738271E99
:1001C0001F202122232425263333362E37381F04BF
:1001D00005060708090A0B0C0D0E0F101112131457
:1001E00015161718191A1B1C1D2F3130232D350415
:1001F00005060708090A0B0C0D0E0F101112131437
:1002000015161718191A1B1C1D2F3130354C616239
:10021000636465666768696A6B6C6D6E6F70717236
:10022000737475767778797A313233343536373876
:100230003930524542545F2D3D5B5D5C233B276066
:100240002C2E2F00DA0281FFD9F1DB20A4A62EAFDD
:1002500000A0C0D30000A1C8D30000AED580A81F65
:10026000408D142000000101010101010101010282
:100270000202020202020202030303030303030356
:100280000404040404040405050505050606060621
:1002900006070707070708080808090909090A0ADD
:1002A0000A0B0B0B0C0C0C0D0D0D0E0E0E0F0F0F81
:1002B000101011111112121313141415151616170C
:1002C00017181819191A1A1B1B1C1D1D1E1E1F207A
:1002D00020212222232424252626272829292A2BC7
:1002E0002C2D2D2E2F3031323233343536373839EC
:1002F0003A3B3C3D3E3F40414243444546474849E6
:100300004A4C4D4E4F50515354555658595A5B5DB7
:100310005E5F616264656668696B6C6D6F70727355
:100320007577787A7B7D7E8082838587888A8C8EBC
:100330008F91939596989A9C9EA0A2A3A5A7A9ABEE
:10034000ADAFB1B3B5B7BABCBEC0C2C4C6C9CBCDE0
:10035000CFD1D4D6D8DBDDDFE2E4E7E9EBEEF0F392
:10036000F5F8FAFDFF00000000000000002F00007B
:1003700000000700070000123F123F1200242A7FEE
:100380002A120036091E241B0018262912280000F4
:100390000007000000001E214000000040211E0058
:1003A0000014083E08140008083E08080000003049
:1003B0007000000808080808000000303000002025
:1003C000100C0201001E2925231E0000223F2000E0
:1003D00000223129292600122125251A001814127D
:1003E0003F10001725252518001E2525251800017A
:1003F00031090503001A2525251A00062929291E79
:1004000000000033330000000033730000081414B0
:1004100022220014141414140022221414080002BE
:1004200001290502003E59555D3E00381611163867
:10043000003F2525251A001E21212112003F2121E0
:10044000211E003F25252521003F09090901001E25
:100450002121291A003F0404043F0000213F21000C
:1004600000102020201F003F040C1221003F2020FC
:100470002020003F0204023F003F020C103F001EFC
:100480002121211E003F09090906001E2129112EE4
:10049000003F090919260012252529120001013FF4
:1004A0000101001F2020201F000718201807000F3F
:1004B000300C300F0021120C122100030438040309
:1004C00000312925232100007F4141000001020C59
:1004D0001020000041417F0000040201020400409E
:1004E0004040404000000103040000102A2A2A3C3A
:1004F000003F2422221C001C22222224001C222233
:10050000243F001C2A2A2A0C0000043E0505000C8A
:100510005252543E003F080404380000003D0000E1
:10052000002040403D00003F080814220000013F29
:100530002000003E023C023C003E0402023C001C43
:100540002222221C007E1422221C001C2222147E45
:10055000003E0402020400242A2A2A120000021F7C
:100560002200001E2020103E000618201806000E53
:10057000300C300E002214081422000E5050483E59
:100580000022322A26220008087741410000007F1D
:10059000000000414177080800180408100C000012
:1005A000000000000000000000000000000000004B
:1005B00000C0F0F88C86C6E7FFFFFFFFFFFFFEFCE0
:1005C000FCF8E080000000F0F0F00000C0E0F07007
:1005D00070000000000000000000000000000000AB
:1005E00000000000000000F8F8F800000000000023
:1005F00000000000000000000000000000F8F8F813
:100600000000F8F8F8000000000080E07078686CE6
:1006100064C7C7C7C7C7C7E73F1F0F3FFFFFFFFF3D
:10062000FFFF3F0F000000FFFFFF1E3FFFF3E180D1
:100630000000F8FCFE3636363EBCB8000E3EFEF03A
:1006400080F0FE3E0E0000FFFFFF060606FEFEFCE9
:100650007000E6F6F63636FEFEFC000000FFFFFFF7
:100660000000FFFFFF000000003C7F6360E0C0C0AF
:10067000C0C0C0C0C0C0FFFFC06030180F0303037C
:100680000100000000000003030300000003030357
:100690000300010303030303030301007070393FE8
:1006A0001F0701000000000103030303030303010C
:1006B000000001030303030303010000000303031D
:1006C000000003030300101010000000005500009C
:1006D000003E635D5D637F417B77413E00001C22ED
:1006E000221C003E0A003E0A00322A3C0026281E38
:1006F000001C2A2C0000003F09360000001E2121AA
:1007000000000000003F0837001E2121001E2121AB
:10071000003F090600213F2100222519001E21214A
:10072000003F0936003F211E00213F21000F300FFE
:10073000003E093E003F063F003F20200000AF0082
:10074000AE2020004C6179657200436170730053E4
:1007500063726C004E756D00004B454D00414C4D71
:100760000000004350490042616C6C000000004CE6
:10077000454400004B45590000504F53000044428F
:100780004700290014001A000800150017002B006C
:1007900004001600070009000A00E1001D001B000C
:1007A0000600190005000000E200E30091212C4141
:1007B00090434C00130012000C0018001C0024028F
:1007C00033000F000E000D000B00870038003700CB
:1007D0003600100011000000417EE60091312842F1
:1007E0002A000F7E3A003B003C003D003E000D7E9B
:1007F00001000100520028004C000E7E0100500054
:1008000051004F002A00000001000100010001001A
:100810000100440043004200410040003F00450009
:10082000D300D2005200D1004B00010001004F0064
:10083000510050004E0000000100010001000100C5
:1008400001000100340224002500260025020100D9
:100850003302210022002300300001002D021E007F
:100860001F002000300200002700370001000100B7
:100870000100010021022F0023021E0226021F0296
:10088000340020022E022D003200890238022F028D
:100890002E00870232020000010001000100010069
:1008A0004C0020780A7E0B7E0C7E0100010021782E
:1008B0002378257827780100087E22782478267806
:1008C00028780100097E0000007C007E0100010004
:1008D000010030782F782E782D782C782B78010035
:1008E00001003478337832783178017E0100047E5B
:1008F000027E037E057E0000007C007E0100010078
:10090000010009025B00030100A0FA0904000001D4
:1009100003010100092111010001224400070581A2
:10092000030800010904010002030000000921116D
:1009300001000122220007058203200001070503B0
:100940000320000109040200010300000009211135
:100950000100012249000705840320000112010063
:1009600002000000085759000400010102000114B0
:10097000034B0065007900620061006C006C00347C
:100980000034000000100359006F0077006B006511
:1009900000650073000000040309040011241FBE59
:1009A000CFEFDAE0DEBFCDBF12E0A0E0B1E0EEEACB
:1009B000FEE602C005900D92A433B107D9F726E0F8
:1009C000A4E3B2E001C01D92AF38B207E1F70E9484
:1009D000662C0C9407370C940000482F20918C064D
:1009E0009091530657E0291302C080E0089530E04B
:1009F000529FF001539FF00D1124EC5AF94F818161
:100A0000681306C08081481303C085818111EECF31
:100A10002F5F3F4F2770E7CFE8EDF0E080818E7FBA
:100A200080831092E2001092DA001092E100A0EEB2
:100A3000B0E08C9181608C9380818F77808319BC2A
:100A4000A7EDB0E08C918E7F8C9380818F7E808328
:100A500010923B0608952091E4003091E50095E660
:100A6000A9012091EC00822F817020FF06C08091A7
:100A7000E80080FF06C080E008952091E80022FD94
:100A80001AC080914906882389F0853089F08091C9
:100A9000EB0085FD0FC02091E4003091E500421786
:100AA0005307F9F29150E1F684E0089582E0089549
:100AB00083E0089581E0089580914B0687FF13C07D
:100AC0008091E80082FF06C08091E8008B778093D8
:100AD000E80004C0809149068111F2CF0895809109
:100AE00049068823D9F38091E80080FFF8CF8091F0
:100AF000E8008E77ECCF982F9093E900242F762F83
:100B000050E0891731F07091EC002091ED00509188
:100B1000F00021FD07C09F5F973071F78093E900D7
:100B200081E008953091EB003E7F3093EB003091EF
:100B3000ED003D7F3093ED003091EB00316030935C
:100B4000EB007093EC002093ED005093F0002091A7
:100B5000EE0027FDE0CF80E00895B0E0A0E0E3EBF9
:100B6000F5E00C940036C8EDD0E088818F7E888354
:100B7000E7EDF0E080818160808384E082BF81E0E6
:100B800080933B0688818E7F888302EE10E0F80117
:100B900010821092DA0081EEC82ED12CF60110825C
:100BA00088818F77888388818068888388818F7D1A
:100BB000888319BC1092490610924A061092480682
:100BC0001092470690EEE92EF12CF70180818B7F81
:100BD000808388818160888342E060E080E00E94B9
:100BE0007B05F60180818E7F8083F80180818160A2
:100BF0008083808188608083F70180818E7F8083FD
:100C0000888180618883CDB7DEB7E8E00C941C361C
:100C1000FC01809151069091520686179707A0F02B
:100C20006115710529F49091E8009E779093E80092
:100C300090E06115710551F4911108C08091E800B0
:100C400082FF34C080E00895BC01F2CF8091490654
:100C50008823C1F18530C1F18091E80083FD30C067
:100C60008091E80082FDEACF8091E80080FFE1CF2B
:100C70008091F3002091F200382F6115710519F071
:100C80002830310558F091E02830310509F090E026
:100C90002091E8002E772093E800CBCF81918093BC
:100CA000F100615071092F5F3F4FE7CF80914906F6
:100CB000882341F0853041F08091E80083FFBECF6A
:100CC00081E0089582E0089583E008950895809179
:100CD0003E06089587E797E7909301088093000800
:100CE00088E19AE00FB6F894A895809360000FBE53
:100CF00090936000FFCF2FB7F89460913706709102
:100D000038068091390690913A062FBF0895FC016C
:100D1000680F791F8FEF91E32191822728E030E05F
:100D200087FF09C0880F892721503109C9F7E617C5
:100D3000F70791F70895880FF7CFFA01811101C0E5
:100D4000FB01099508958091F003982F9E7F71F41F
:100D50008091F003817082608093F0038091F303AF
:100D6000873918F086E98093F3030895843080F77B
:100D7000F5CF90918601882341F09F5F9093860183
:100D8000109283011092820108959150F7CFEBE702
:100D9000F1E0828591E08927828710861782089585
:100DA00080918401811114C080918601811110C04D
:100DB0008091850181110CC090913803969596958C
:100DC000969581E020917C01921380E081700895D6
:100DD00081E0FCCFCF93DF93EAE9F1E08381948156
:100DE000A581B681E90188839983AA83BB83148294
:100DF000138216821582DF91CF91089580E00895C5
:100E000063E070E082EA92E00E9487069091A1027E
:100E1000891318C0E091A202EE30A4F488E0E80241
:100E2000F0011124ED5FFE4F0680F781E02D309731
:100E300049F025EC32E04091A40265EA72E080912D
:100E4000A30209950895ECE8F2E0878980933301C5
:100E5000808D809346010895F894E82FE295EF7015
:100E6000F0E031A1282F2F7081E090E001C0880FC1
:100E70002A95EAF7982F9095932391A392A1892B15
:100E800082A378940895811522E5920780F5811553
:100E900030E5930708F0ABC0883E9105A0F4803E92
:100EA000910558F4853A910548F48430910528F469
:100EB0008130910511F090E080E008958D3C91051E
:100EC000D0F390650895811540E4940708F044C07C
:100ED000811550E2950708F0A3C0811561E09607DF
:100EE00050F320E0392FA901482BCA01089580381A
:100EF00072E59707A8F4803622E5920708F05AC0F9
:100F0000803432E5930708F03FC0803242E5940711
:100F100030F18F7190E0982F8827816F906A089543
:100F2000803C52E5950760F4282F2F71803A924556
:100F300008F456C0822F90E0982F88279062089579
:100F4000803E72E5970708F0B6CF982F882788274C
:100F50009F71806F906A08959F70906A0895282FFE
:100F60002695269550E2259F90011124837041E03B
:100F700050E0BA0102C0660F771F8A95E2F7CB01F5
:100F8000822B932B9D680895282F269526952770F0
:100F900070E2279F90011124837041E050E0BA0174
:100FA00002C0660F771F8A95E2F7CB01822B932B45
:100FB0009C680895282F26952695277070E2279F14
:100FC00090011124837041E050E0BA0102C0660F25
:100FD000771F8A95E2F7CB01822B932B9A680895AD
:100FE000822F90E0982F8827846F906A08959C0143
:100FF00095E0369527959A95E1F72F7030E0322FDE
:101000002227482F4F7150E084FF05C084E0440F31
:10101000551F8A95E1F7C901842B952B9069089596
:101020009F718CCF809590913C06982390933C06BD
:10103000089580918C0690915306981301C00895ED
:101040008F5F8770FACF292F983078F5863068F552
:1010500090E036E0239F800D911D1124682F67706A
:1010600023E0969587952A95E1F7FC01EE0FFF1F87
:10107000E80FF91FEA5BFD4F50E040E080E021916E
:1010800030E0062E02C0369527950A94E2F72170CB
:101090003327042E01C0220F0A94EAF7822B4F5FF8
:1010A0005F4F4330510559F7089580E00895292F87
:1010B000983098F5863088F590E036E0239F800DD3
:1010C000911D1124282F277041E001C0440F2A955B
:1010D000EAF723E0969587952A95E1F7FC01EE0F54
:1010E000FF1FE80FF91FEA5BFD4F30E020E070E0E2
:1010F0005191DF011197CB01022E02C09695879581
:101100000A94E2F7817081958527842385278C9343
:101110002F5F3F4F2330310559F7089580936902BF
:10112000089592959F70963091F058F4925F9F7059
:10113000923058F4803F19F030F4883E30F481E06A
:1011400008959A5FF4CF843FD1F380E00895883EFC
:10115000B0F3813FD1F7F3CF982F92959F7011F0A4
:10116000892F94E0282F2695269511F09E5F822FD7
:10117000869509F09F5F892F0895CF93C82F80919E
:10118000A7018C1751F00E947B066093A801709311
:10119000A9018093AA019093AB01C093A701CF91BD
:1011A0000895B0E0A0E0E7EDF8E00C9400368C0183
:1011B000EB01E091AC01E11101C0E4E0E150FF0B73
:1011C00081E090E06C010E2E02C0CC0CDD1C0A9474
:1011D000E2F7D801ED90FC90C701B6010E943936C4
:1011E0009B01CB010E2E02C0880F991F0A94E2F7D3
:1011F000E81AF90AD8011196FC92EE921296ED9037
:10120000FC90C701B6010E943936CB0102C0880F9D
:10121000991FEA95E2F7E81AF90AF801F382E282E7
:101220006138FFEF7F07F4F060387105ECF46D83EF
:1012300021388FEF3807D4F020383105CCF4822FD5
:1012400081958C83442319F061956D832C83809163
:10125000AD01882379F0813079F0CDB7DEB7E8E0D1
:101260000C941C3661E8E3CF6FE7E1CF21E8E7CFCC
:101270002FE7E5CF1D82F1CF1C82EFCFFC01DB0110
:101280002281338191E821388FEF38072CF0922F9B
:10129000203831050CF09FE712969C93129720811D
:1012A000318121388FEF3807A4F0203831059CF4C4
:1012B00013962C931397442339F0919512969C938F
:1012C0001297219513962C93118210821382128209
:1012D000089521E8EDCF2FE7EBCF9C01860F971FF4
:1012E00037FD07C077FD04C097FF02C08FEF9FE76F
:1012F000089577FFFDCF97FDFBCF80E090E808953C
:101300000F931F93CF93DF938B01EA0190914906CE
:10131000943061F58093E9008FEF9091E80081505F
:1013200095FD06C095ED9A95F1F700008111F5CF76
:101330008091E80085FF1AC00E942B05811111C021
:101340008091E80085FD06C08091E8008E7780934B
:10135000E800F2CFF80181918F018093F10021978D
:1013600079F78091E8008E778093E800DF91CF9144
:101370001F910F91089546E050E0BC0184E00E9467
:1013800080090895CF93DF93EC0148E050E0BC0161
:1013900081E00E94800988E0FE01AFE3B6E00190A1
:1013A0000D928A95E1F7DF91CF91089560919601B2
:1013B0008091F00380FF20C08091950143E0849FDD
:1013C000C0011124845C9C4F539A2BB1277F3BB101
:1013D00038605FB7F894FC01649FE00DF11D1124A3
:1013E000BF0168177907D1F45FBF8FE594E00197DB
:1013F000F1F700C000000895809197019091980145
:1014000023E0829FF0011124E45CFC4F8917A0F6D1
:101410001182108212828F5F3396F8CFFC014191C6
:10142000CF01E8E03BB9000000C047FF2BB9440FF3
:10143000000000C000C000C02BB900C0EA9591F7C1
:10144000D0CFE0EFF3E080818E7F8083E9E3F3E0AB
:101450008281816082830E94D60908959091F00371
:1014600090FF0FC08C3368F490E0FC01EE0FFF1F7B
:10147000E80FF91FE45CFC4F6183408322830E94E4
:10148000D6090895FB0180818C3370F491812FEF90
:101490004FEF6FEF913031F02FEF923009F020E0F5
:1014A00040E060E00E942E0A08950F93962F642F6B
:1014B000422F202F8F3F21F0992321F00E942E0AE6
:1014C0000F910895825EFACF809187018823B9F049
:1014D000FB0120812C3398F48091F00380FF0FC032
:1014E0008181819530E0F901EE0FFF1FE20FF31FBC
:1014F000E45CFC4F8183808382830E94D609089537
:10150000B0E0A0E0E6E8FAE00C94FE357C015B0177
:101510006A018091F90201E010E08A3010F40AE0DB
:1015200010E0C1E0D0E0B501C701F60109958111D5
:1015300004C021960C171D072CF4CDB7DEB7EAE0E6
:101540000C941A36CC9F9001CD9F300D300D112494
:1015500090E080E045E34A95F1F70000019682179C
:101560009307C1F7E0CF80918B02811119C088ECFD
:1015700090E02091E30027FD10C0EFE3FCE93197F4
:10158000F1F700C000000197A1F782E080938B0281
:101590000E940C051092490603C081E080938B02E3
:1015A00081E090918B02913011F080E008950895D0
:1015B0000E94B30A882359F0E0913406F091350671
:1015C000309729F00190F081E02D0995089580E091
:1015D00008950F931F930E94B30A882329F00E9455
:1015E0007B061F910F9108950E947B060091FA02DD
:1015F0001091FB022091FC023091FD02600F711FDF
:10160000821F931FEECF54985C9A879A8F9885E03B
:101610008A95F1F7000089B187988F9A90EA9A9598
:10162000F1F790E024E0959587952A95E1F780956C
:10163000909581700895CF93DF9380919A01CEE1C8
:101640008111CDE180919B01D0E0882329F0809128
:101650009C01DEE18111DDE10E94030B81110FC0CD
:101660008D2F80939501C0939601CD0F1092970115
:10167000C0939801C0939901DF91CF91089580E0C4
:10168000F0CF80919A01F90180830E941B0B08958D
:101690000F931F93CF93DF93C82FD62F142F66235A
:1016A00091F00E94030B811112C00E94B30A88239B
:1016B000E9F0CF3FD9F0C09376021093770281E032
:1016C0008093780213C00E94030B8111EECF0FEFBD
:1016D0002FEF4FEF113031F00FEF123009F000E033
:1016E00020E040E06D2F8C2F0E94550ADF91CF91B2
:1016F0001F910F91089580919301882351F080915B
:1017000091018F3F31F040919401609192010E94CC
:10171000480B0895CF93DF93C9E6D2E060E0CE0195
:101720000E94D3362196C11584E0D807B9F7DF911E
:10173000CF9108951F93CF93DF93122F8630E0F45B
:101740006830D0F44630C0F4C42FD0E0CC0FDD1F99
:101750009CE0699FC00DD11D112490E6899FC00DAA
:10176000D11D1124632FCE0189960E94D336612F9B
:10177000CE018A960E94D336DF91CF911F910895B2
:10178000B0E0A0E0E6ECFBE00C94003692E8E92E35
:1017900097E0F92ED12C8701C12C1CC04C2F83E07F
:1017A00021E030E08D1540F0FE01EE0FFF1FE00F4D
:1017B000F11F859194919C016C2D8D2D0E949A0BA7
:1017C0002196C630D10551F7C394045F1F4F88E0BE
:1017D000C81619F0D0E0C0E0E1CFD39480E6E80E5F
:1017E000F11C86E0D812D7CFCDB7DEB7E8E00C9475
:1017F0001C3688E290E00E94D3360895CF93C82F1C
:101800006FEF811166E285E290E00E94D3366FEFC0
:10181000C11167E086E290E00E94D3366FEFC111FC
:1018200069E087E290E00E94D336CF91089580E08E
:101830000E94FE0B60E070E0CB010E94F90B0E9459
:10184000C00B0E948A0B81E00E94FE0B08950F934B
:101850001F93CF93DF93863030F5683020F5463004
:1018600010F5C42FD0E0CC0FDD1F2CE0629FC00D1F
:10187000D11D112430E6839FC00DD11D1124CE014E
:1018800089960E94AF36082F10E0102F0027CE0156
:101890008A960E94AF369801282BC901DF91CF911B
:1018A0001F910F91089590E080E0F8CF462F783097
:1018B00040F4663030F4863020F4672F0E94270C05
:1018C000089590E080E00895CF92DF92FF920F9309
:1018D0001F93CF93DF936C01009101048091690203
:1018E000082BC5E0D0E010E0FC2EC8010C2E02C091
:1018F000959587950A94E2F780FD0CC02197A0F793
:10190000F12C8F2DDF91CF911F910F91FF90DF90E0
:10191000CF900895B6018C2F0E94560C0E94430769
:10192000019761F3EECFCF93DF93EC010E94640C3B
:10193000BE010E94560C0E944307DF91CF9108958B
:10194000FC012481222339F0808191810E94930C33
:101950000E949108089580E00895A6E0B0E0E3EBCE
:10196000FCE00C94053649835A8349815A819923B6
:10197000A1F0222391F0CA010E94640C182F682F55
:1019800089819A810E94570869817A81812F0E94FA
:10199000560C2696E3E00C942136CA010E942308D7
:1019A000182FF2CF88E290E00E94AF36682F70E0E7
:1019B00090E080E0089585E290E00E94AF368632A4
:1019C00089F486E290E00E94AF36873059F487E2CE
:1019D00090E00E94AF3691E0893009F090E0892FC5
:1019E0008170089580E0FCCFE8E2F4E080E092E0CE
:1019F000DF019C011D9221503040E1F7F093FF037D
:101A0000E093FE038FEF9FEF90932B0680932A06BF
:101A10000895E4E8F1E083E0DF011D928A95E9F79B
:101A2000E0E8F1E084E0DF011D928A95E9F708958E
:101A300020917D0130917E012817390731F0909374
:101A40007E0180937D010E94090D089590917B0194
:101A5000981721F080937B010E94090D0895CF9380
:101A60009091330380912C03981323C08091340309
:101A7000882321F090912D0389131BC08091350399
:101A8000882321F090912E03891313C0809137038E
:101A9000882321F09091300389130BC09091360375
:101AA000992329F081E020912F03291303C080E0BE
:101AB00001C081E0C82FC17080FF0FC0E0913406E3
:101AC000F0913506309749F082E08093320304802C
:101AD000F581E02D82E393E009959091330386E050
:101AE000E2E3F3E0DF01282F1D922A95E9F79093B6
:101AF0003303ABE2B3E001900D928A95E1F781E008
:101B0000C11103C0911101C080E08170CF9108958F
:101B10002FE2280F283078F481E090E001C0880F90
:101B20002A95EAF720913303662331F0822B8093C4
:101B300033030E942F0D089580958223F8CF809162
:101B40003C0690916802892B80933602909167023F
:101B5000992391F0892B8093360220E088E392E06C
:101B6000FC013191CF0131112F5FF2E08E339F07DD
:101B7000B9F721111092670248E050E06FE572E07A
:101B800086E392E00E949936892BA9F088E0E6E38B
:101B9000F2E0AFE5B2E001900D928A95E1F7E091B5
:101BA0003406F0913506309731F00280F381E02D54
:101BB00086E392E009950895E8E3F2E086E0DF012C
:101BC0001D928A95E9F7109268020E949F0D089570
:101BD000AAE2B0E0EEEEFDE00C9405368BE496E070
:101BE0002091F100DC012D93CD01B6E083359B07F8
:101BF000B9F780914C06833009F472C0B8F4813093
:101C000009F449C0823009F4B5C08091E80083FF2F
:101C10008DC280914B0690914C069A3008F086C296
:101C2000E92FF0E0E75FF84C0C944D368A3009F468
:101C300090C08B3009F471C0893039F780914B0620
:101C4000813219F780914F0690915006009711F05C
:101C50000297D9F68091E800877F8093E800809111
:101C6000E80082FF38C09091F3008091F200029763
:101C700031F48091F100813011F0863021F48091AF
:101C8000F10080933E068091E8008B778093E80016
:101C90000E945C05BACF80914B06813A09F0B5CF1E
:101CA0008091E800877F8093E80080914F069091B3
:101CB0005006892B61F468E08FE396E070E00E94A3
:101CC00008068091E8008B778093E8009ECF60E063
:101CD00090E080E0F3CF809149068111C0CF95CF8D
:101CE00080914B06813A09F090CF80914F069091F8
:101CF0005006892B09F089CF8091E800877F809377
:101D0000E8008091E80080FFFCCF809190018093F3
:101D1000F1008091E8008E77B9CF80914B06813237
:101D200009F073CF80914F0690915006892B09F0EE
:101D30006CCF8091E800877F8093E8000E945C056B
:101D400080914D068093900110923C060E94DC0D1C
:101D50005CCF80914B06813209F057CF8091E8002B
:101D6000877F8093E8000E945C0580914E068093F7
:101D70003D064BCF80914B06813A09F046CF8091CA
:101D8000E800877F8093E8008091E80080FFFCCF27
:101D900080913D06BCCF803899F0823809F0C6C1E9
:101DA00080914F068F70873008F0C0C18093E900A2
:101DB0008091EB0085FB882780F91092E90006C02E
:101DC0008091470690914806911182609091E800B9
:101DD000977F9093E8008093F1001092F10080913A
:101DE000E8008E779FC1882309F48DC1823009F005
:101DF0009DC180914D06811190C180914F068F70D9
:101E00002FEF280F263008F091C18093E900209130
:101E1000EB0020FF82C1933031F48091EB008062AF
:101E20008093EB007AC19091EB0090619093EB006E
:101E300021E030E001C0220F8A95EAF72093EA0002
:101E40001092EA008091EB008860EACF81116EC1A8
:101E500010914D061F778091E3008078812B80934D
:101E6000E3008091E800877F8093E8000E945C0592
:101E70008091E80080FFFCCF8091E3008068809330
:101E8000E30082E0111183E0809349064FC180583E
:101E9000823008F04BC120914D0630914E062C3D0A
:101EA000E3E03E07A1F583E08A838AE289834FB7A6
:101EB000F894DE01139620E03EE051E2E32FF0E0DB
:101EC00050935700E49120FF03C0E295EF703F5F0D
:101ED000EF708E2F90E0EA30C0F0C7968D939D93FF
:101EE0002F5F243159F74FBF8091E800877F80939F
:101EF000E8006AE270E0CE0101960E940806809137
:101F0000E8008B778093E80011C1C096E7CF8091FD
:101F10004F0690915006432F55274330510509F441
:101F20004AC078F54130510509F47AC08BE590E05C
:101F3000E2E0F9E04230510509F0F8C02091E800F4
:101F4000277F2093E8002091510630915206821796
:101F5000930708F49C0140E02115310509F065C0A4
:101F6000411163C08091E80082FDC9CF809149068C
:101F7000882329F2853019F28091E80083FFF2CF9F
:101F8000BECF4132510509F43CC04232510509F03F
:101F9000CDC08330910508F0C9C0FC01EE0FFF1FD2
:101FA000E85DFD4F0190F081E02D8B5D9D4FDC01E0
:101FB0008C9190E01AC0332721303105D1F02115E2
:101FC000310561F02230310509F0B0C0EFE6F9E0EB
:101FD000E4918E2F90E0EFE6F9E007C0E7E9F9E041
:101FE000E4918E2F90E0E7E9F9E0009709F49EC0B4
:101FF000A5CFE5E8F9E0E4918E2F90E0E5E8F9E07F
:10200000F4CF8330910508F091C0880F991FFC012F
:10201000E25DFD4F0190F081E02D89E090E08ECFF0
:1020200082E190E0EDE5F9E089CF809149068823CF
:1020300009F465CF853009F462CF8091E80083FD13
:102040005ECF8091E80082FD8DCF8091E80080FF17
:1020500083CF9091F3008091F2002115310519F0A2
:102060008830910550F041E0089709F040E08091F8
:10207000E8008E778093E8006FCF44914093F100A1
:102080003196215031090196E8CF803809F04EC0D1
:102090008091E800877F8093E80080914A068093D2
:1020A000F1009DCE811142C010914D061230F0F525
:1020B0008091E800877F8093E80010934A060E9491
:1020C0005C05112311F084E005C08091E30087FDD9
:1020D000FACF81E08093490642E061EC81E00E9402
:1020E0007B0542E261EC84E00E947B0542E261EC08
:1020F00082E00E947B0542E260EC83E00E947B0567
:102100008091490613C080914D06813079F481E0B9
:10211000933009F080E0809348061092E9008091A6
:10212000E800877F8093E8000E945C058091E800CA
:1021300083FF0AC08091E800877F8093E800809148
:10214000EB0080628093EB00AA96E3E00C942136CA
:1021500010923C060E94DC0D2FEF84E39CE021509E
:1021600080409040E1F700C0000088E19AE00FB69F
:10217000F894A895809360000FBE90936000FFCF05
:10218000882321F00E9412080E949F0D0895882341
:1021900039F090913C06982B90933C060E949F0D3D
:1021A0000895882349F19CEF980F913A80F4E8E371
:1021B000F2E02EE332E09191891303C0DF01119721
:1021C0001C922E173F07B9F70E949F0D089590E2C9
:1021D000980F983050F4877091E001C0990F8A955C
:1021E000EAF7892F0E941208EFCF93E3980F9331FB
:1021F00018F460E00E94880D08950F931F93CF9309
:10220000C82F882341F18CEF8C0F813AB0F508E399
:1022100012E08EE392E0F8012191C21701F18E17CE
:102220009F07D1F7EFEF80E0D8019D918D01C9178D
:1022300081F0EF3F19F4911101C0E82F8F5F8630D4
:1022400099F7EF3F31F00E2E000CFF0BEA5CFD4FCB
:10225000C2830E949F0DCF911F910F910895E8E3D3
:10226000F2E02191C21303C0DF0111971C928E1777
:102270009F07B9F70E949F0DD5CF80E28C0F883061
:1022800068F4C77021E030E001C0220FCA95EAF778
:1022900080913C06822B80933C06DBCF83E38C0F3E
:1022A0008331C8F661E08C2F0E94880DD4CF1F9334
:1022B000CF93DF93182FC5E0D0E0893311F4C0E548
:1022C000D0E0812F0E94FD108FE99FE00197F1F788
:1022D00000C000002197C1F7812F0E94D110DF912B
:1022E000CF911F9108951F93CF93DF93282F162F1F
:1022F00081E02A3019F02D3039F480E00E941B1261
:10230000DF91CF911F9108958091FE039091FF037B
:1023100036E0FC01A8EFB3E001900D923A95E1F7A9
:1023200030EE320F343A90F126E0FC0111922A95FA
:10233000E9F7C091FE03D091FF03111136C046E0CA
:1023400050E0BE0188EF93E00E9499369E0128522A
:102350003440892BA9F52A5F3F4F40910004642F38
:1023600070E0C9010E94E235481B463010F4240F8A
:10237000311D211572E0370710F030E020E0285DB4
:102380003B4F3093FF032093FE03BACF2052330B11
:1023900046E0429FB001439F700D11246B597C4F62
:1023A00046E050E00E949036C4CF9E012A5F3F4F26
:1023B000FE012E173F0719F2808180958193F9CF96
:1023C000C90145E0969587954A95E1F741E050E0CF
:1023D000BA0102C0660F771F8A95E2F7CB016091C0
:1023E0002A0670912B06862B972BB9016B5F7F4FC6
:1023F000E5E076956795EA95E1F702C0440F551F31
:102400006A95E2F7842B952B90932B0680932A06EE
:10241000A2CF1F93CF93DF93EC01162FFE0184917F
:10242000811104C0DF91CF911F910895612F0E9407
:1024300073112196F3CFCF93382FE091FE03F091E3
:10244000FF03E852F44020910004622F70E0CF01B6
:102450000E94E235281B822F332369F066E00E9438
:102460002D36C82FC15010F4CF91089560E080E25E
:102470000E947311F7CF9F01280F311D21153240A3
:1024800018F080E0F0E0E0E08E0F9F2F911D885D56
:102490009B4F9093FF038093FE03E6CF0F931F9310
:1024A000CF93DF93EC01FC0101900020E9F78F014D
:1024B00001501109C017D10740F081E00E941B12A2
:1024C000DF91CF911F910F91089560E089910E9453
:1024D0007311F0CFA5E0B0E0E0E7F2E10C9406362E
:1024E000898367FF17C08DE28A836195862F6436E2
:1024F00008F083E66AE00E942D36805D8B83905D54
:102500009C831D82CE0101960E944E122596E2E028
:102510000C9422368BE28A83E9CFAAE0B0E0E3E9AB
:10252000F2E10C94063682E5898380910604805D91
:102530008A8383E48B8380910504805D8C831D8274
:10254000CE0101960E944E128091030490910404E2
:10255000FC01EF2FFF27E295EF70E054FE4F208142
:102560002E83E92FFF27EF70FF27E054FE4F2081D5
:102570002F83FC0144E0F695E7954A95E1F7EF706B
:10258000FF27E054FE4F208128878F709927FC0198
:10259000E054FE4F808189871A86CE0106960E94FC
:1025A0004E122A96E2E00C9422360E94091281E033
:1025B0000E941B120895A3E0B0E0E1EEF2E10C945A
:1025C0000636809100018F3F49F460E08BE591E091
:1025D0000E94D5122396E2E00C9422366AE00E9413
:1025E0002D36805D8983905D9A831B82CE01019692
:1025F0000E944E12EFCFB0E0A0E0E1E0F3E10C94D6
:1026000000366C017B0164E670E088E70E9440338D
:102610008C01E601EC0CFD1C17FD0BC0FE01849142
:1026200064E670E00E94AC338C012196CE15DF0584
:1026300099F70E94223481E00115110509F080E02C
:10264000CDB7DEB7E8E00C941C368091300690914F
:102650003306911103C091E089270895882369F01A
:1026600062E070E08FE397E00E94FB12811103C0EB
:102670008091300608951092300680913006EBCF9D
:10268000CF93C0913006809133068823D1F00E9409
:102690007B06605A75418F4F9F4F60932C06709355
:1026A0002D0680932E0690932F06C11108C062E07C
:1026B00070E08DE397E00E94FB12811105C0C0918C
:1026C00030068C2FCF91089581E080933006F7CFAC
:1026D000B0E0A0E0EEE6F3E10C94FC3549015A01CC
:1026E0006B017C010E94A3068401A4016A2D7B2D4D
:1026F00088E090E00E94E53694014A2D5B2DB601FA
:10270000C70100E20E947536622F84E290E00E94C9
:10271000D336CDB7DEB7ECE00C941836B0E0A0E0CD
:10272000E4E9F3E10C94FC35182FC62FD42F822E48
:102730000091F00300FF50C08091F103811308C0A5
:102740008091F203861304C08091F303841729F06B
:1027500080913B03826080933B03E02FE695F0E09D
:10276000EB5EFD4F808180933903802F8E7F823016
:10277000E9F4ED2FD73908F0E6E9F0E0EB59FD4F29
:10278000C1112FC02491F22FE22F00FF0FC08091C2
:1027900097019091980133E0839FD0011124A45CAC
:1027A000BC4F891708F492C00E94D6091093F10318
:1027B000C093F203D093F303882071F02091F003CB
:1027C0006091F4037091F503312FAE018091F6030F
:1027D0009091F7030E946813CDB7DEB7ECE00C943C
:1027E0001836EC2EF12CE4919E2ECE2ED12C26E024
:1027F000129FC00111242FEF30E0B9010E94E23591
:10280000812F90E0880F991FF5E5F69FA001F79FB3
:10281000500D1124841B950BB82EBB0CB80EA901CA
:102820004E195F094C9DC0014D9D900D5C9D900D12
:102830001124F92FCB9DA0011124452F5527D90133
:10284000A41BB50BAC9DA001AD9D500DBC9D500DC2
:102850001124D901AB19B1095D01AE9CD001AF9C27
:10286000B00DBE9CB00D1124AB2FBB272A1B3B0B18
:102870002C9DD0012D9DB00D3C9DB00D11242B2F12
:1028800062307105A1F050F46115710509F47DCF36
:102890006130710581F0292FF52F77CF64307105F4
:1028A00069F080F06630710509F46FCFF4CF2E2FF8
:1028B000E92FFB2F6ACF2E2FE52F67CF292FFE2F71
:1028C000EB2F63CFE92FF92D252F5FCF1196EC93D6
:1028D00011972C931296FC9312978F5F139661CFEA
:1028E00020E00E948E130895CF93DF93D82F0E948B
:1028F000AC08C82F81E0C33009F080E00E94BD0819
:10290000C230C1F058F4CC2391F042E36FEF80E87D
:10291000C13099F08D2FDF91CF910895C430A1F08F
:1029200078F042E36FEFC530A9F780E006C042E3DC
:1029300060E0FBCF42E36FEF8BE20E947014EACFBE
:1029400042E36FEF85E5F9CF42E36FEF8FEBF5CF11
:102950000E9474148093010408959091010421E071
:1029600030E0F90101C0EE0F8A95EAF7D90102C003
:10297000AA0FBB1F6A95E2F7EA2B01C0220F4A9506
:10298000EAF7892F8E23E81305C0292B822F0E9496
:10299000A814089520952923F9CF21E030E001C043
:1029A000220F8A95EAF720958091010482230E94E4
:1029B000A814089590913803809589238093380353
:1029C000282F277069F4891759F09091090392FF15
:1029D00007C08695869586950E94CD14109238037F
:1029E000089521E030E001C0220F8A95EAF7809136
:1029F0000104822B0E94A8140895809101040E9472
:102A0000AC088230C1F028F4882359F0813069F095
:102A100008958430C1F098F042E36FEF853019F0EB
:102A2000089542E360E080E003C042E36FEF80E896
:102A30000E947014089542E36FEF8BE2F9CF42E3F6
:102A40006FEF85E5F5CF42E36FEF8FEBF1CFE0EF6E
:102A5000F3E043812FE0421B08F440E021E0628173
:102A600081810E948E130895E0EFF3E043812FE00F
:102A7000420F08F44FEF21E0628181810E948E13A2
:102A80000895E0EFF3E0628121E1621B08F460E069
:102A900021E0438181810E948E130895E0EFF3E0ED
:102AA000628121E1620F08F46FEF21E043818181AF
:102AB0000E948E130895E0EFF3E0818121E04381CD
:102AC000628181510E948E130895E0EFF3E08181CD
:102AD00021E0438162818F5E0E948E130895809170
:102AE000F403882319F081508093F4032091F003BC
:102AF0003091F1034091F2035091F3036091F4039C
:102B00007091F5038091F6039091F7030E9468138A
:102B100008958091F403833018F48F5F8093F40359
:102B20002091F0033091F1034091F2035091F303AF
:102B30006091F4037091F5038091F6039091F7038F
:102B40000E94681308952091F00320FF23C0217094
:102B500022602093F00380913B03816080933B03CC
:102B6000662381F03091F1034091F2035091F30319
:102B70006091F4037091F5038091F6039091F7034F
:102B80000E9468134091F3036091F2038091F10376
:102B90000E94701408958091F0038695815009F485
:102BA00081E061E00E94A315089561E081E00E9448
:102BB000A3150895E0EFF3E083E0808311828FEFA7
:102BC000828386E983831482A9E3B3E012968C9111
:102BD0001297836012968C93758123E030E04FEF5B
:102BE00056E960E0868197810E946813089590916C
:102BF000090392FB222720F9281779F080FB92F92C
:102C000090930903609108037091090384E090E0B8
:102C10000E94F13682E00E94DA14089590E080E08C
:102C20000E94BD36863E9E4F19F40E94DB0C08952B
:102C300080E00895B0E0A0E0E0E2F6E10C94013617
:102C40007901C82F880FDD0B41155105A9F0FE0150
:102C500093E0EE0FFF1F9A95E1F7ED5FFE4F818144
:102C6000928184579D4F208130E04217530708F42A
:102C70009A01A9010E94A636CE010E946C35D82E79
:102C80008823D1F001151105B9F083E0CC0FDD1FC9
:102C90008A95E1F7FE01ED5FFE4F438150E0041796
:102CA000150708F4A801CD5FDE4F6C817D81645764
:102CB0007D4FC7010E94A6368D2DCDB7DEB7E7E068
:102CC0000C941D36A5E0B0E0E8E6F6E10C94FE3584
:102CD0008D83E62E5A01F22E68018091F9028A3026
:102CE00028F080E02596EAE00C941A368D81893030
:102CF000C4F31A8219828A836B832C8363E070E0A9
:102D0000CE0102960E9487068983E0923301F092F9
:102D1000460110E000E030E020E044E050E0BE0179
:102D20006F5F7F4F85E00E941A168823D1F24E2DE7
:102D300050E030E020E0B50186E00E941A168823BA
:102D400081F230E020E041E050E0BE016B5F7F4F58
:102D500087E00E941A16882321F20F2D10E09601B9
:102D600050E040E070E060E088E00E941A16BACFC0
:102D7000A4E0B0E0EEEBF6E10C9404364091ED02F5
:102D80005091EE026091EF027091F0022FB7F8942B
:102D90008091370690913806A0913906B0913A0695
:102DA0002FBF841B950BA60BB70B11E08436910542
:102DB000A105B10518F10E94E90A6E5F7F4F8F4FA0
:102DC0009F4F69837A838B839C8310E000E030E01F
:102DD00020E044E050E0BE016F5F7F4F82E00E9440
:102DE0001A16182F882351F00E947B066093ED027B
:102DF0007093EE028093EF029093F002812F24965D
:102E0000E4E00C942036A5E0B0E0E9E0F7E10C94B2
:102E100002367B0101E010E09E012B5F3F4F50E046
:102E200040E070E060E080E00E941A16182F8823CE
:102E300009F456C04091E9025091EA026091EB0218
:102E40007091EC022FB7F894809137069091380674
:102E5000A0913906B0913A062FBF841B950BA60BA3
:102E6000B70B84369105A105B10548F464E070E024
:102E70008DE892E00E9487069D81891789F104E020
:102E800010E09E012F5F3F4F50E040E070E060E0B7
:102E900081E00E941A16082F64E070E08DE892E04D
:102EA0000E94870611E09D81981310E0102331F1F4
:102EB0000E947B066093E9027093EA028093EB0222
:102EC0009093EC0289819A81AB81BC818093E50269
:102ED0009093E602A093E702B093E80211E00EC0DF
:102EE00080918D0290918E02A0918F02B0919002FC
:102EF00089839A83AB83BC831111E4CF8091E5026F
:102F00009091E602A091E702B091E802F701808378
:102F10009183A283B383812F2596E6E00C941E361D
:102F20008F929F92AF92BF92EF92FF920F931F9357
:102F3000CF937B01942FB901A801F7018080918084
:102F4000A280B380EFB7F89400913706109138064D
:102F50002091390630913A06EFBF081919092A095C
:102F60003B09043611052105310518F4C1E0992308
:102F700081F010E000E030E020E00E941A16C82F37
:102F8000882339F00E947B06F70160837183828376
:102F900093838C2FCF911F910F91FF90EF90BF9053
:102FA000AF909F908F900895A1E0B0E0EAEDF7E137
:102FB0000C9404368091300689832091A00290E021
:102FC00041E02817190609F440E001E010E09E01F5
:102FD0002F5F3F4F65EF72E084E00E9490172196CB
:102FE000E4E00C942036ABE0B0E0E9EFF7E10C94BC
:102FF000043688E0E0EFF3E0DE01119601900D92D7
:103000008A95E1F78091390390913A03A0913B03AF
:1030100089879A87AB8741E08B85811101C040E0A9
:103020000BE010E09E012F5F3F4F61EF72E083E005
:103030000E949017811110923B032B96E4E00C94B0
:103040002036A8E0B0E0E7E2F8E10C94063666EE40
:103050007EEF90E080E00E94F13660E082E090E058
:103060000E94D33660E083E090E00E94D336109255
:10307000690260E074E184E090E00E94F13660E073
:1030800086E090E00E94D3366FEF87E090E00E94E8
:10309000D33640E050E0BA0188E090E00E94E53687
:1030A00060E084E290E00E94D33660E087E190E047
:1030B0000E94D33660E08CE090E00E94D33660E05E
:1030C0008DE090E00E94D33619821A821B821C8206
:1030D0001D821E821F82188648E050E068E170E081
:1030E000CE0101960E94C33640E050E0BA0180E272
:1030F00090E00E94E53680E00E94FE0B0E94170CD3
:1031000040E050E0BA018FE090E00E94E53640E0F8
:1031100050E0BA0183E190E00E94E5362896E2E0B3
:103120000C94223628E030E043E060E086E30E9421
:1031300068320895CF93DF93D82FC62F0E9492183C
:103140008D2F80680E94E0328C2F0E94E0328AEB43
:103150008A95F1F700C00E94103383E492E0019752
:10316000F1F700C00000DF91CF910895682F8937F3
:1031700008F068E76093A50191E09093A601909113
:103180009A01992339F06150811101C064E08FE008
:103190000E949A180895FB0180810E94B618089534
:1031A0009091A501911101C095E0282F880F330B54
:1031B000A901490F511DCA011816190614F081E022
:1031C00090E00E94B6180895ACE0B0E0EAEEF8E1B5
:1031D0000C9400364F83588769877A878B879C8742
:1031E00080919A01882309F446C080913E028111A2
:1031F00007C060E080E50E949A1881E080933E025B
:103200000E94921880E50E94E0328AEB8A95F1F7DD
:1032100000C00E94F8320E94F8320E94F8327C010D
:103220000E94F83220E0E22AF82A0E94F8328C014B
:103230000E94F83220E0022B182B0E94103385E008
:103240008A95F1F70000F894B70180919D01909163
:103250009E010E946D0990939E0180939D01B8018B
:1032600080919F019091A0010E946D099093A0010F
:1032700080939F0178940E94B30A882309F469C05F
:103280000E947B0600913F02109140022091410272
:10329000309142026B017C01C01AD10AE20AF30AA2
:1032A00097018601083011052105310508F451C048
:1032B00060933F02709340028093410290934202D8
:1032C0000091A8011091A9012091AA013091AB01B0
:1032D000601B710B820B930B6233710581059105A5
:1032E00080F410929E0110929D011092A001109204
:1032F0009F011092A2011092A1011092A4011092BC
:10330000A3011091A7010E94030B482FBE01695F22
:103310007F4F8DE991E0112389F10E94D10800913E
:10332000A70110919A010E94030B41E04827BE01BA
:10333000695F7F4F81EA91E0011719F10E94D1087E
:1033400086E0FE013796A2EBB1E001900D928A95DE
:10335000E1F786E0FE013796DE01119601900D92AD
:103360008A95E1F729813A814B815C816D817E816B
:1033700080E090E02C96E8E00C941C360E943E0918
:10338000CECF0E943E09DCCFCF93C82F0E94921867
:103390008C2F0E94E0328FE792E00197F1F700C096
:1033A00000000E94F832C82F95E09A95F1F70000CE
:1033B0000E94103385E68A95F1F7000010923E02D4
:1033C0008C2FCF910895CF93DF930E946032269A7D
:1033D0000E9492186AE58AE30E949A182FEF80E70C
:1033E00092E0215080409040E1F700C0000082E070
:1033F0000E94C41983E00E94C41984E00E94C41989
:1034000085E00E94C41986E00E94C41960E080E152
:103410000E949A1880E00E94C419D82F81E00E946F
:10342000C419C82F0E941033D23419F481E0C1307E
:1034300009F080E0817080939A01882321F064E094
:103440008FE00E949A18DF91CF9108951F920F92FA
:103450000FB60F9211242F933F934F935F936F9367
:103460007F938F939F93AF93BF93CF93DF93EF930C
:10347000FF93D091E900DF708091EC00C82FC170FC
:1034800080FDC0E81092E9008091F000877F809372
:10349000F00078940E94E80D1092E9008091F0000D
:1034A00088608093F000CD2BCF70C093E900FF912E
:1034B000EF91DF91CF91BF91AF919F918F917F91CC
:1034C0006F915F914F913F912F910F900FBE0F9091
:1034D0001F9018951F920F920FB60F9211242F93E1
:1034E0003F934F935F936F937F938F939F93AF938C
:1034F000BF93EF93FF938091E10082FF09C0809119
:10350000E20082FF05C08091E1008B7F8093E100A3
:103510008091DA0080FF24C08091D80080FF20C015
:103520008091DA008E7F8093DA008091D90080FF4D
:103530009DC080E189BD82E189BD09B400FEFDCF57
:1035400081E08093490680913B06811109C00E9469
:103550000C050E94AD058091E20084608093E2003A
:103560008091E10080FF17C08091E20080FF13C0CE
:103570008091E2008E7F8093E2008091E200806182
:103580008093E2008091D80080628093D80019BCBB
:1035900085E0809349068091E10084FF2BC08091F3
:1035A000E20084FF27C080E189BD82E189BD89B541
:1035B000982F917080FFFBCF8091D8008F7D8093F2
:1035C000D8008091E1008F7E8093E1008091E2003D
:1035D0008F7E8093E2008091E20081608093E20020
:1035E00080914A06882309F447C084E08093490605
:1035F000809149068091E10083FF27C08091E2001D
:1036000083FF23C08091E100877F8093E10082E007
:103610008093490610924A068091E1008E7F809344
:10362000E1008091E2008E7F8093E2008091E200D1
:1036300080618093E20042E060E080E00E947B05D0
:103640008091F00088608093F000FF91EF91BF912E
:10365000AF919F918F917F916F915F914F913F912A
:103660002F910F900FBE0F901F90189519BC1092BC
:10367000490610923B0674CF8091E30087FD93E0EA
:1036800090934906B5CF78941F921FB61F921124CC
:103690008F939F93AF93BF93809137069091380695
:1036A000A0913906B0913A060196A11DB11D8093F3
:1036B000370690933806A0933906B0933A06BF9127
:1036C000AF919F918F911F901FBE1F9018959C01E5
:1036D0004FB7F8948091370690913806A09139063B
:1036E000B0913A064FBF821B930B08952FB7F89401
:1036F0008091370690913806A0913906B0913A062C
:103700002FBF0895ADE0B0E0E8E8FBE10C94F73599
:1037100080913306882309F454C08091310690913A
:1037200032060E94671BC29760F10E94761B90933D
:1037300032068093310608E214E01093FF030093F1
:10374000FE030E94B30A811140C01093FF0300934F
:10375000FE0310E900EF010F60E081E497E00E94B2
:103760000912FF24F394F00E60E0802F0E94731181
:103770000F2DF112F6CF80E00E941B12105F103C5B
:1037800049F780912A0690912B06892B09F05EC19A
:10379000809130068823A9F00E947B0600912C06B8
:1037A00010912D0620912E0630912F06601B710B73
:1037B000820B930B6F3F7F4F8F4F9F4710F40E94F8
:1037C00025132D96E1E10C9413368091880188230E
:1037D00021F00E94F40C1092880188E294E090930A
:1037E000FF038093FE038091070481115EC060E0B7
:1037F00084E497E00E94D51230910104432F50E0F9
:10380000FE01319681E090E0332351F0BA01082E99
:1038100002C0759567950A94E2F720E3280F60FFD0
:103820002DE2219301968630910571F71E82CE011B
:1038300001960E944E120E94D80A80FBFF24F0F8E5
:1038400081FB002700F982FB112710F960E088E571
:1038500097E00E94D5126F2D84E597E00E94D51263
:10386000612F8FE497E00E94D512602F8AE497E0E1
:103870000E94D51260E082E697E00E94D512609126
:103880007B018DE597E00E94D5126091870189E563
:1038900097E00E94D51260E081E697E00E94D51281
:1038A0000E948D120E94DB126CCF813009F06BC038
:1038B0002091A501211101C025E064E6269F900119
:1038C0001124203187E2380710F02FE037E2C901D8
:1038D00068EE73E00E94E235605D6983C90164E6C9
:1038E00070E00E94E235CB01EAE0F0E0BF010E9407
:1038F000E235805D8A83C901BF010E94E235282F2D
:10390000CB01BF010E94E235805D8B83205D2C835B
:103910001D8260E083E697E00E94D512CE010196F9
:103920000E944E1260E08EE697E00E94D51260E0A1
:1039300087E697E00E94D5126091B40188E50E9465
:103940006A126091B50189E50E946A126091B7011F
:1039500088E40E946A126091B60186E50E946A12AC
:1039600060E08DE697E00E94D5120E948D120E94C1
:10397000DB1260E08CE697E00E94D51287E192E0CE
:103980000E944E12FECE609102048EE797E00E94E4
:10399000D51260E08DE797E00E94D51260E089E7DC
:1039A00097E00E94D51282E58F8380910604805DA6
:1039B000888783E4898780910504805D8A871B86D8
:1039C000CE0107960E944E1260E088E797E00E94C1
:1039D000D5128091030490910404FC01EF2FFF277E
:1039E000E295EF70E054FE4F20812983E92FFF27F5
:1039F000EF70FF27E054FE4F20812A83FC0174E022
:103A0000F695E7957A95E1F7EF70FF27E054FE4FC2
:103A100020812B838F709927FC01E054FE4F808119
:103A20008C831D8260E084E797E00E94D512CE016E
:103A300001960E944E1260E083E797E00E94D51243
:103A400060E08FE697E00E94D5122CCF809133067C
:103A5000882309F49DCE80912906811199CE0E9478
:103A6000401320912A0630912B062115310509F4C7
:103A70008FCE80E041E050E0082F10E07A01082E60
:103A800002C0EE0CFF1C0A94E2F7B7016223732315
:103A9000672B11F48F5FF0CF9091280690FF9CC0A8
:103AA000880F880F880F80938B0110928E01895F99
:103AB00080938C0183E080938F0124E630E047E01F
:103AC00050E069E871E088E70E94DA33892B09F059
:103AD0005FCEA80125E0440F551F2A95E1F780919C
:103AE000280680FF8BC0E8E0F4E080E2DF011D9251
:103AF0008A95E9F7E1E2F2E0FD87EC870DE112E05B
:103B000085E2A82E82E0B82E97E0392E4424439413
:103B1000AC85BD858D91BD87AC87F80121918F0162
:103B2000240F352F311D285D3B4FE82FF0E0E85F73
:103B3000FB4F90E080E0632C681A742C082E01C0C3
:103B4000770C0A94EAF76901812CD6019D906D01EA
:103B50009720662D68196770562E062E000C770B7D
:103B6000B92D01C0BB0F5A94EAF77195619571099F
:103B70006770772701C096946A95EAF79B2A60815F
:103B8000562E59285082839468E08612DECF019623
:103B900031968830910579F68C859D85A816B906F1
:103BA00009F0B6CF04E610E020E230E048E054E04F
:103BB00060E488E70E94FB33892B09F0E9CDE094AB
:103BC000F09480912A0690912B06E822F922F09237
:103BD0002B06E0922A06DCCD8295880F80768093B2
:103BE0008B019801369527953695279520938E0160
:103BF000815E80938C0120938F015FCF485D5B4F86
:103C000004E610E020E230E0D3CFAEE1B0E0EBE03C
:103C1000FEE10C94053640913203509133036091DC
:103C200034037091350380913603909137030E94DD
:103C3000E4182093320330933303409334035093BA
:103C40003503609336037093370386E0E2E3F3E0D5
:103C5000DE01179601900D928A95E1F786E0FE014C
:103C60003796DE011D9601900D928A95E1F786E068
:103C7000FE013D96DE01119601900D928A95E1F7C5
:103C800086E0FE013196A2E3B3E001900D928A95A1
:103C9000E1F786E0E2E3F3E0DE01599601900D9250
:103CA0008A95E1F786E0FE017996DE01179601908C
:103CB0000D928A95E1F786E0FE013796DE011196B6
:103CC00001900D928A95E1F786E0FE013196DE01C2
:103CD000539601900D928A95E1F786E0FE01739666
:103CE000DE01179601900D928A95E1F786E0FE01BC
:103CF0003796A2E3B3E001900D928A95E1F786E052
:103D0000E2E3F3E0DE01179601900D928A95E1F768
:103D100080917B01882309F445C0809180019091B6
:103D200081010E94671B20917F0128171906D0F599
:103D300080918201909183010E94671B8B3A9105CB
:103D400088F189859A85892B9B85892B9C85892B70
:103D50009885892B91E009F490E0909384010E946A
:103D6000D00610910104882351F10E94761B909394
:103D700081018093800110928301109282018091D1
:103D80007C01111105C0882369F00E94F1140AC05A
:103D9000212F30E0082E02C0359527950A94E2F7CE
:103DA00020FFF3CF0E942F0D81112FC0809131038E
:103DB0001092310381706E96E3E00C94213680916D
:103DC0007C01111118C08111EDCF8091800190917B
:103DD00081010E94671B20917D0130917E0128178F
:103DE000390700F780917C010E94CD141092810167
:103DF00010928001D7CF212F30E002C03595279552
:103E00008A95E2F720FFCECFE0CF81E090E0D0CFDF
:103E1000A9E1B0E0EEE0FFE10C94F6358E01045F1D
:103E20001F4F88E0D8011D928A95E9F733E0C32E31
:103E300032E0D32EF12CE12CAA24A394B12C5DE026
:103E4000852E52E0952EF60181916F018F3F09F486
:103E500042C0F894E82FE295EF70F0E021A18F7056
:103E6000A50102C0440F551F8A95E2F7CA01922F9F
:103E7000982B91A392A18095892382A3789400C066
:103E8000E7E0F2E0712C31E021912F3F09F46BC0A3
:103E9000A22FA295AF70B0E090968C9190E02F7019
:103EA00002C0959587952A95E2F780FD5CC0832F27
:103EB000782A330F8E169F0639F7F60131978081E5
:103EC0008F3F11F00E942C0750EA5A95F1F7F80144
:103ED000EE0DFF1D70828FEFE81AF80A94E0E916E4
:103EE000F10409F0B0CF48E050E0B8018EEF92E065
:103EF0000E949936009741F028E0F801AEEFB2E059
:103F000001900D922A95E1F700910703892B69F141
:103F100081E080936E020E94761B90936D028093E5
:103F20006C0280916C0290916D020E94671B059754
:103F300000F110E00B5E1C4F44E050E06EEF72E0C9
:103F4000C8010E949936212C892B51F084E0EEEFB4
:103F5000F2E0D80101900D928A95E1F72224239492
:103F600010926E0207C080E0A3CF80916E02811193
:103F7000D8CF212C0E94B30A582EE0910703882342
:103F800009F479C119821A821B821C820E2F10E05B
:103F90000B5E1C4F8091F9028A3008F010C143E09B
:103FA00057E1BE016F5F7F4FC8010E94800A8823DE
:103FB00009F42BC148EB56E1BE016F5F7F4FC8018A
:103FC0000E94800A882309F420C143EF57E1BE0113
:103FD0006F5F7F4FC8010E94800A882309F415C1D2
:103FE00044ED57E1BE016F5F7F4FC8010E94800A18
:103FF000882309F40AC11092F9028091060390E027
:1040000044E050E0BE016F5F7F4F8B5E9C4F0E948B
:10401000993621E020938A02892B09F0E8C0512CBF
:10402000E5E1F3E0FF8BEE8B2DE032E03D8B2C8B56
:104030008EE7A82E82E0B82E99EEC92E91E0D92EF7
:1040400021EDE22E21E0F22E712CAE89BF896D9018
:10405000BF8BAE8BEC89FD898191FD8BEC8B682247
:10406000D5018D915D01861509F453C010E000E083
:104070008625E82FF0E0F98FE88F862C912C202FF1
:10408000302F888D998D002E02C0959587950A94C2
:10409000E2F780FF35C081E090E0002E02C0880F7B
:1040A000991F0A94E2F788219921F3E0F71508F4A3
:1040B000BDC0F601E00FF11F40804FEF441601F143
:1040C0003324339453E0571508F4312C892B09F429
:1040D000B2C080917C0281110EC010927D0270925C
:1040E000790230937102409201010E94761B9093F5
:1040F0007B0280937A0241E0632D842D0E94480B5D
:104100000F5F1F4F0630110509F0B9CFF501319748
:104110006082739486E0C80ED11C96E0E90EF11C13
:10412000A8E07A1292CF80919301882369F0809160
:104130007502882309F49DC080917402882309F4D4
:104140008EC082E0809394010E947B0B80917D025F
:104150008823D9F080917C0281110CC080917A0271
:1041600090917B020E94671B8A3A910570F081E072
:1041700080937C0261E080917902843008F060E0F5
:1041800042E0809101010E94480B809178028823CF
:1041900081F00E94B30A882361F010E000E020E083
:1041A00046E752E062E08DE00E94621681111092B3
:1041B0007802852D82296996E2E10C94123680916D
:1041C0006F02909170020E94671B843F914008F03B
:1041D000E6CE80918A02882309F421CF84E0FE0193
:1041E0003196DF011D928A95E9F710928A02E091DB
:1041F0000603F0E0EB5EFC4F89819A81AB81BC81C4
:1042000080839183A283B3830BCF8091F9028F3F88
:1042100031F08F5F8093F9028A3008F4EECE0E946D
:10422000761B9093700280936F02D3CFF80178973A
:10423000EE0DFF1D41CF80917902871108C080915A
:104240007102821304C010927D0210927C0240E041
:10425000632D842D0E94480B0E94FD1451CF809144
:104260007202909173020E94671B8A3A910508F0CE
:1042700068CF81E067CFF0E0EB5EFC4F84E0ADE813
:10428000B2E001900D928A95E1F764E070E08DE86C
:1042900092E00E94870680938C02C0909102D09099
:1042A0009202E0909302F0909402809186029091A5
:1042B0008702A0918802B0918902C816D906EA0641
:1042C000FB06D1F0C0928602D0928702E09288026B
:1042D000F09289020E94B30A81110EC00E947B06EF
:1042E000C61AD70AE80AF90AC092FA02D092FB026B
:1042F000E092FC02F092FD028BE0E5E9F2E0DE01E3
:10430000119601900D928A95E1F79981892F8695F2
:104310000A81FB80EC801B8510929F021123A1F083
:1043200010FF0AC090FF17C09091F0039160909326
:10433000F00360E00E94A31511FF06C020E04E2D9F
:104340006F2D802F0E948E138091A002882331F060
:104350000E9440132ECF0E94210AEECF0E94251307
:1043600028CFA0E2B0E0E7EBF1E20C94F8358C0145
:10437000DC0114968C911497882309F4B7C021E0CE
:104380004C9111965C91119712966C91129713961D
:104390007C91139715969C910E94AD0C7C01F801BD
:1043A000D580DD2009F45AC197578038910508F06F
:1043B00055C1FFE0FE1508F489C08FEF93E00E941D
:1043C000AF36811183C0A9E6AA2EA2E0BA2EE11071
:1043D00047C0FE01339686E0DF011D928A95E9F71A
:1043E000FAE04F2E7501BFEFEB1AFB0AC5010E94E0
:1043F000AF3689831A82882309F468C0813009F0B6
:1044000079C06501E2E0CE0ED11CC7010E94AF3633
:104410008A83882309F45AC09FEF980F933070F570
:10442000F3E0AF0EB11CC6010E94AF368B83882328
:1044300009F44CC01C82DE0111967D01F701208138
:10444000222381F2213009F0B4C091818281913020
:1044500009F052C0F2E0EF0EF11C0E94571153C058
:10446000A11424E0B20691F1C5010E94AF3681117A
:1044700001C0EA943FEFA31AB30AA9CF56018430D2
:10448000D1F6E2E0EE2EF12C56012FEFA21AB20A7D
:10449000C6010E94AF36E1E0F0E0EC0FFD1FEE0D2B
:1044A000FF1D8083882391F08C3741F4E2E0F0E037
:1044B000EC0FFD1FEE0DFF1D1082BDCF3FEFE31A85
:1044C000F30A650187E0E816F104F1F680913803FC
:1044D000877061F0D80115968C91882339F080910E
:1044E000090382FF03C082E00E94DA14A096E0E193
:1044F0000C94143657019FCF923039F522E0E20E2A
:10450000F11C0E94FD10EFEFEE1AFE0A8FE99FE00A
:104510000197F1F700C00000AFE9BFE01197F1F794
:1045200000C00000EFE9FFE03197F1F700C00000A4
:104530008FE99FE00197F1F700C00000AFE9BFE00D
:104540001197F1F700C0000079CF933031F432E0D9
:10455000E30EF11C0E94D110D6CF943021F08FEFE2
:10456000E81AF80AD0CF92E0E90EF11C30E020E022
:10457000B7016F5F7F4FD70111964C918053990B14
:104580008A30910558F02150310908F4BCCFEFE989
:10459000FFE03197F1F700C00000F5CF429EF00137
:1045A000439EF00D11249C012E0F3F1F842F7B0191
:1045B000DFCFE22FF0E0E257FE4F5490822F869536
:1045C0008695869590E0FC01E258FE4F6490277036
:1045D000712C022E02C0759467940A94E2F731E0C0
:1045E00063227724FC01E259FE4F8490912C022E25
:1045F00002C0959487940A94E2F7A1E08A22992454
:10460000FC01E25AFE4FC490D12C02C0D594C7944D
:104610002A95E2F7B1E0CB22DD246114710419F090
:1046200081EE0E94FD108114910419F086EE0E9423
:10463000FD10852D0E9457118114910419F086EE0A
:104640000E94D1106114710419F081EE0E94D11002
:10465000C114D10409F457CF8CE2FFCE80917B01C5
:10466000882309F46FC0B0E2EB16B2E5FB0608F050
:1046700052C0E114E2E5FE0608F069C1E114F0E47D
:10468000FF06E0F5E11420E2F20608F08CC130EEFE
:10469000E316F10450F088EEE816F10408F44DC07A
:1046A000E11491E0F90608F048C0F80184818823FC
:1046B00009F443C0F7E0EF16FEE7FF0609F45EC118
:1046C000C7018D5C9109439708F458C10E94D00638
:1046D000811133C0DD2059F080917C0120910104CB
:1046E000211168C1882309F46EC10E94090D0E943E
:1046F000761B90938301809382011FC0E114A0E593
:10470000FA0608F03FC1F8018681807F09F04BC1AD
:104710008F2D99273DC1B0E8EB16B2E5FB0608F0F6
:10472000ECC0E0E6EE16E2E5FE0608F010C1F0E4AB
:10473000EF16F2E5FF0608F418C18091860187FDA7
:1047400010928601F092AF01E092AE01D8018D91F6
:104750009C9111979093B1018093B001F701349728
:10476000E533F105B0F4E25FFD4FE49115968C91CD
:1047700020EB811102C02E2FE0EBA8EBB1E090E01E
:1047800080E03D91321322C186569E4FDC015E9639
:10479000EC93F8018581882309F4BDC5918190933C
:1047A0000604908190930504F0920404E0920304BF
:1047B0009FEF90930001F6E7EF16F10409F40CC1A6
:1047C00027E7E216F10409F420C1D0907502DD203C
:1047D00009F43FC1E1E4EE16EEE7FE0609F441C13B
:1047E000882321F091E090937402D82ED801159679
:1047F0008C91882309F47BC5C7018827907F811598
:10480000B0E29B0719F08115904411F5909179025F
:10481000D80111968C9189131BC090917102D80117
:104820003C91391315C090E0FC01EB5EFC4F835FB7
:104830009D4F2081FC018081822390E002C09595EC
:1048400087953A95E2F780FF03C081E080937D026F
:10485000B1E4EB16BEE7FB0621F5D8012C918FEFF2
:104860002630B0F411964C91842F90E030E0443023
:1048700008F027C141E04093920146E0489FF001D3
:10488000499FF00D1124E751FE4FE20FF31F808185
:104890008093910181E080939301809394010E9421
:1048A0007B0B80918701882309F462C1F801408164
:1048B000463008F412C1C7019A9581159F4108F44A
:1048C00064C1F701D80115968C91E13DF10548F0DE
:1048D000E93DF10508F45CC1E730BEE7FB0709F4E8
:1048E0006EC1882309F458C1FE57E031F10508F084
:1048F00053C1ED5EF84C0C944D3620ECE21622E5E7
:10490000F20608F41ACF30EEE31632E5F30608F0AB
:10491000CCCE20917C01C7018F71992728171906E9
:1049200009F00BCF8D2D0E94B906D80116968C91F7
:104930001697807F803509F000CF15968C918823DB
:1049400061F180918601815080938601F6CE20919D
:104950007C01C7018F7199272817190609F0EDCE40
:10496000D110EBCE0E94C706E8CE20917C01C70192
:104970008F7199272817190609F0DFCE8D2D0E9417
:10498000B906DBCEC70175E0969587957A95E1F774
:104990008F70992720917C01EDCF0E94C7068091EE
:1049A00086018F5FD1CFD80116968C91807F09F454
:1049B000C4CE7BCE30E0082E02C0359527950A94F0
:1049C000E2F720FF92CE0E94CD148FCE0196863062
:1049D000910509F0D6CEDDCE80913C06827239F089
:1049E0008091020491E08927809302046FCD809129
:1049F000070490E0019663E070E00E9439368093EE
:104A0000070481E08093880161CD8091870191E066
:104A1000892780938701811159CD4CE3E42E43E02F
:104A2000F42E50EFC52E53E0D52E8091F00380FF79
:104A300009C0D70111961C9211971C9212961C92D4
:104A40000E94D609B3E0EB0EF11CCE14DF0469F727
:104A50003DCDDD24D394F1E4EF16FEE7FF0609F027
:104A6000C5CE882381F081E0809375021092740294
:104A70000E94761B909373028093720285E00E94DD
:104A8000F114D12CB3CE80917202909173020E94E6
:104A9000671B8A3A910578F48091740291E0892726
:104AA00010927502282F2170D22E80FF06C080E25E
:104AB0000E94A814E6CF80E0F3CF85E00E94CD14D9
:104AC00095CE10929201049746E0489FF001499FCD
:104AD000F00D1124EF52FE4FD8CEA080B180BA2441
:104AE000AB24BA245181852F90E0242F30E054303C
:104AF00008F041C066E0689FF001699FF00D112445
:104B0000E751FE4FE20FF31FC080F8019580992016
:104B100051F05093060440930504F0920404E0928F
:104B20000304C09200010115110511F10E94761BCA
:104B3000209102042223E1F0FE013B9626E1DF01F1
:104B40001D922A95E9F72BE4298321E02A831B8211
:104B50009C82FE82ED82B886AF829A878987CB8657
:104B600040E250E0BE016F5F7F4F82E00E9480090B
:104B7000D110A1CEABCC049766E0689FF001699F8D
:104B8000F00D1124EF52FE4FBDCFF701FF279ACE53
:104B9000682F8E2F0E94880DD80115968C91811157
:104BA000C5C380913C068272F701E052F847E531B7
:104BB000F10508F0E6C0ED5DF84C0C944D360E940E
:104BC000BD08EACF80E00E94B6181092AC0180E0E8
:104BD0000E94260D8AE892E00E94180D77CC409141
:104BE000A5012091AC0120FB47F926952370809107
:104BF0007B0180FB22F980917D0190917E0162E32F
:104C000070E00E94E2355FEF560F550F550F550FBC
:104C1000522B6091AD01637070E08FE090E00E94D4
:104C2000E53654CC81E00E94D01850CC8FEFFBCFFA
:104C30008AE0F9CF86EFF7CF9091A70181E089272D
:104C40000E94BD0843CC8091AC01811101C084E079
:104C50008F5F18160CF081E0883008F087E08093B1
:104C6000AC0134CC8091AC01811101C084E0815051
:104C7000F0CF81E08093AD0129CC1092AD0126CC1C
:104C800082E0F8CF90917B0181E089270E94260D78
:104C90001DCC80917D0190917E01C296893EE3E01A
:104CA0009E0708F499CF88EE93E096CF80917D011E
:104CB00090917E01C2978436910508F08DCF84E6ED
:104CC00090E08ACF8091F00380FF1CC0282F2E7FB8
:104CD0002093F0033091F1034091F2035091F303DC
:104CE0006091F4037091F5038091F6039091F703BE
:104CF0000E94681380913B03816080933B030E9474
:104D0000D609E4CB81608093F00361E086950E9430
:104D1000A315DCCB4BEC55E165ED75E10E949D06DA
:104D2000D5CB45ED55E16BEC75E1F8CF4BE555E1A1
:104D300065E675E1F3CF45E655E16BE575E1EECF4C
:104D400041E455E16EE475E1E9CF4EE455E161E4FB
:104D500075E1E4CF47E255E164E375E1DFCF44E379
:104D600055E167E275E1DACF4FE655E169E875E1B3
:104D7000D5CF49E855E16FE675E1D0CF61E081E03C
:104D8000C6CFB7E7EB16BCE7FB0609F461C0E8E75E
:104D9000EE16ECE7FE0609F461C0F8018581E080BB
:104DA000F180882309F490C0C7010E94640CD82EBA
:104DB000682FC7010E945708B7018D2D0E94560C1D
:104DC0000E944307F82ED92E882ED8011596CC9034
:104DD00015971696BC90B2943FE0B32280913803A9
:104DE0008770F1F0AC2CCC20E1F0892F807F8034EB
:104DF00051F080E28F0D883098F0B11004C0892FF7
:104E0000807E803269F08091090382FF09C082E0D0
:104E10000E94DA14809138038770AA24A394811128
:104E2000A12C9D2C92942FE09222BBE0B91508F49E
:104E3000B4C0E92DF0E0E85CF84C0C944D3681E00C
:104E40000E94F11443E062E081E00E94AD143ECB89
:104E500081E00E94CD14F6CF82E0F2CF82E0F9CF5C
:104E60009BE5E9169CE7F90669F1ACE5EA16ACE7C3
:104E7000FA06F1F0BAE5EB16BCE7FB0609F08DCFB8
:104E800081E01DC010923C060E94DC0DEFEFF4E3C0
:104E90002CE0E150F0402040E1F700C000000E940B
:104EA0006A066FEF7FEF90E080E00E94F1365DC20E
:104EB0008091090382FB882780F991E089270E946D
:104EC000F7156BCF80E0FBCFC7010E942308D82ED7
:104ED00073CFED2DEF70EE2E8D2D807F19F0E294C3
:104EE00090EFE922CC20B9F0EE2069F080E28F0D3E
:104EF000883010F0811009C080913C06E82AE092C9
:104F00003C060E949F0D8F2D46C080916802E82AC2
:104F1000E0926802F6CF8F2D0E94D110EE20E9F1C9
:104F200080E28F0D883010F0811004C08E2D0E9419
:104F3000120806C0E09480916802E822E0926802BC
:104F40000E949F0D2AC0FD2DFF70EF2E8D2D807FBA
:104F5000803219F0E29480EFE822882059F021E0B5
:104F6000821609F48DC0CC2009F499C0BB2009F445
:104F70005BC0C9CF8091090382FD52C0CC2009F4E7
:104F800048C0EE2039F080913C06E82AE0923C06C9
:104F90000E949F0D80E00E94FD10A92DA850BB0B20
:104FA000149710F40E94D80A8F2D9D2D0E9491080D
:104FB00081118BC11092450210924402AA20A9F0DF
:104FC0008091380380FD11C0F80115828695869581
:104FD00086950E94F114C8010E94B1218091380386
:104FE0008695869586950E94CD1420E0D8014C9137
:104FF00011965C91119712966C91129713967C9171
:10500000139714968C91149715969C910E94AD0C51
:105010006DCA80E00E94D110EE2009F4BECF86CF89
:10502000CC20A1F0B11004C08E2D0E94C710B5CFC6
:1050300031E0B312B2CF809167029E2D9823E9161A
:1050400009F4ABCFE82AE0926702A7CFB110A5CF51
:105050008E2D0E94C010909167028E2D892329F019
:105060008E2D8095892380936702809143029E2D27
:10507000982309F492CFE094E822E09243028DCF86
:10508000CC2029F085E08B1508F487CFCDCF94E0B4
:105090009B1508F482CF8E2D0E94C0107ECFBB20BE
:1050A000D1F3A9E38A1209C1BFEFE7EEF3E0B150F3
:1050B000E040F040E1F700C000008F2D0E94D110C9
:1050C0006CCF6C2D8F2D0E94880D67CF8D2D837036
:1050D00091F5C11062CF4F2D429546954770440F10
:1050E000440F8F2D8F70042E01C0880F0A94EAF7A9
:1050F0002F2D2071F4FE07C02FE030E001C0220FF9
:105100004A95EAF720953D2D369536953370323025
:1051100069F050F440916902313029F0822B8423E8
:105120000E948E083ACF842B822BFACF282B8091B5
:1051300069028227F5CF8695CC2011F08D2D8170E4
:10514000882309F42ACF4F2D429546954770440F86
:10515000440F8F2D8F70042E01C0880F0A94EAF738
:105160002F2D2071F4FE07C02FE030E001C0220F88
:105170004A95EAF720953D2D3695369533703230B5
:1051800069F050F440910104313029F0822B8423DE
:105190000E94A81402CF842B822BFACF282B809157
:1051A00001048227F5CF9D2D9F70E92ECC2029F098
:1051B000892F0E94F1148F2D38CF8F2D0E94C0109F
:1051C0008E2D0E94CD14E9CE8F2DA2EF8A16B1F15B
:1051D000A81570F0B0EF8B16D1F0E1EF8E1691F0BC
:1051E000CC2009F45EC0B1108ECE8D2D8F712AC0F7
:1051F000F3EF8F1651F124EF8212F2CF8091090361
:1052000082FD2FC08D2D8F71CC20D9F21BC0CC20F8
:1052100081F034E03B1508F4C0CE2D2D2F7181E0D4
:1052200090E001C0880F2A95EAF790910104892740
:10523000AFCF85E08B1508F4B0CEEFCF8D2D8F71F9
:10524000C110BFCF0E94F114A8CE80E0CC2009F499
:105250009FCF81E09D2D9F7101C0880F9A95EAF73D
:1052600097CFCC2099F09D2D9F71E92E892F0E9418
:10527000F1148091090382FF07C0A8E0EA9EC001F3
:1052800011248360809338038E2DDCCF81E00E944F
:10529000DA14B1E0BB1508F080CE82E00E94DA1487
:1052A0007CCEBB2079F0893341F4EFEFF7EE23E0B9
:1052B000E150F0402040E1F7FECE8FE19EE40197FF
:1052C000F1F7F9CE8D2D8F717CCFCC2019F0B11074
:1052D00071CE74CEB1106ECE809144029091450291
:1052E000029709F067CE8F2D0E94571163CEE1E43B
:1052F000EE16EEE7FE0609F0D4CA10929301109262
:10530000940140E060919201809191010E94480BCC
:105310000E94FD14C6CAB6E7EB16F10409F4D6C81C
:10532000E7E7EE16F10409F4D1C84FCAF7E7EF1624
:10533000FCE7FF0609F483CD28E7E2162CE7F20626
:1053400009F48ACDF3E0EF16FCE7FF0609F4A9CDD6
:1053500008F086CDE1143CE7F30609F493CD81E033
:10536000E8168CE7F80609F018CD0E94A810CF9334
:10537000DF9380915E02807F09F04DC080915D02D5
:10538000882309F448C0E0918C0650915306C091DF
:105390005902D091580260915A0270915B0247E025
:1053A0005E17C9F18E2F90E0E49FF0011124EC5AB2
:1053B000F94F2481222391F1489FF001499FF00D7C
:1053C0001124DF01AC5AB94F11962C9111972C136F
:1053D00025C02C912D1322C015962C9115972111C3
:1053E0001DC012962D913C91261B370B2A3A310590
:1053F000A8F480915E028F70806180935E02E65A0D
:10540000F94F80818F708061808388E592E00E94EF
:10541000B1210E941908DF91CF910895FC013196C6
:10542000E770BECFA4E1B0E0E8E1FAE20C94FC350D
:105430008C0186E0F801DE011F9601900D928A959D
:10544000E1F7D80114968C9114971596EC90159766
:1054500098E5892E92E0992E90915C02911128C0D6
:10546000882319F1EE20F1F0C8010E94A00CF82E5B
:105470008823C1F087E0F801D40101900D928A954C
:10548000E1F780915C02813031F480915802909173
:1054900059020E94930C0E94B7298F2D6496ECE06C
:1054A0000C941836C8010E94B121FF24F394F5CF63
:1054B000F801D080C180A280B380F0905D0220917D
:1054C0005A0230915B02A501421B530BFF2009F4E5
:1054D000E6C04A3A510508F0A8C08823F1F290913D
:1054E000590280915E02282F207F09F05FC0C91207
:1054F00015C0909158029D1111C0E11051C08F70DC
:10550000806180935E0288E592E00E94B1218091E3
:105510005E02D80116968C93F12CBFCFE11040C0EB
:105520006C2D8D2D0E94ED04E82E882361F088E516
:1055300092E00E94B12187E0E8E5F2E0DF011D92F0
:105540008A95E9F7E9CFDF86C88A8F8598890E9416
:10555000930C292F22952F70243058F49F702230FD
:1055600088F0992399F0F8019681907F79F4FE2CC8
:1055700094CF2A5F2F70223068F0C8010E94B121B9
:10558000EF2CF5CF992311F0882389F3805E8830C2
:1055900070F3F3CF803F58F3815F833070F7E7CF2C
:1055A00080915E02816080935E02B6CFC91214C002
:1055B000909158029D1110C0E1100EC016968C9368
:1055C000C8010E94B12187E0F801A8E5B2E001908E
:1055D0000D928A95E1F761CFC8010E94A00C882343
:1055E00009F460CFEE2009F45DCF80915E02803235
:1055F00088F0209158023091590239872887BB865C
:10560000AA8690915C029C871D868E87CE010896A3
:105610000E94B12187E0F801A8E5B2E001900D9267
:105620008A95E1F70E94B72940CF90915E02292F19
:10563000207F09F47CCF882309F42FCF8091590271
:105640008C1110C0809158028D110CC0E1100AC05D
:105650009683C8010E94B12187E0D4011D928A95EA
:10566000E9F71BCFC8010E94A00C882309F41ACFC8
:10567000EE2009F417CF80915E02803258F220911B
:105680005802309159023A832983BC82AB829091AF
:105690005C029D831E828F83CE010196B9CF4A3A68
:1056A0005105D0F6882309F400CFFE2CEE2009F432
:1056B000F9CE809159028C1117C0809158028D113A
:1056C00013C080915E0280FD7ECF982F907F09F4F9
:1056D0007ACF8683903F09F473CF982F907F905FA5
:1056E0008F70892B86836CCFC8010E94A00C81111A
:1056F00091CF80915E02816080935E02C8010E941A
:10570000B121CBCEABE1B0E0E8E8FBE20C9404368B
:105710004E8B5F8B688F798F8A8F9B8F182F092F05
:10572000882349F08091440290914502019690931C
:105730004502809344020111109268021D8A86E09E
:10574000FE017696DE011F9601900D928A95E1F793
:10575000112349F021E04F85588969897A89812F81
:10576000902F0E94AD0C1B8B0C8B87E0FE013F96A7
:10577000DE01189601900D928A95E1F7CE01089608
:105780000E94122A81112AC087E0FE013896DE01AC
:10579000119601900D928A95E1F78C858823F1F09E
:1057A0002091530630E0C9010196877099274091F6
:1057B0008C0648171906E9F097E0929FD001939F55
:1057C000B00D1124AC5AB94FFE01319601900D92E3
:1057D0009A95E1F7809353060E94190817E080918B
:1057E0008C0690915306891314C06B96E4E00C94D8
:1057F000203610923C060E94DC0D10925306109247
:105800008C0687E0E8E5F2E0DF011D928A95E9F772
:10581000E5CF819FC00111248C5A994F0E94122A12
:10582000882319F380918C0690E001968770992760
:1058300080938C06D4CFA6E0B0E0E1E2FCE20C94C9
:1058400004360E94761B8C0180916A0290916B0253
:105850008017910781F019821A820E94761B682FA7
:1058600049815A81792F80E090E00E94822B109329
:105870006B0200936A022696E4E00C9420361F9295
:105880001FB61F9211248F939F93AF93BF93809164
:105890003606811113C08091370690913806A09189
:1058A0003906B0913A064196A11DB11D8093370685
:1058B00090933806A0933906B0933A06BF91AF9102
:1058C0009F918F911F901FBE1F901895CDB7DEB787
:1058D000A6970FB6F894DEBF0FBECDBF85B7806820
:1058E00085BF85B7806885BF84B7877F84BF0FB6C3
:1058F000F894A89580916000886180936000109270
:1059000060000FBE80E890E00FB6F89480936100CD
:10591000909361000FBE8EEF96E0909335028093D6
:1059200034020E940C050E94AD058091E200846063
:105930008093E2007894809149068823A1F0109129
:10594000E9001F709091EC00892F817090FD80E834
:10595000182B1092E9008091E80083FD0E94E80D69
:105960001F701093E90082E084BD93E095BD9AEF2B
:1059700097BD80936E001092FA021092FB02109273
:10598000FC021092FD020E94DB0C811102C00E94F9
:10599000170C0E94030B809302018091020188235F
:1059A00009F468C0109295018EE1809396010E94DF
:1059B000B30A81110E94803480910201809102011A
:1059C00094E0811190E09093070384E0891B809319
:1059D000060384EF0E942C0785EF0E942C0786EFB8
:1059E0000E942C0787EF0E942C0707E012E0D801E5
:1059F0008D918D018F3F11F00E942C07B2E00D3088
:105A00001B07A9F788E0E5E1F3E0DF01A82E1D926E
:105A1000AA94E9F7EEEFF2E0DF011D928A95E9F72B
:105A20000E940E16811102C00E94211882E090E0AF
:105A30000E94AF3680930B0384E090E00E94BD3655
:105A400090930903809308030E94081FEFE3FCE989
:105A50003197F1F700C000000E94081F80911503E4
:105A600080FF0CC06FEF7FEF90E080E00E94F13686
:105A70000E946A068EE18093950197CF83E090E0C3
:105A80000E94AF360E948E08809101040E94741417
:105A90000E94B30A882309F4B8C183E080932806E2
:105AA00080E2809300040E943A336BE070E08AE564
:105AB00092E00E94FB12882359F18091280665E04C
:105AC00070E081FDA7C185E592E00E94FB1288236A
:105AD000F9F06DE070E083E492E00E94FB1288230D
