:100000000C94E6040C9403050C9403050C946831DD
:100010000C9403050C9403050C9403050C94030540
:100020000C9403050C9403050C94191A0C94D5191F
:100030000C9400290C9403050C9403050C940305FF
:100040000C9403050C9403050C9403050C94030510
:100050000C9403050C94F21A0C9403050C940305FC
:100060000C9403050C9403050C9403050C940305F0
:100070000C9403050C9403050C9403050C940305E0
:100080000C9403050C9403050C9403050C940305D0
:100090000C9403050C9403050C9403050C940305C0
:1000A0000C9403050C9403050C9403050501090247
:1000B000A10185020901A1000509190129081500FE
:1000C0002501950875018102050109300931158165
:1000D000257F95027508810609381581257F9501D0
:1000E00075088106050C0A38021581257F95017572
:1000F000088106C0C005010980A101850319012AF4
:10010000B700150126B700950175108100C0050CD8
:100110000901A101850419012AA002150126A002E6
:10012000950175108100C00660FF0961A101096297
:10013000150026FF00952075088102096315002629
:10014000FF00952075089102C005010906A101056F
:100150000719E029E7150025019508750181029529
:1001600001750881010507190029FF150026FF0008
:100170009506750881000508190129051500250156
:10018000950575019102950175039101C00000006C
:10019000000000000000000000000000000000005F
:1001A000000000000000000000000000000000004F
:1001B000007E0F00D4FFFFFFC700000078000000A2
:1001C00000000000002A2B280000000000000000B2
:1001D000000000000000000029000000002C1E3478
:1001E00020212224342627252E362D3738271E1F7E
:1001F000202122232425263333362E37381F0405A9
:10020000060708090A0B0C0D0E0F10111213141516
:10021000161718191A1B1C1D2F3130232D350405F4
:10022000060708090A0B0C0D0E0F101112131415F6
:10023000161718191A1B1C1D2F3130354C616263BB
:100240006465666768696A6B6C6D6E6F70717273F6
:100250007475767778797A31323334353637383980
:1002600030524542545F2D3D5B5D5C233B27602C43
:100270002E2F00DA0281FFD9F1DB20A4A62EAF00D9
:10028000A0C0D30000A1C8D30000AED580A81F40F5
:100290008D14200000010101010101010101020290
:1002A0000202020202020203030303030303030424
:1002B00004040404040405050505050606060606EF
:1002C000070707070708080808090909090A0A0AA9
:1002D0000B0B0B0C0C0C0D0D0D0E0E0E0F0F0F104B
:1002E00010111111121213131414151516161717D5
:1002F000181819191A1A1B1B1C1D1D1E1E1F202041
:10030000212222232424252626272829292A2B2C8A
:100310002D2D2E2F30313232333435363738393AAD
:100320003B3C3D3E3F404142434445464748494AA5
:100330004C4D4E4F50515354555658595A5B5D5E73
:100340005F616264656668696B6C6D6F707273750E
:1003500077787A7B7D7E8082838587888A8C8E8F72
:1003600091939596989A9C9EA0A2A3A5A7A9ABADA0
:10037000AFB1B3B5B7BABCBEC0C2C4C6C9CBCDCF8E
:10038000D1D4D6D8DBDDDFE2E4E7E9EBEEF0F3F53C
:10039000F8FAFDFFFFAA7F554000AF00AE20200015
:1003A000BABB004B657920B10020C0C100BEBF00C0
:1003B000484F005654003030200020202020B1BC8F
:1003C000BD0042616C6CB100B4B500B2B300C2C3F1
:1003D000004CB6B772B100202000290014001A00AA
:1003E0000800150017002B00040016000700090084
:1003F0000A00E1001D001B000600190005000000B6
:10040000E200E30091212C4190434C0013001200C4
:100410000C0018001C00240233000F000E000D0019
:100420000B00870038003700360010001100000074
:100430004600E600913128422A000F7E3A003B0038
:100440003C003D003E000D7E0100010052002800EE
:100450004C000E7E0100500051004F002A000000A9
:1004600001000100010001000100440043004200BE
:10047000410040003F004500D300D2005200D100AF
:100480004B00010001004F00510050004E000000E1
:1004900001000100010001000100010034022400FC
:1004A000250026002502010033022100220023003E
:1004B000300001002D021E001F002000300200004D
:1004C00027003700010001000100010021022F0078
:1004D00023021E0226021F02340020022E022D00DB
:1004E0003200890238022F022E00870232020000F9
:1004F00001000100010001004C0020780A7E0B7E03
:100500000C7E0100010021782378257827780100EE
:10051000087E22782478267828780100097E000059
:10052000007C007E01000100010030782F782E78D9
:100530002D782C782B7801000100347833783278CC
:100540003178017E0100047E027E037E057E00007C
:10055000007C007E01000100010009025B00030134
:1005600000A0FA09040000010301010009211101A2
:10057000000122440007058103080001090401006D
:1005800002030000000921110100012222000705D9
:100590008203200001070503032000010904020073
:1005A0000103000000092111010001227B00070561
:1005B00084032000011201000200000008575900C6
:1005C0000400010102000114034B00650079006280
:1005D0000061006C006C003400340000001003590E
:1005E000006F0077006B0065006500730000000479
:1005F00003090400000000000000002F00000000BC
:100600000700070000123F123F1200242A7F2A121F
:100610000036091E241B0018262912280000000796
:10062000000000001E214000000040211E000014B8
:10063000083E08140008083E08080000003070005A
:100640000008080808080000003030000020100CE6
:100650000201001E2925231E0000223F2000002247
:100660003129292600122125251A001814123F10BD
:10067000001725252518001E2525251800013109FC
:100680000503001A2525251A00062929291E000020
:1006900000333300000000337300000814142222DA
:1006A0000014141414140022221414080002012946
:1006B0000502003E59555D3E003816111638003FC0
:1006C0002525251A001E21212112003F2121211E4E
:1006D000003F25252521003F09090901001E212190
:1006E000291A003F0404043F0000213F21000010AC
:1006F0002020201F003F040C1221003F202020203A
:10070000003F0204023F003F020C103F001E212167
:10071000211E003F09090906001E2129112E003F54
:10072000090919260012252529120001013F01019E
:10073000001F2020201F000718201807000F300C72
:10074000300F0021120C1221000304380403003181
:100750002925232100007F4141000001020C1020C7
:10076000000041417F0000040201020400404040BB
:10077000404000000103040000102A2A2A3C003FE8
:100780002422221C001C22222224001C2222243F7C
:10079000001C2A2A2A0C0000043E0505000C5252B7
:1007A000543E003F080404380000003D00000020D3
:1007B00040403D00003F080814220000013F200097
:1007C000003E023C023C003E0402023C001C22228D
:1007D000221C007E1422221C001C2222147E003EB9
:1007E0000402020400242A2A2A120000021F220006
:1007F000001E2020103E000618201806000E300CA7
:10080000300E002214081422000E5050483E0022E0
:10081000322A26220008087741410000007F0000AC
:1008200000414177080800180408100C000000007F
:10083000000000000000000000000000000000C0F8
:10084000F0F88C86C6E7FFFFFFFFFFFFFEFCFCF819
:10085000E080000000F0F0F00000C0E0F0707000F8
:100860000000000000000000000000000000000088
:100870000000000000F8F8F8000000000000000090
:100880000000000000000000000000F8F8F8000080
:10089000F8F8F8000000000080E07078686C64C729
:1008A000C7C7C7C7C7E73F1F0F3FFFFFFFFFFFFFD8
:1008B0003F0F000000FFFFFF1E3FFFF3E18000003D
:1008C000F8FCFE3636363EBCB8000E3EFEF080F038
:1008D000FE3E0E0000FFFFFF060606FEFEFC700057
:1008E000E6F6F63636FEFEFC000000FFFFFF0000D5
:1008F000FFFFFF000000003C7F6360E0C0C0C0C09D
:10090000C0C0C0C0FFFFC06030180F030303010068
:1009100000000000000303030000000303030300C2
:10092000010303030303030301007070393F1F0732
:10093000010000000001030303030303030100009F
:10094000010303030303030100000003030300008A
:100950000303030010101000000000550000003ECB
:10096000635D5D637F417B77413E00001C22221C5A
:10097000003E0A003E0A00322A3C0026281E001CC7
:100980002A2C0000003F09360000001E2121000033
:100990000000003F0837001E2121001E2121003FDA
:1009A000090600213F2100222519001E2121003FB8
:1009B0000936003F211E00213F21000F300F003E6D
:1009C000093E003F063F003F2020000011241FBECB
:1009D000CFEFDAE0DEBFCDBF12E0A0E0B1E0EEE0A5
:1009E000F8E602C005900D92A831B107D9F726E0CC
:1009F000A8E1B2E001C01D92AC35B207E1F70E9458
:100A000027290C94B7330C940000482F20914604FA
:100A100090910D0457E0291302C080E0089530E062
:100A2000529FF001539FF00D1124E25FFB4F818133
:100A3000681306C08081481303C085818111EECF01
:100A40002F5F3F4F2770E7CFE8EDF0E080818E7F8A
:100A500080831092E2001092DA001092E100A0EE82
:100A6000B0E08C9181608C9380818F77808319BCFA
:100A7000A7EDB0E08C918E7F8C9380818F7E8083F8
:100A80001092F50308952091E4003091E50095E679
:100A9000A9012091EC00822F817020FF06C0809177
:100AA000E80080FF06C080E008952091E80022FD64
:100AB0001AC080910304882389F0853089F08091E1
:100AC000EB0085FD0FC02091E4003091E500421756
:100AD0005307F9F29150E1F684E0089582E0089519
:100AE00083E0089581E008958091050487FF13C095
:100AF0008091E80082FF06C08091E8008B778093A8
:100B0000E80004C0809103048111F2CF0895809120
:100B100003048823D9F38091E80080FFF8CF809107
:100B2000E8008E77ECCF982F9093E900242F762F52
:100B300050E0891731F07091EC002091ED00509158
:100B4000F00021FD07C09F5F973071F78093E900A7
:100B500081E008953091EB003E7F3093EB003091BF
:100B6000ED003D7F3093ED003091EB00316030932C
:100B7000EB007093EC002093ED005093F000209177
:100B8000EE0027FDE0CF80E00895B0E0A0E0EBECC0
:100B9000F5E00C94A232C8EDD0E088818F7E888386
:100BA000E7EDF0E080818160808384E082BF81E0B6
:100BB0008093F50388818E7F888302EE10E0F80130
:100BC00010821092DA0081EEC82ED12CF60110822C
:100BD00088818F77888388818068888388818F7DEA
:100BE000888319BC1092030410920404109202042A
:100BF0001092010490EEE92EF12CF70180818B7F99
:100C0000808388818160888342E060E080E00E9488
:100C10009305F60180818E7F8083F8018081816059
:100C20008083808188608083F70180818E7F8083CC
:100C3000888180618883CDB7DEB7E8E00C94BE324E
:100C4000FC0180910B0490910C0486179707A0F08B
:100C50006115710529F49091E8009E779093E80062
:100C600090E06115710551F4911108C08091E80080
:100C700082FF34C080E00895BC01F2CF809103046C
:100C80008823C1F18530C1F18091E80083FD30C037
:100C90008091E80082FDEACF8091E80080FFE1CFFB
:100CA0008091F3002091F200382F6115710519F041
:100CB0002830310558F091E02830310509F090E0F6
:100CC0002091E8002E772093E800CBCF819180938C
:100CD000F100615071092F5F3F4FE7CF809103040E
:100CE000882341F0853041F08091E80083FFBECF3A
:100CF00081E0089582E0089583E008958091F803EB
:100D0000089587E797E7909301088093000888E1AA
:100D10009AE00FB6F894A895809360000FBE909368
:100D20006000FFCF2FB7F8946091F1037091F20348
:100D30008091F3039091F4032FBF0895A3E0B0E0F6
:100D4000E4EAF6E00C94A8322091EE033091EF0330
:100D500028173907A1F09093EF038093EE03E091F9
:100D6000EC03F091ED03309751F024E029839B834D
:100D70008A830680F781E02DCE010196099523969E
:100D8000E2E00C94C432A3E0B0E0E9ECF6E00C94AD
:100D9000A8322091EA033091EB0328173907A1F01C
:100DA0009093EB038093EA03E091EC03F091ED0361
:100DB000309751F023E029839B838A830680F78153
:100DC000E02DCE01019609952396E2E00C94C43201
:100DD000FC01680F791F8FEF91E32191822728E0B2
:100DE00030E087FF09C0880F892721503109C9F7F2
:100DF000E617F70791F70895880FF7CFFA018111E9
:100E000001C0FB010995089580914704982F9E7FAA
:100E100061F4817082608093470480914A0487392D
:100E200018F086E980934A0408958831B0F3817000
:100E30008661F1CFAF92BF92DF92EF92FF920F9354
:100E40001F93CF93DF93082F162FE901E42FF0E0D3
:100E5000EC56FD4F611110C0E4915E2F4E2F498377
:100E6000E8835A83DF91CF911F910F91FF90EF900C
:100E7000DF90BF90AF900895E62EF12C4491D42ED0
:100E8000E42FF0E026E0829FC00111242FEF30E034
:100E9000B9010E948432802F90E0880F991F55E598
:100EA000569FD001579FB00D11248A1B9B0B982F82
:100EB000990F890F5901AE18BF08AE9ED001AF9EA1
:100EC000B00DBE9EB00D11245B2F189F8001112420
:100ED000012F11275901A01AB10AAE9E8001AF9EC1
:100EE000100DBE9E100D11245901A81AB108AE9C18
:100EF000C001AF9C900DBE9C900D1124892F9927A5
:100F0000281B390B2E9FC0012F9F900D3E9F900DE7
:100F10001124E92F62307105A1F050F461157105BB
:100F200009F49DCF6130710581F0EB2F512F97CFE0
:100F30006430710569F080F06630710509F48FCF77
:100F4000F4CFE42F4B2F592F8ACFE42F412F87CF97
:100F5000EB2F542F492F83CF4B2F5D2DE12F7FCFC8
:100F600090917401882341F09F5F909374011092D7
:100F700071011092700108959150F7CFE9E6F1E008
:100F8000828591E089278287108617820895809153
:100F90007201811114C080917401811110C080917F
:100FA000730181110CC090910703969596959695C3
:100FB00081E020916A01921380E08170089581E0C0
:100FC000FCCFCF93DF93E2E8F1E083819481A581A8
:100FD000B681E90188839983AA83BB831482138233
:100FE00016821582DF91CF91089580E0089563E025
:100FF00070E084E792E00E94E80690917302891302
:1010000018C0E0917402EC30A4F488E0E802F0012A
:101010001124EF5FFE4F0680F781E02D309749F0F5
:1010200027E932E04091760267E772E0809175022D
:1010300009950895EEE5F2E0878980933101808D6E
:10104000809344010895F894E82FE295EF70F0E062
:1010500031A1282F2F7081E090E001C0880F2A95E0
:10106000EAF7982F9095932391A392A1892B82A3BD
:1010700078940895811520E59207D0F5811540E414
:10108000940708F08FC0803E910520F58D3C9105B6
:1010900008F080C0883A910578F4853A910508F007
:1010A00070C08130910519F1009709F184309105E4
:1010B000F0F490E080E01BC0833C9105D0F7885AA3
:1010C000E82FF0E0EE0FFF1FE555FE4F8081918184
:1010D00094640895811550E2950708F0B8C0811511
:1010E00061E0960708F058C0883E910510F7089512
:1010F000803672E5970720F5803422E5920708F0E4
:101100005BC0803242E5940708F04FC0811552E57C
:10111000950708F483C0282F2695269570E2279F0F
:1011200090011124837041E050E0BA0102C0660FC3
:10113000771F8A95E2F7CB01822B932B9D68089548
:10114000803A62E5960760F4803872E5970708F404
:1011500049C08F7190E0982F8827846F906A089516
:10116000803C22E5920708F453C0803E42E5940794
:1011700008F09FCF982F882788279F71806F906AEB
:101180000895855AE82FF0E0E855FE4F808190E001
:10119000906408959065089520E0392FB901682B77
:1011A000CB0108959F70906A08958F7190E0982FF9
:1011B0008827816F906A0895282F26952695277095
:1011C00070E2279F90011124837041E050E0BA0142
:1011D00002C0660F771F8A95E2F7CB01822B932B13
:1011E0009C680895282F26952695277070E2279FE2
:1011F00090011124837041E050E0BA0102C0660FF3
:10120000771F8A95E2F7CB01822B932B9A6808957A
:101210008F7190E0982F8827906208959C0195E047
:10122000369527959A95E1F72F7030E0322F2227D7
:10123000482F4F7150E084FF05C084E0440F551FD4
:101240008A95E1F7C901842B952B906908959F71C8
:10125000E3CF80959091F60398239093F603089539
:101260008091460490910D04981301C008958F5FFA
:101270008770FACF292F983078F5863068F590E09E
:1012800036E0239F800D911D1124682F677023E0A5
:10129000969587952A95E1F7FC01EE0FFF1FE80F61
:1012A000F91FE35DFD4F50E040E080E0219130E028
:1012B000062E02C0369527950A94E2F7217033274F
:1012C000042E01C0220F0A94EAF7822B4F5F5F4F72
:1012D0004330510559F7089580E00895292F98303B
:1012E00098F5863088F590E036E0239F800D911DBB
:1012F0001124282F277041E001C0440F2A95EAF7F6
:1013000023E0969587952A95E1F7FC01EE0FFF1FE4
:10131000E80FF91FE35DFD4F30E020E070E05191F0
:10132000DF011197CB01022E02C0969587950A9492
:10133000E2F7817081958527842385278C932F5F21
:101340003F4F2330310559F7089580935002089597
:10135000982F92959F7011F0892F94E0282F269551
:10136000269511F09E5F822F869509F09F5F892F49
:101370000895CF93C82F80918F018C1751F00E9450
:1013800092066093900170939101809392019093E3
:101390009301C0938F01CF910895CF93C82F0E94DE
:1013A000A80991E0833009F090E0892F0E94B909E3
:1013B000C093BF03CF9108959091BF0321E030E027
:1013C000F90101C0EE0F8A95EAF7D90102C0AA0F10
:1013D000BB1F6A95E2F7EA2B01C0220F4A95EAF794
:1013E000892F8E23E81305C0292B822F0E94CD0957
:1013F000089520952923F9CF21E030E001C0220F84
:101400008A95EAF720958091BF0382230E94CD0937
:101410000895909107038095892380930703282FCF
:10142000277069F4891759F09091DB0292FF07C089
:101430008695869586950E94FC091092070308956B
:1014400021E030E001C0220F8A95EAF78091BF03C6
:10145000822B0E94CD090895B0E0A0E0E2E3FAE01B
:101460000C94A2328C01EB01E0919401E11101C0D6
:10147000E4E0E150FF0B81E090E06C010E2E02C031
:10148000CC0CDD1C0A94E2F7D801ED90FC90C7016A
:10149000B6010E94E9329B01CB010E2E02C0880FDB
:1014A000991F0A94E2F7E81AF90AD8011196FC92FA
:1014B000EE921296ED90FC90C701B6010E94E932BF
:1014C000CB0102C0880F991FEA95E2F7E81AF90AE2
:1014D000F801F382E2826138FFEF7F07F4F06038B1
:1014E0007105ECF46D8321388FEF3807D4F0203884
:1014F0003105CCF4822F81958C83442319F06195BA
:101500006D832C8380919501882379F0813079F067
:10151000CDB7DEB7E8E00C94BE3261E8E3CF6FE709
:10152000E1CF21E8E7CF2FE7E5CF1D82F1CF1C8285
:10153000EFCFFC01DB012281338191E821388FEF6D
:1015400038072CF0922F203831050CF09FE71296C7
:101550009C9312972081318121388FEF3807A4F0B6
:10156000203831059CF413962C931397442339F0BB
:10157000919512969C931297219513962C93118214
:10158000108213821282089521E8EDCF2FE7EBCF6E
:101590008F708A3010F4805D0895895A0895382F2D
:1015A00020E287FF02C031952DE24AE0832F642FAD
:1015B0000E94DB32905D9093250281110BC0209335
:1015C000240220E22093230220E22093220282E2DE
:1015D00092E00895642F0E94DB32905D9093240284
:1015E000832F64E60E94DB32882361F3805D809361
:1015F0002302EBCF9C01860F971F37FD07C077FDB5
:1016000004C097FF02C08FEF9FE7089577FFFDCFDB
:1016100097FDFBCF80E090E80895E2E7F1E083E0FA
:10162000DF011D928A95E9F7EEE6F1E084E0DF0143
:101630001D928A95E9F7089520916B0130916C0114
:101640002817390731F090936C0180936B010E9449
:101650000D0B089590916901981721F0809369010D
:101660000E940D0B0895CF93909102038091FB028D
:10167000981323C080910303882321F09091FC02EA
:1016800089131BC080910403882321F09091FD02EF
:10169000891313C080910603882321F09091FF02E3
:1016A00089130BC090910503992329F081E02091C3
:1016B000FE02291303C080E001C081E0C82FC17081
:1016C00080FF0FC0E091EC03F091ED03309749F0FB
:1016D00082E0809301030480F581E02D81E093E0B6
:1016E00009959091020386E0E1E0F3E0DF01282F05
:1016F0001D922A95E9F790930203AAEFB2E00190B8
:101700000D928A95E1F781E0C11103C0911101C0EA
:1017100080E08170CF9108952FE2280F283078F46F
:1017200081E090E001C0880F2A95EAF7209102033A
:10173000662331F0822B809302030E94330B0895BD
:1017400080958223F8CFCF93DF93282F81E02A3032
:1017500019F02D3031F480E00E94370CDF91CF91E9
:101760000895809158069091590636E0FC01A2E553
:10177000B6E001900D923A95E1F730EE320F343A2F
:1017800008F458C026E0FC0111922A95E9F7C091AF
:101790005806D091590646E050E0BE0182E596E039
:1017A0000E9449339E0122553440892B41F1C901E1
:1017B00045E0969587954A95E1F741E050E0BA01FA
:1017C00002C0660F771F8A95E2F7CB016091500443
:1017D00070915104862B972BB9016B5F7F4FE5E029
:1017E00076956795EA95E1F702C0440F551F6A9513
:1017F000E2F7842B952B90935104809350042A5F39
:101800003F4F40914F04642F70E0C9010E94843221
:10181000481B463010F4240F311D211572E03707A4
:1018200010F030E020E02E5A3B4F309359062093C1
:10183000580694CF2052330B46E0429FB001439F9D
:10184000700D11246D507A4F46E050E00E944033F5
:101850009ECFCF93DF93EC01FE018491811103C0F1
:10186000DF91CF9108950E94A30B2196F5CFCF93DE
:10187000382FE0915806F0915906E255F440209136
:101880004F04622F70E0CF010E948432281B822F08
:10189000332361F066E00E94CF32C82FC15010F4AC
:1018A000CF91089580E20E94A30BF8CF9F01280FEB
:1018B000311D2115324018F080E0F0E0E0E08E0F9D
:1018C0009F2F911D8E5A9B4F9093590680935806D7
:1018D000E7CF8091F60390914F02892B80931A02F3
:1018E00090914E02992391F0892B80931A0220E067
:1018F0008CE192E0FC013191CF0131112F5FF2E0D8
:1019000082329F07B9F7211110924E0248E050E051
:1019100066E472E08AE192E00E944933892BA9F0E3
:1019200088E0EAE1F2E0A6E4B2E001900D928A9547
:10193000E1F7E091EC03F091ED03309731F0028094
:10194000F381E02D8AE192E009950895ECE1F2E05F
:1019500086E0DF011D928A95E9F790E080E00E9421
:10196000C30690E080E00E949E0610924F020E9403
:10197000690C0895AAE2B0E0E0ECFCE00C94A73218
:1019800085E094E02091F100DC012D93CD01B4E0DD
:101990008D309B07B9F780910604833009F472C03B
:1019A000B8F4813009F449C0823009F4B5C080919F
:1019B000E80083FF8DC280910504909106049A305F
:1019C00008F086C2E92FF0E0E754FC4C0C94FD329D
:1019D0008A3009F490C08B3009F471C0893039F72E
:1019E00080910504813219F78091090490910A04CD
:1019F000009711F00297D9F68091E800877F8093D5
:101A0000E8008091E80082FF38C09091F300809157
:101A1000F200029731F48091F100813011F08630AC
:101A200021F48091F1008093F8038091E8008B7796
:101A30008093E8000E947405BACF80910504813A32
:101A400009F0B5CF8091E800877F8093E80080910E
:101A5000090490910A04892B61F468E089EF93E00E
:101A600070E00E9420068091E8008B778093E80068
:101A70009ECF60E090E080E0F3CF8091030481117D
:101A8000C0CF95CF80910504813A09F090CF809125
:101A9000090490910A04892B09F089CF8091E8000C
:101AA000877F8093E8008091E80080FFFCCF8091E1
:101AB0007C018093F1008091E8008E77B9CF80910E
:101AC0000504813209F073CF8091090490910A04D2
:101AD000892B09F06CCF8091E800877F8093E80024
:101AE0000E9474058091070480937C011092F60394
:101AF0000E94A60C5CCF80910504813209F057CF7B
:101B00008091E800877F8093E8000E9474058091AF
:101B100008048093F7034BCF80910504813A09F0C4
:101B200046CF8091E800877F8093E8008091E800AD
:101B300080FFFCCF8091F703BCCF803899F08238CA
:101B400009F0C6C1809109048F70873008F0C0C1C8
:101B50008093E9008091EB0085FB882780F9109243
:101B6000E90006C080910104909102049111826005
:101B70009091E800977F9093E8008093F100109295
:101B8000F1008091E8008E779FC1882309F48DC110
:101B9000823009F09DC180910704811190C180912C
:101BA00009048F702FEF280F263008F091C1809321
:101BB000E9002091EB0020FF82C1933031F4809145
:101BC000EB0080628093EB007AC19091EB00906112
:101BD0009093EB0021E030E001C0220F8A95EAF7F4
:101BE0002093EA001092EA008091EB008860EACF2F
:101BF00081116EC1109107041F778091E3008078F6
:101C0000812B8093E3008091E800877F8093E80038
:101C10000E9474058091E80080FFFCCF8091E30072
:101C200080688093E30082E0111183E080930304D5
:101C30004FC18058823008F04BC120910704309189
:101C400008042C3DE3E03E07A1F583E08A838AE2A5
:101C500089834FB7F894DE01139620E03EE051E20D
:101C6000E32FF0E050935700E49120FF03C0E2958A
:101C7000EF703F5FEF708E2F90E0EA30C0F0C796B4
:101C80008D939D932F5F243159F74FBF8091E800CA
:101C9000877F8093E8006AE270E0CE0101960E949F
:101CA00020068091E8008B778093E80011C1C096F0
:101CB000E7CF8091090490910A04432F55274330C0
:101CC000510509F44AC078F54130510509F47AC04C
:101CD0008BE590E0EAE5F5E04230510509F0F8C007
:101CE0002091E800277F2093E80020910B04309199
:101CF0000C048217930708F49C0140E0211531057C
:101D000009F065C0411163C08091E80082FDC9CF30
:101D100080910304882329F2853019F28091E8002C
:101D200083FFF2CFBECF4132510509F43CC04232AD
:101D3000510509F0CDC08330910508F0C9C0FC0100
:101D4000EE0FFF1FE45FFD4F0190F081E02D875FF4
:101D50009D4FDC018C9190E01AC033272130310572
:101D6000D1F02115310561F02230310509F0B0C004
:101D7000E7ECF5E0E4918E2F90E0E7ECF5E007C0AA
:101D8000EFEEF5E0E4918E2F90E0EFEEF5E00097B6
:101D900009F49EC0A5CFEDEDF5E0E4918E2F90E023
:101DA000EDEDF5E0F4CF8330910508F091C0880F98
:101DB000991FFC01EE5EFD4F0190F081E02D89E05E
:101DC00090E08ECF82E190E0E5EBF5E089CF809165
:101DD0000304882309F465CF853009F462CF80912C
:101DE000E80083FD5ECF8091E80082FD8DCF809179
:101DF000E80080FF83CF9091F3008091F2002115DD
:101E0000310519F08830910550F041E0089709F04C
:101E100040E08091E8008E778093E8006FCF449196
:101E20004093F1003196215031090196E8CF803876
:101E300009F04EC08091E800877F8093E800809190
:101E400004048093F1009DCE811142C010910704DB
:101E50001230F0F58091E800877F8093E8001093BE
:101E600004040E947405112311F084E005C08091E0
:101E7000E30087FDFACF81E08093030442E061EC48
:101E800081E00E94930542E261EC84E00E949305A8
:101E900042E261EC82E00E94930542E260EC83E062
:101EA0000E9493058091030413C080910704813040
:101EB00079F481E0933009F080E08093020410927D
:101EC000E9008091E800877F8093E8000E94740514
:101ED0008091E80083FF0AC08091E800877F8093AB
:101EE000E8008091EB0080628093EB00AA96E3E02B
:101EF0000C94C332882321F00E9429090E94690CA6
:101F00000895882339F09091F603982B9093F60367
:101F10000E94690C08958823D1F19CEF980F913AA3
:101F200078F4ECE1F2E09191891303C0DF0111979D
:101F30001C9292E0E232F907B1F70E94690C089511
:101F400090E2980F983050F4877091E001C0990F9B
:101F50008A95EAF7892F0E942909EFCF9BE5980F10
:101F6000933028F490E080E00E94C306089598E53D
:101F7000980F9B3128F490E080E00E949E0608951F
:101F800093E3980F933118F460E00E948C0B08954E
:101F90000F931F93CF93C82F882349F18CEF8C0F99
:101FA000813AB8F50CE112E082E292E0F801219169
:101FB000C21709F122E0E232F207C9F7EFEF80E041
:101FC000D8019D918D01C91781F0EF3F19F491114E
:101FD00001C0E82F8F5F863099F7EF3F31F00E2E6A
:101FE000000CFF0BE65EFD4FC2830E94690CCF918F
:101FF0001F910F910895ECE1F2E02191C21303C00B
:10200000DF0111971C928E179F07B9F70E94690C88
:10201000D5CF80E28C0F883068F4C77021E030E0C3
:1020200001C0220FCA95EAF78091F603822B8093B4
:10203000F603DBCFEBE5EC0FE33040F4F0E0E855DE
:10204000FE4F808190E00E94C306D1CFE8E5EC0FFF
:10205000EB3150F4F0E0EE0FFF1FE555FE4F8081AD
:1020600091810E949E06C3CF83E38C0F833108F0D9
:10207000BECF61E08C2F0E948C0BB9CF0F931F93C2
:10208000CF93DF93EC01FC0101900020E9F78F0171
:1020900001501109C017D10728F0DF91CF911F918E
:1020A0000F91089589910E94A30BF4CF0F931F9372
:1020B000CF93DF938B01EA0190910304943061F593
:1020C0008093E9008FEF9091E800815095FD06C064
:1020D00095ED9A95F1F700008111F5CF8091E80018
:1020E00085FF1AC00E944305811111C08091E8004C
:1020F00085FD06C08091E8008E778093E800F2CFDE
:10210000F80181918F018093F100219779F78091F7
:10211000E8008E778093E800DF91CF911F910F91B7
:10212000089543E050E0BC0184E00E9456100895F9
:1021300046E050E0BC0184E00E9456100895CF9321
:10214000DF93EC0148E050E0BC0181E00E945610B2
:1021500088E0FE01A9EFB3E001900D928A95E1F7C6
:10216000DF91CF91089560917E018091470480FFB7
:1021700020C080917D0143E0849FC0011124855FD0
:102180009C4F539A2BB1277F3BB138605FB7F894CF
:10219000FC01649FE00DF11D1124BF016817790750
:1021A000D1F45FBF8FE594E00197F1F700C0000024
:1021B000089580917F019091800123E0829FF0013A
:1021C0001124E55FFC4F8917A0F61182108212825C
:1021D0008F5F3396F8CFFC014191CF01E8E03BB926
:1021E000000000C047FF2BB9440F000000C000C032
:1021F00000C02BB900C0EA9591F7D0CFE7E4F4E036
:1022000080818E7F8083E8E0F3E082818160828339
:102210000E94B3100895B0E0A0E0E1E1F1E10C9478
:10222000A0327C015B016A018091CB0201E010E0E9
:102230008A3010F40AE010E0C1E0D0E0B501C70137
:10224000F6010995811104C021960C171D072CF485
:10225000CDB7DEB7EAE00C94BC32CC9F9001CD9FA5
:10226000300D300D112490E080E045E34A95F1F700
:102270000000019682179307C1F7E0CF80915D02BD
:10228000811119C088EC90E02091E30027FD10C077
:10229000EFE3FCE93197F1F700C000000197A1F7E7
:1022A00082E080935D020E9424051092030403C023
:1022B00081E080935D0281E090915D02913011F0A8
:1022C00080E0089508950E943E11882359F0E0911E
:1022D000EC03F091ED03309729F00190F081E02DAF
:1022E0000995089580E008950F931F930E943E1171
:1022F000882329F00E9492061F910F9108950E9451
:1023000092060091CC021091CD022091CE02309124
:10231000CF02600F711F821F931FEECF54985C9AFB
:10232000879A8F9885E08A95F1F7000089B18798A0
:102330008F9A90EA9A95F1F790E024E09595879529
:102340002A95E1F78095909581700895CF93DF935A
:1023500080918201CEE18111CDE180918301D0E0B5
:10236000882329F080918401DEE18111DDE10E9462
:102370008E1181110FC08D2F80937D01C0937E013E
:10238000CD0F10927F01C0938001C0938101DF9136
:10239000CF91089580E0F0CF80918201F901808390
:1023A0000E94A61108951F93CF93DF93182FEB017E
:1023B0000E94C80F8FE99FE00197F1F700C000006D
:1023C0002197C1F7812F0E948B0FDF91CF911F9131
:1023D00008951092F6030E94A60C2FEF84E39CE070
:1023E000215080409040E1F700C0000088E19AE071
:1023F0000FB6F894A895809360000FBE909360008C
:10240000FFCFCF93DF93C9E6D2E060E0CE010E9418
:1024100083332196C11584E0D807B9F7DF91CF91B6
:1024200008951F93CF93DF93122F8630E0F4683026
:10243000D0F44630C0F4C42FD0E0CC0FDD1F9CE0B8
:10244000699FC00DD11D112490E6899FC00DD11D3B
:102450001124632FCE0189960E948333612FCE0110
:102460008A960E948333DF91CF911F910895B0E047
:10247000A0E0EDE3F2E10C94A2329AEDE92E93E0B4
:10248000F92ED12C8701C12C1CC04C2F83E021E0F8
:1024900030E08D1540F0FE01EE0FFF1FE00FF11F41
:1024A000859194919C016C2D8D2D0E941112219685
:1024B000C630D10551F7C394045F1F4F88E0C8169A
:1024C00019F0D0E0C0E0E1CFD39480E6E80EF11C33
:1024D00086E0D812D7CFCDB7DEB7E8E00C94BE3295
:1024E00088E290E00E9483330895CF93C82F6FEF66
:1024F000811166E285E290E00E9483336FEFC111A3
:1025000066E086E290E00E9483336FEFC11168E0DD
:1025100087E290E00E948333CF91089580E00E948B
:10252000751260E070E0CB010E9470120E943712B9
:102530000E94011281E00E94751208950F931F936B
:10254000CF93DF93863030F5683020F5463010F5B4
:10255000C42FD0E0CC0FDD1F2CE0629FC00DD11D39
:10256000112430E6839FC00DD11D1124CE01899620
:102570000E945F33082F10E0102F0027CE018A96AB
:102580000E945F339801282BC901DF91CF911F91E1
:102590000F91089590E080E0F8CF462F783040F416
:1025A000663030F4863020F4672F0E949E12089522
:1025B00090E080E00895CF92DF92FF920F931F93F7
:1025C000CF93DF936C010091BF0380915002082BE1
:1025D000C5E0D0E010E0FC2EC8010C2E02C095959D
:1025E00087950A94E2F780FD0CC02197A0F7F12CA3
:1025F0008F2DDF91CF911F910F91FF90DF90CF90A2
:102600000895B6018C2F0E94CD120E943A080197BE
:1026100061F3EECFCF93DF93EC010E94DB12BE019A
:102620000E94CD120E943A08DF91CF910895FC01DB
:1026300024812223C1F0808191810E940A13929506
:102640009F70963091F058F4925F9F70923058F4DA
:10265000803F19F030F4883E30F481E008959A5FAD
:10266000F4CF843FD1F380E00895883EB0F3813FFA
:10267000D1F7F3CFA6E0B0E0E0E4F3E10C94A732A9
:1026800049835A8349815A819923A1F0222391F0E9
:10269000CA010E94DB12182F682F89819A810E943B
:1026A0006E0969817A81812F0E94CD122696E3E01E
:1026B0000C94C332CA010E943A09182FF2CF88E263
:1026C00090E00E945F33682F70E090E080E0089512
:1026D00085E290E00E945F33863289F486E290E0E2
:1026E0000E945F33863059F487E290E00E945F33A6
:1026F00091E0883009F090E0892F8170089580E0A2
:10270000FCCFB0E0A0E0E7E8F3E10C94A2326C016A
:102710007B0164E670E088E70E94E22F8C01E6010D
:10272000EC0CFD1C17FD0BC0FE01849164E670E00B
:102730000E944E308C012196CE15DF0599F70E943C
:10274000C43081E00115110509F080E0CDB7DEB796
:10275000E8E00C94BE328091E6039091E903911178
:1027600003C091E089270895882369F062E070E052
:102770008BE993E00E948113811103C08091E603ED
:1027800008951092E6038091E603EBCFCF93C091BA
:10279000E6038091E9038823D1F00E949206605AF3
:1027A00075418F4F9F4F6093E2037093E3038093D3
:1027B000E4039093E503C11108C062E070E089E989
:1027C00093E00E948113811105C0C091E6038C2F14
:1027D000CF91089581E08093E603F7CFB0E0A0E0C9
:1027E000E4EFF3E10C949E3249015A016B017C0144
:1027F0000E9404078401A4016A2D7B2D88E090E0EB
:102800000E94953394014A2D5B2DB601C70100E269
:102810000E942533622F84E290E00E948333CDB77B
:10282000DEB7ECE00C94BA32A3E0B0E0EAE1F4E108
:102830000C94A132F82EE62E042FD22E809147045C
:1028400080FF55C0909148049F1108C090914904A1
:10285000961304C090914A04941729F090910A03AA
:10286000926090930A03E82FE695AE2FB0E0AB504C
:10287000BE4F9C91909308038E7F823009F041C037
:10288000402F073908F046E99E012F5F3F4F6E2D1C
:102890008F2D0E941A078091470480FF11C02B8161
:1028A00039814A8180917F019091800153E0859F19
:1028B000F0011124E55FFC4F8917E8F00E94B31086
:1028C000F0924804E092490400934A04DD2079F034
:1028D0002091470460914B0470914C043F2D4E2D84
:1028E000502F80914D0490914E040E94EE13239638
:1028F000E9E00C94BD324183308322838F5F3396AD
:10290000DBCF9230E9F6E2506E2F6170B62EE6957D
:10291000F0E0EC56FC4F1491C12C60918101C61679
:1029200068F6C19EC001112470E00E9484328F2D90
:10293000B11017C0860F20917F01622F6C0D772791
:10294000771F9B01220F331F260F371F255F3C4F38
:10295000402F073908F046E96E2D0E941A07C394EC
:10296000DCCF861BE8CFE7E4F4E043812FE0421B95
:1029700008F440E021E0628181810E9414140895EE
:10298000E7E4F4E043812FE0420F08F44FEF21E049
:10299000628181810E9414140895E7E4F4E0628169
:1029A00021E1621B08F460E021E0438181810E9403
:1029B00014140895E7E4F4E0628121E1620F08F461
:1029C0006FEF21E0438181810E9414140895E7E4B0
:1029D000F4E0818121E04381628181510E941414DD
:1029E0000895E7E4F4E0818121E0438162818F5E14
:1029F0000E941414089580914B04882319F081508B
:102A000080934B042091470430914804409149043D
:102A100050914A0460914B0470914C0480914D0494
:102A200090914E040E94EE13089580914B048330E0
:102A300018F48F5F80934B04209147043091480431
:102A40004091490450914A0460914B0470914C04A8
:102A500080914D0490914E040E94EE130895909140
:102A6000470490FF28C09170811126C09260909316
:102A7000470480910A03816080930A03662391F0E2
:102A800020914704309148044091490450914A04F0
:102A900060914B0470914C0480914D0490914E04D0
:102AA0000E94EE1320E040914A0460914904809115
:102AB00048040E94141408958C3010F09661D7CF0A
:102AC000880F982BD4CF809147048695815009F4C4
:102AD0008BE061E00E942F15089580914704869550
:102AE0008F5F8C3008F081E061E00E942F1508951F
:102AF0008091470480FF08C0869582588F7789307F
:102B000018F40E946D15089561E082E00E942F156F
:102B10000895E7E4F4E083E0808311828FEF8283FD
:102B200086E983831482A8E0B3E012968C91129711
:102B3000836012968C93758123E030E04FEF56E965
:102B400060E0868197810E94EE1308959091DB02E8
:102B500092FB222720F9281779F080FB92F99093B5
:102B6000DB026091DA027091DB0284E090E00E9467
:102B7000A13382E00E94090A089590E080E00E945B
:102B80006D33863E9E4F19F40E946813089580E0CD
:102B90000895B0E0A0E0EFECF5E10C94A3327901E8
:102BA000C82F880FDD0B41155105A9F0FE0193E0F8
:102BB000EE0FFF1F9A95E1F7EF5FFE4F8181928143
:102BC000825A9D4F208130E04217530708F49A0142
:102BD000A9010E945633CE010E940E32D82E8823BE
:102BE000D1F001151105B9F083E0CC0FDD1F8A95F6
:102BF000E1F7FE01EF5FFE4F438150E00417150738
:102C000008F4A801CF5FDE4F6C817D81625A7D4F51
:102C1000C7010E9456338D2DCDB7DEB7E7E00C9487
:102C2000BF32A5E0B0E0E7E1F6E10C94A0328D837D
:102C3000E62E5A01F22E68018091CB028A3028F0EC
:102C400080E02596EAE00C94BC328D818930C4F393
:102C50001A8219828A836B832C8363E070E0CE0131
:102C600002960E94E8068983E0923101F0924401C5
:102C700010E000E030E020E044E050E0BE016F5F93
:102C80007F4F85E00E94C9158823D1F24E2D50E078
:102C900030E020E0B50186E00E94C915882381F26A
:102CA00030E020E041E050E0BE016B5F7F4F87E005
:102CB0000E94C915882321F20F2D10E0960150E0E3
:102CC00040E070E060E088E00E94C915BACFA4E05F
:102CD000B0E0EDE6F6E10C94A6324091BF025091CF
:102CE000C0026091C1027091C2022FB7F894809126
:102CF000F1039091F203A091F303B091F4032FBF7D
:102D0000841B950BA60BB70B11E084369105A1052A
:102D1000B10518F10E9474116E5F7F4F8F4F9F4F66
:102D200069837A838B839C8310E000E030E020E0AD
:102D300044E050E0BE016F5F7F4F82E00E94C91502
:102D4000182F882351F00E9492066093BF0270935F
:102D5000C0028093C1029093C202812F2496E4E0C6
:102D60000C94C232A5E0B0E0E8EBF6E10C94A4329A
:102D70007B0101E010E09E012B5F3F4F50E040E0FF
:102D800070E060E080E00E94C915182F882309F4E4
:102D900056C04091BB025091BC026091BD0270913F
:102DA000BE022FB7F8948091F1039091F203A091A5
:102DB000F303B091F4032FBF841B950BA60BB70B45
:102DC00084369105A105B10548F464E070E08FE513
:102DD00092E00E94E8069D81891789F104E010E0E5
:102DE0009E012F5F3F4F50E040E070E060E081E0E7
:102DF0000E94C915082F64E070E08FE592E00E9400
:102E0000E80611E09D81981310E0102331F10E9433
:102E100092066093BB027093BC028093BD029093B4
:102E2000BE0289819A81AB81BC818093B702909365
:102E3000B802A093B902B093BA0211E00EC080911B
:102E40005F0290916002A0916102B0916202898359
:102E50009A83AB83BC831111E4CF8091B702909128
:102E6000B802A091B902B091BA02F70180839183B0
:102E7000A283B383812F2596E6E00C94C0328F9213
:102E80009F92AF92BF92EF92FF920F931F93CF93B7
:102E90007B01942FB901A801F70180809180A28065
:102EA000B380EFB7F8940091F1031091F2032091F1
:102EB000F3033091F403EFBF081919092A093B09FC
:102EC000043611052105310518F4C1E0992381F07C
:102ED00010E000E030E020E00E94C915C82F8823F0
:102EE00039F00E949206F701608371838283938395
:102EF0008C2FCF911F910F91FF90EF90BF90AF90CB
:102F00009F908F900895A1E0B0E0E9E8F7E10C947C
:102F1000A6328091E60389832091720290E041E01D
:102F20002817190609F440E001E010E09E012F5F28
:102F30003F4F67EC72E084E00E943F172196E4E087
:102F40000C94C232ABE0B0E0E8EAF7E10C94A632B0
:102F500088E0E7E4F4E0DE01119601900D928A9595
:102F6000E1F78091080390910903A0910A038987F2
:102F70009A87AB8741E08B85811101C040E00BE06F
:102F800010E09E012F5F3F4F63EC72E083E00E94F0
:102F90003F17811110920A032B96E4E00C94C23281
:102FA000A8E0B0E0E6EDF7E10C94A83266EE7EEF23
:102FB00090E080E00E94A13360E082E090E00E9417
:102FC000833360E083E090E00E94833310925002EC
:102FD00060E074E184E090E00E94A13360E086E06C
:102FE00090E00E9483336FEF87E090E00E9483338C
:102FF00040E050E0BA0188E090E00E94953360E044
:1030000084E290E00E94833360E087E190E00E94D8
:10301000833360E08CE090E00E94833360E08DE0D9
:1030200090E00E94833319821A821B821C821D82C7
:103030001E821F82188648E050E068E170E0CE01F1
:1030400001960E94733340E050E0BA0180E290E0C4
:103050000E94953380E00E9475120E948E1240E01B
:1030600050E0BA018FE090E00E94953340E050E0DC
:10307000BA0183E190E00E9495332896E2E00C9437
:10308000C43228E030E043E060E086E30E940A2F8B
:103090000895CF93DF93D82FC62F0E9441188D2F0C
:1030A00080680E94822F8C2F0E94822F8AEB8A9543
:1030B000F1F700C00E94B22F83E492E00197F1F78C
:1030C00000C00000DF91CF910895682F893708F084
:1030D00068E760938D0191E090938E019091820159
:1030E000992339F06150811101C064E08FE00E94A2
:1030F00049180895FB0180810E94651808959091F8
:103100008D01911101C095E0282F880F330BA90183
:10311000490F511DCA011816190614F081E090E0FC
:103120000E9465180895ACE0B0E0E9E9F8E10C947C
:10313000A2324F83588769877A878B879C878091D3
:103140008201882309F446C080912702811107C0BB
:1031500060E080E50E94491881E0809327020E9488
:10316000411880E50E94822F8AEB8A95F1F700C012
:103170000E949A2F0E949A2F0E949A2F7C010E94EF
:103180009A2F20E0E22AF82A0E949A2F8C010E94AE
:103190009A2F20E0022B182B0E94B22F85E08A95EF
:1031A000F1F70000F894B7018091850190918601B4
:1031B0000E94FA0A9093860180938501B80180915C
:1031C0008701909188010E94FA0A90938801809368
:1031D000870178940E943E11882309F469C00E94F7
:1031E0009206009128021091290220912A02309122
:1031F0002B026B017C01C01AD10AE20AF30A970183
:103200008601083011052105310508F451C060938D
:1032100028027093290280932A0290932B02009136
:103220009001109191012091920130919301601BC6
:10323000710B820B930B623371058105910580F44C
:1032400010928601109285011092880110928701D8
:1032500010928A011092890110928C0110928B01B8
:1032600010918F010E948E11482FBE01695F7F4F20
:1032700085E891E0112389F10E942C0A00918F01C9
:10328000109182010E948E1141E04827BE01695FC2
:103290007F4F89E891E0011719F10E942C0A86E01E
:1032A000FE013796AAE9B1E001900D928A95E1F707
:1032B00086E0FE013796DE01119601900D928A9507
:1032C000E1F729813A814B815C816D817E8180E0CB
:1032D00090E02C96E8E00C94BE320E94990ACECF82
:1032E0000E94990ADCCFCF93C82F0E9441188C2FDF
:1032F0000E94822F8FE792E00197F1F700C0000053
:103300000E949A2FC82F95E09A95F1F700000E942D
:10331000B22F85E68A95F1F70000109227028C2FD4
:10332000CF910895CF93DF930E94022F269A0E9497
:1033300041186AE58AE30E9449182FEF80E792E07E
:10334000215080409040E1F700C0000082E00E94E0
:10335000731983E00E94731984E00E94731985E059
:103360000E94731986E00E94731960E080E10E9458
:10337000491880E00E947319D82F81E00E947319C8
:10338000C82F0E94B22FD23419F481E0C13009F065
:1033900080E0817080938201882321F064E08FE0D7
:1033A0000E944918DF91CF9108951F920F920FB696
:1033B0000F9211242F933F934F935F936F937F93BB
:1033C0008F939F93AF93BF93CF93DF93EF93FF932D
:1033D000D091E900DF708091EC00C82FC17080FDB2
:1033E000C0E81092E9008091F000877F8093F000A0
:1033F00078940E94BA0C1092E9008091F0008860E5
:103400008093F000CD2BCF70C093E900FF91EF9136
:10341000DF91CF91BF91AF919F918F917F916F91EC
:103420005F914F913F912F910F900FBE0F901F9082
:1034300018951F920F920FB60F9211242F933F935E
:103440004F935F936F937F938F939F93AF93BF93AC
:10345000EF93FF938091E10082FF09C08091E20029
:1034600082FF05C08091E1008B7F8093E100809115
:10347000DA0080FF24C08091D80080FF20C08091B6
:10348000DA008E7F8093DA008091D90080FF9DC0A2
:1034900080E189BD82E189BD09B400FEFDCF81E0F4
:1034A000809303048091F503811109C00E942405D3
:1034B0000E94C5058091E20084608093E2008091C3
:1034C000E10080FF17C08091E20080FF13C080916F
:1034D000E2008E7F8093E2008091E2008061809321
:1034E000E2008091D80080628093D80019BC85E00A
:1034F000809303048091E10084FF2BC08091E2005F
:1035000084FF27C080E189BD82E189BD89B5982FFC
:10351000917080FFFBCF8091D8008F7D8093D80081
:103520008091E1008F7E8093E1008091E2008F7EA8
:103530008093E2008091E20081608093E2008091BC
:103540000404882309F447C084E080930304809135
:1035500003048091E10083FF27C08091E20083FF94
:1035600023C08091E100877F8093E10082E0809317
:103570000304109204048091E1008E7F8093E100A7
:103580008091E2008E7F8093E2008091E200806172
:103590008093E20042E060E080E00E949305809129
:1035A000F00088608093F000FF91EF91BF91AF91A0
:1035B0009F918F917F916F915F914F913F912F914B
:1035C0000F900FBE0F901F90189519BC1092030416
:1035D0001092F50374CF8091E30087FD93E0909300
:1035E0000304B5CF78941F921FB61F9211248F93B6
:1035F0009F93AF93BF938091F1039091F203A091B9
:10360000F303B091F4030196A11DB11D8093F10362
:103610009093F203A093F303B093F403BF91AF919F
:103620009F918F911F901FBE1F9018959C014FB7BF
:10363000F8948091F1039091F203A091F303B0917B
:10364000F4034FBF821B930B08952FB7F89480911A
:10365000F1039091F203A091F303B091F4032FBF13
:1036600008952F923F925F926F927F928F929F92D6
:10367000AF92BF92CF92DF92EF92FF920F931F9380
:10368000CF93DF938091E903882309F4FEC08091F2
:10369000E7039091E8030E94161BC29708F4D5C077
:1036A0000E94251B9093E8038093E70382E594E052
:1036B00090935906809358060E943E11882309F47E
:1036C00001C183EA93E00E94290C88EB0E94A30BBE
:1036D000809199010E94C80A0E94A30B89EB0E9465
:1036E000A30B809198010E94C80A0E94A30B80EA54
:1036F00093E00E94290C809196019091970154E0EB
:10370000969587955A95E1F70E94C80A0E94A30BE7
:10371000809196010E94C80A0E94A30B8DE993E054
:103720000E94290C80EA91E00E943E1082EC93E016
:103730000E94290C80919C010E94CF0A0E943E1099
:1037400080919D010E94CF0A0E943E1080919F01AE
:103750000E94CF0A0E943E1080919E010E94CF0AD3
:103760000E943E108AEB93E00E94290C80918D010B
:10377000811101C085E00E94CF0A01960E943E108F
:1037800086EB93E00E94290C80919501882331F00B
:10379000813009F48CC08DEA93E002C083EB93E0A2
:1037A0000E94290C80918F01882309F483C08BEC3F
:1037B00093E00E94290C89EA93E00E94290C8091F1
:1037C0009401811101C084E0805D0E94A30B81ED12
:1037D00093E00E94290CC1E0D0E08091BF038823D0
:1037E00009F46BC090E00C2E02C0959587950A9461
:1037F000E2F780FF62C08C2F0E94C80A0E94A30BD0
:103800002196C830D10549F780E20E94A30B8EECC7
:1038100093E00E94290C80916901882309F44FC02C
:103820008BEC93E00E94290C80916B0190916C01CC
:103830006AE070E00E948432862F0E94CF0A0196CF
:103840000E943E1080E30E94A30B8091500490914F
:103850005104892B09F04CC08091E6038823A9F01C
:103860000E9492060091E2031091E3032091E40389
:103870003091E503601B710B820B930B6F3F7F4F01
:103880008F4F9F4710F40E94AB13DF91CF911F9190
:103890000F91FF90EF90DF90CF90BF90AF909F90EF
:1038A0008F907F906F905F903F902F90089580EB66
:1038B00093E076CF88EC93E07CCF80EB9FCF88ECD1
:1038C00093E0B0CFC0E9D0EFDC0F87ED93E00E942A
:1038D000290C11E01D0F8D2F0E94A30BD12F1C135B
:1038E000F8CF80E00E94370CC05FC03C61F7ADCFDD
:1038F0008091E903882309F4AFCF8091E10381111E
:10390000ABCF0E94C6132091500430915104211571
:10391000310509F4A1CF80E041E050E0082F10E02C
:103920001A01082E02C0220C331C0A94E2F7B101DE
:1039300062237323672B11F48F5FF0CF9091E00324
:1039400090FF95C0880F880F880F809377011092A1
:103950007A01895F8093780183E080937B0124E67C
:1039600030E047E050E065E771E088E70E947C3096
:10397000892B09F071CFA80125E0440F551F2A9526
:10398000E1F78091E00380FF84C0E0ECF3E080E2A7
:10399000DF011D928A95E9F7A5E0B2E001E012E0AF
:1039A00089E0C82E82E0D82E97E0592E77247394B0
:1039B0008D91E80129918E01240F352F311D2E5A4A
:1039C0003B4FE82FF0E0E054FC4F90E080E0652CA6
:1039D000681A872C082E01C0880C0A94EAF779012E
:1039E000A12CE701B9907E01B820662D6A19677095
:1039F000962E062E000C770BDB2D01C0DD0F9A945E
:103A0000EAF77195619571096770772701C0B694DF
:103A10006A95EAF7BD2A6081962E9B289082A3942E
:103A200068E0A612DECF019631968830910579F6CE
:103A3000CA16DB0609F0BCCF04E610E020E230E055
:103A400040EC53E060E488E70E949D30892B09F048
:103A500003CFE101C095D09580915004909151041D
:103A6000C823D923D0935104C0935004F5CE829536
:103A7000880F807680937701980136952795369543
:103A8000279520937A01815E8093780120937B01B2
:103A900066CF4E5A5B4F04E610E020E230E0D2CF12
:103AA000AEE1B0E0E6E5FDE10C94A7324091010300
:103AB0005091020360910303709104038091050308
:103AC000909106030E949318209301033093020300
:103AD000409303035093040360930503709306031C
:103AE00086E0E1E0F3E0DE01179601900D928A9501
:103AF000E1F786E0FE013796DE011D9601900D92FA
:103B00008A95E1F786E0FE013D96DE01119601906F
:103B10000D928A95E1F786E0FE013196A1E0B3E0CF
:103B200001900D928A95E1F786E0E1E0F3E0DE0195
:103B3000599601900D928A95E1F786E0FE017996FB
:103B4000DE01179601900D928A95E1F786E0FE015D
:103B50003796DE01119601900D928A95E1F786E085
:103B6000FE013196DE01539601900D928A95E1F7A0
:103B700086E0FE017396DE01179601900D928A95FC
:103B8000E1F786E0FE013796A1E0B3E001900D92E7
:103B90008A95E1F786E0E1E0F3E0DE011796019017
:103BA0000D928A95E1F780916901882309F445C057
:103BB00080916E0190916F010E94161B20916D0102
:103BC00028171906D0F580917001909171010E941B
:103BD000161B893C910588F189859A85892B9B85DF
:103BE000892B9C85892B9885892B91E009F490E09D
:103BF000909372010E94C7071091BF03882351F16F
:103C00000E94251B90936F0180936E0110927101A9
:103C10001092700180916A01111105C0882369F02A
:103C20000E94200A0AC0212F30E0082E02C03595DC
:103C300027950A94E2F720FFF3CF0E94330B8111FE
:103C40002FC0809100031092000381706E96E3E014
:103C50000C94C33280916A01111118C08111EDCF0B
:103C600080916E0190916F010E94161B20916B0153
:103C700030916C012817390700F780916A010E9482
:103C8000FC0910926F0110926E01D7CF212F30E006
:103C900002C0359527958A95E2F720FFCECFE0CF79
:103CA00081E090E0D0CFA3E1B0E0E9E5FEE10C9443
:103CB0009D328E01045F1F4F88E0D8011D928A95C6
:103CC000E9F783EEC82E81E0D82EF12CE12CAA244E
:103CD000A394B12C2DEE822E21E0922EF60181913B
:103CE0006F018F3F09F442C0F894E82FE295EF701E
:103CF000F0E021A18F70A50102C0440F551F8A95E5
:103D0000E2F7CA01922F982B91A392A18095892363
:103D100082A3789400C0E7EEF1E0712C31E02191AC
:103D20002F3F09F46BC0A22FA295AF70B0E0909620
:103D30008C9190E02F7002C0959587952A95E2F7B7
:103D400080FD5CC0832F782A330F8E169F0639F7CB
:103D5000F601319780818F3F11F00E94230850EACD
:103D60005A95F1F7F801EE0DFF1D70828FEFE81AFA
:103D7000F80AA4E0EA16F10409F0B0CF48E050E0F8
:103D8000B80180ED92E00E944933009741F028E0AD
:103D9000F801A0EDB2E001900D922A95E1F70091B3
:103DA000D902892B69F181E0809355020E94251B7D
:103DB0009093540280935302809153029091540245
:103DC0000E94161B059700F110E009511D4F44E0B9
:103DD00050E060ED72E0C8010E944933B12C892B9C
:103DE00051F084E0E0EDF2E0D80101900D928A9567
:103DF000E1F7BB24B3941092550207C080E0A3CF33
:103E0000809155028111D8CFB12C0E943E11A82E6D
:103E1000E091D902882309F489C019821A821B8291
:103E20001C820E2F10E009511D4F8091CB028A3069
:103E300008F046C042EB56E1BE016F5F7F4FC801FC
:103E40000E940B11882309F460C047E656E1BE01C9
:103E50006F5F7F4FC8010E940B11882309F455C082
:103E600042EA57E1BE016F5F7F4FC8010E940B110C
:103E7000882309F44AC043E857E1BE016F5F7F4FD2
:103E8000C8010E940B11882309F43FC01092CB0295
:103E90008091D80290E044E050E0BE016F5F7F4F18
:103EA00089519D4F0E94493321E020935C02892B68
:103EB000F1F4A12C8A2D8B296396EDE00C94B93294
:103EC00080915602909157020E94161B843F9140A8
:103ED00008F0B0CF80915C02882359F384E0FE01A2
:103EE0003196DF011D928A95E9F710925C02E0910C
:103EF000D802F0E0E951FD4F89819A81AB81BC8104
:103F000080839183A283B383D5CF8091CB028F3FEF
:103F100031F08F5F8093CB028A3008F4B9CF0E94D2
:103F2000251B9093570280935602D4CFF0E0E951BD
:103F3000FD4F84E0AFE5B2E001900D928A95E1F784
:103F400064E070E08FE592E00E94E80680935E02F4
:103F5000C0906302D0906402E0906502F090660227
:103F60008091580290915902A0915A02B0915B023F
:103F7000C816D906EA06FB06D1F0C0925802D092C4
:103F80005902E0925A02F0925B020E943E118111A6
:103F90000EC00E949206C61AD70AE80AF90AC09211
:103FA000CC02D092CD02E092CE02F092CF028BE012
:103FB000E7E6F2E0DE01119601900D928A95E1F7B5
:103FC0009981892F86950A81FB80EC801B85109250
:103FD00071021123A1F010FF0AC090FF17C0909149
:103FE000470491609093470460E00E942F1511FFF1
:103FF00006C020E04E2D6F2D802F0E94141480915A
:104000007202882331F00E94C61354CF0E94FE1022
:10401000EECF0E94AB134ECFA8E0B0E0E2E1F0E2B9
:104020000C949A328C01DC0114968C91149788239D
:1040300009F4BDC021E04C9111965C911197129644
:104040006C91129713967C91139715969C910E94F0
:104050003A137C01F801D580DD2009F469C1975736
:104060008038910508F064C1FFE0FE1508F48FC0A8
:104070008FEF93E00E945F33811189C0E9E6AE2E95
:10408000E2E0BE2EE1104DC0FE01339686E0DF0176
:104090001D928A95E9F77AE0472E7501BFEFEB1A7A
:1040A000FB0AC5010E945F3389831A82882309F4C1
:1040B0006EC0813009F07FC06501E2E0CE0ED11CF8
:1040C000C7010E945F338A83882309F460C09FEF91
:1040D000980F9330A0F5F3E0AF0EB11CC6010E941B
:1040E0005F338B83882309F452C01C82DE01119652
:1040F0007D01F7012081222381F2213009F0BAC02D
:1041000091818281913009F058C0F2E0EF0EF11CEC
:1041100065E070E0893311F460E570E00E94D3112E
:1041200053C0A11424E0B20691F1C5010E945F338F
:10413000811101C0EA943FEFA31AB30AA3CF56013D
:104140008430A1F662E0E62EF12C56012FEFA21A80
:10415000B20AC6010E945F33E1E0F0E0EC0FFD1F00
:10416000EE0DFF1D8083882391F08C3741F4E2E04F
:10417000F0E0EC0FFD1FEE0DFF1D1082B7CF3FEFFB
:10418000E31AF30A650187E0E816F104F1F680917D
:104190000703877061F0D80115968C91882339F058
:1041A0008091DB0282FF03C082E00E94090A289608
:1041B000E0E10C94B632570199CF923039F522E004
:1041C000E20EF11C0E94C80FFFEFEF1AFF0A8FE901
:1041D0009FE00197F1F700C00000AFE9BFE0119741
:1041E000F1F700C00000EFE9FFE03197F1F700C000
:1041F00000008FE99FE00197F1F700C00000AFE9F0
:10420000BFE01197F1F700C0000073CF933031F495
:1042100032E0E30EF11C0E948B0FD6CF943021F0D8
:104220008FEFE81AF80AD0CF92E0E90EF11C30E0E7
:1042300020E0B7016F5F7F4FD70111964C918053FB
:10424000990B8A30910558F02150310908F4BCCF00
:10425000EFE9FFE03197F1F700C00000F5CF429E93
:10426000F001439EF00D11249C012E0F3F1F842F5F
:104270007B01DFCFE22FF0E0E354FE4F5490822F1A
:1042800086958695869590E0FC01E355FE4F6490F7
:104290002770712C022E02C0759467940A94E2F77D
:1042A00031E063227724FC01E356FE4F8490912C89
:1042B000022E02C0959487940A94E2F7A1E08A2224
:1042C0009924FC01E357FE4FC490D12C02C0D59431
:1042D000C7942A95E2F7B1E0CB22DD246114710482
:1042E00019F081EE0E94C80F8114910419F086EE36
:1042F0000E94C80FE9E365E070E05E1202C060E56D
:1043000070E0852D0E94D3118114910419F086EE7E
:104310000E948B0F6114710419F081EE0E948B0FC3
:10432000C114D10409F450CF65E070E08CE2F6CE00
:1043300080916901882309F46FC0B0E2EB16B2E501
:10434000FB0608F052C0E114E2E5FE0608F0B7C033
:10435000E114F0E4FF06E0F5E11420E2F20608F0D3
:10436000DAC030EEE316F10450F088EEE816F104FE
:1043700008F44DC0E11491E0F90608F048C0F801D6
:104380008481882309F443C0F7E0EF16FEE7FF06B7
:1043900009F4ACC0C7018D5C9109439708F4A6C02D
:1043A0000E94C707811133C0DD2059F080916A0156
:1043B0002091BF032111B6C0882309F4BCC00E941C
:1043C0000D0B0E94251B90937101809370011FC0FB
:1043D000E114A0E5FA0608F08DC0F8018681807F1F
:1043E00009F099C08F2D99278BC0B0E8EB16B2E584
:1043F000FB0608F03BC0E0E6EE16E2E5FE0608F03C
:104400005EC0F0E4EF16F2E5FF0608F466C08091A6
:10441000740187FD10927401F0929701E092960169
:10442000D8018D919C911197909399018093980157
:10443000F7013497E533F10508F086C0E35CFD4FE2
:10444000E49115968C9120EB811102C02E2FE0EBA8
:10445000A0EAB1E090E080E03D9132136FC08E574A
:104460009E4FDC015E96EC93F70175C020ECE216DE
:1044700022E5F20660F230EEE31632E5F30608F0CC
:104480007ECF20916A01C7018F71992728171906DD
:1044900009F0BDCF8D2D0E94B007D80116968C91E2
:1044A0001697807F803509F0B2CF15968C918823BE
:1044B00061F180917401815080937401A8CF2091A3
:1044C0006A01C7018F7199272817190609F09FCF34
:1044D000D1109DCF0E94BE079ACF20916A01C701DB
:1044E0008F7199272817190609F091CF8D2D0E94F9
:1044F000B0078DCFC70155E0969587955A95E1F79E
:104500008F70992720916A01EDCF0E94BE0780919C
:1045100074018F5FD1CFD80116968C91807F09F4FA
:1045200076CF2DCF30E0082E02C0359527950A941E
:10453000E2F720FF44CF0E94FC0941CF019686306C
:10454000910509F089CF90CFC7019A95F7018115A0
:104550009F4108F4FF27D80115968C91E13DF105A4
:1045600038F0E93DF10570F0E730BEE7FB0709F1EF
:10457000882361F0FE57E031F10540F4ED53FC4C27
:104580000C94FD32682F8E2F0E948C0BD80115964B
:104590008C918111B4C38091F6038272F701E052CD
:1045A000F847E531F10508F0E9C0ED52FC4C0C94F8
:1045B000FD320E94B909EACF80E00E94651810928E
:1045C000940180E00E942A0B8AE892E00E941C0B72
:1045D000DECD40918D012091940120FB47F9269575
:1045E00023708091690180FB22F980916B01909189
:1045F0006C0162E370E00E9484325FEF560F550F4A
:10460000550F550F522B60919501637070E08FE04C
:1046100090E00E949533BBCD81E00E947F18B7CD1A
:104620008FEFFBCF8AE0F9CF86EFF7CF90918F0124
:1046300081E089270E94B909AACD80919401811156
:1046400001C084E08F5F18160CF081E0883008F01C
:1046500087E0809394019BCD80919401811101C0EA
:1046600084E08150F0CF81E08093950190CD10924D
:1046700095018DCD82E0F8CF9091690181E0892785
:104680000E942A0B84CD80916B0190916C01C2969F
:10469000893EE3E09E0708F499CF88EE93E096CF39
:1046A00080916B0190916C01C2978436910508F05E
:1046B0008DCF84E690E08ACF8091470480FF1CC0B4
:1046C000282F2E7F209347043091480440914904BD
:1046D00050914A0460914B0470914C0480914D04B8
:1046E00090914E040E94EE1380910A0381608093A2
:1046F0000A030E94B3104BCD81608093470461E0B0
:1047000086950E942F1543CD43E655E16DE675E190
:104710000E94FE063CCD4DE655E163E675E1F8CF1B
:1047200047EE54E161EF74E1F3CF41EF54E167EEFE
:1047300074E1EECF4DEC54E16AED74E1E9CF4AED5E
:1047400054E16DEC74E1E4CF43EB54E160EC74E1CF
:10475000DFCF40EC54E163EB74E1DACF4BEF54E18F
:1047600065E175E1D5CF45E155E16BEF74E1D0CF5F
:1047700061E081E0C6CF0E94781509CDB7E7EB165E
:10478000BCE7FB0609F460C0E8E7EE16ECE7FE06BE
:1047900009F45EC0F8018581E080F180882309F486
:1047A0009FC0C7010E94DB12D82E682FC7010E944C
:1047B0006E09B7018D2D0E94CD120E943A087C012E
:1047C000882ED8011596AC90159716969C909294C9
:1047D0003FE09322809107038770F1F0CA2CAA2052
:1047E000E1F08F2D807F803451F080E28E0D883093
:1047F00098F0911004C08F2D807E803269F08091F6
:10480000DB0282FF09C082E00E94090A809107034F
:104810008770CC24C3948111C12CBF2CB2942FE09B
:10482000B222BBE0BB1508F4C3C0EB2DF0E0E851A9
:10483000FC4C0C94FD3281E00E94200A43E062E0CF
:1048400081E00E94DC09A3CC81E00E94FC09F6CF44
:1048500082E0FBCFF3E0EF16FCE7FF0671F160F4B6
:10486000E1143CE7F306D1F081E0E8168CE7F806A6
:1048700009F090CF0E94E9119BE5E9169CE7F90643
:1048800069F1ACE5EA16ACE7FA06F1F0BAE5EB1629
:10489000BCE7FB0609F07ECF81E01DC01092F60355
:1048A0000E94A60CEFEFF4E32CE0E150F040204032
:1048B000E1F700C000000E9481066FEF7FEF90E0FB
:1048C00080E00E94A133D6CF8091DB0282FB882753
:1048D00080F991E089270E94A6155CCF80E0FBCF8C
:1048E000C7010E943A09D82E64CFEF2DEF70DE2E5B
:1048F0008F2D807F19F0D29490EFD922AA20B9F0A1
:10490000DD2069F080E28E0D883010F0811009C042
:104910008091F603D82AD092F6030E94690C8E2D5E
:1049200045C080914F02D82AD0924F02F6CF8E2DEB
:104930000E948B0FDD20E1F180E28E0D883010F0B7
:10494000811004C08D2D0E94290906C0D094809149
:104950004F02D822D0924F020E94690C29C0FF2D2D
:10496000FF70DF2E8F2D807F803219F0D29480EF80
:10497000D822882059F021E0821609F481C0AA20AB
:1049800009F48DC0992009F44FC0C9CF8091DB0292
:1049900082FD46C0AA20F1F1DD2039F08091F603B6
:1049A000D82AD092F6030E94690C80E00E94C80FBA
:1049B000AB2DA850BB0B149710F40E946311CC20B0
:1049C000A9F08091070380FD11C0F801158286953A
:1049D000869586950E94200AC8010E940C2080912D
:1049E00007038695869586950E94FC0920E0D801EC
:1049F0004C9111965C91119712966C9112971396A7
:104A00007C91139714968C91149715969C910E9403
:104A10003A13CDCB80E00E948B0FDD2049F292CF7C
:104A2000AA20A1F0911004C08D2D0E94810FC0CF4B
:104A300031E09312BDCF80914E029D2D9823D9165F
:104A400009F4B6CFD82AD0924E02B2CF9110B0CF8F
:104A50008D2D0E947A0F90914E028D2D892329F081
:104A60008D2D8095892380934E0280912C029D2D5F
:104A7000982309F49DCFD094D822D0922C0298CFBD
:104A8000AA2029F085E0891508F492CFCDCF94E0D3
:104A9000991508F48DCF8D2D0E947A0F89CF99201A
:104AA000D1F3A9E38A1223C1BFEFE7EEF3E0B150DF
:104AB000E040F040E1F700C000008E2D0E948B0F17
:104AC00077CF8F2D86958695837061F0813009F0C0
:104AD0006FCFC7019370A11002C080E090E00E94E8
:104AE0009E0666CFC7019370A11002C080E090E0DF
:104AF0000E94C3065DCF6A2D8E2D0E948C0B58CF6D
:104B00008F2D837091F5A11053CF4E2D4295469570
:104B10004770440F440F8E2D8F70042E01C0880FF4
:104B20000A94EAF72E2D2071E4FE07C02FE030E052
:104B300001C0220F4A95EAF720953F2D369536950C
:104B40003370323069F050F440915002313029F026
:104B5000822B84230E94A5092BCF842B822BFACF92
:104B6000282B809150028227F5CF8695AA2011F03C
:104B70008F2D8170882309F41BCF4E2D42954695C9
:104B80004770440F440F8E2D8F70042E01C0880F84
:104B90000A94EAF72E2D2071E4FE07C02FE030E0E2
:104BA00001C0220F4A95EAF720953F2D369536959C
:104BB0003370323069F050F44091BF03313029F046
:104BC000822B84230E94CD09F3CE842B822BFACF33
:104BD000282B8091BF038227F5CF9F2D9F70F92E40
:104BE000AA2029F0892F0E94200A8E2D1ECF8E2DFB
:104BF0000E947A0F8F2D0E94FC09DACE8E2DA2EF33
:104C00008A16B1F1A81570F0B0EF8B16D1F0E1EF74
:104C10008E1691F0AA2009F45EC0911080CE8F2DDF
:104C20008F712AC0F3EF8F1651F124EF8212F2CF69
:104C30008091DB0282FD2FC08F2D8F71AA20D9F2C7
:104C40001BC0AA2081F034E0391508F4B1CE2F2D15
:104C50002F7181E090E001C0880F2A95EAF79091CA
:104C6000BF038927AFCF85E0891508F4A1CEEFCF28
:104C70008F2D8F71A110BFCF0E94200A99CE80E0A6
:104C8000AA2009F49FCF9F2D9F7181E001C0880F5A
:104C90009A95EAF797CFAA2099F09F2D9F71F92E48
:104CA000892F0E94200A8091DB0282FF07C0A8E0C2
:104CB000FA9EC00111248360809307038F2DDCCFFF
:104CC00081E00E94090AB1E0B91508F071CE82E0D6
:104CD0000E94090A6DCE992079F0893341F4EFEFF3
:104CE000F7EE23E0E150F0402040E1F7E4CE8FE121
:104CF0009EE40197F1F7DFCE8F2D8F717CCFB7E760
:104D0000EB16BCE7FB0609F496CDE8E7EE16ECE7F8
:104D1000FE0609F09FCD82E08FCDCF93DF93809187
:104D20004502807F09F04DC080914402882309F438
:104D300048C0E091460450910D04C0914002D091CA
:104D40003F02609141027091420247E05E17C9F153
:104D50008E2F90E0E49FF0011124E25FFB4F24814D
:104D6000222391F1489FF001499FF00D1124DF01AA
:104D7000A25FBB4F11962C9111972C1325C02C913B
:104D80002D1322C015962C91159721111DC0129636
:104D90002D913C91261B370B283C3105A8F48091BE
:104DA00045028F70806180934502EC5EFB4F8081ED
:104DB0008F70806180838FE392E00E940C200E94BC
:104DC0003009DF91CF910895FC013196E770BECF95
:104DD000A4E1B0E0EEEEF6E20C949E328C0186E0A7
:104DE000F801DE011F9601900D928A95E1F7F80116
:104DF0008481E5809FE3A92E92E0B92E9091430231
:104E0000911128C0882319F1EE20F1F0C8010E9409
:104E10001713F82E8823C1F087E0F801D50101901F
:104E20000D928A95E1F780914302813031F48091AF
:104E30003F02909140020E940A130E948D268F2DFE
:104E40006496ECE00C94BA32C8010E940C20FF2456
:104E5000F394F5CFD080C18082809380F09044029B
:104E60002091410230914202A401421B530BFF20CA
:104E700009F4D9C0483C510508F092C08823F9F2E2
:104E80009091400280914502282F207F09F056C062
:104E9000C91214C090913F02D91210C0E11048C04D
:104EA0008F708061809345028FE392E00E940C2016
:104EB00080914502F8018683F12CC1CFE11038C002
:104EC0006C2D8D2D0E9405056C2D8D2D0E940505E4
:104ED000E82E8111F1CFDF86C88A8F8598890E94DC
:104EE0000A13292F22952F70243058F49F702230F6
:104EF00088F0992399F0F8019681907F79F4FE2C3F
:104F00009ECF2A5F2F70223068F0C8010E940C20CB
:104F1000EF2CF5CF992311F0882389F3805E883038
:104F200070F3F3CF803F58F3815F833070F7E7CFA2
:104F300080914502816080934502BECFC91207C0AF
:104F400090913F02D91203C0EE2009F48DC0C80130
:104F50000E941713882309F477CFEE2009F474CF49
:104F600080914502803288F020913F0230914002CA
:104F7000398728879B868A86909143029C871D8665
:104F80008E87CE0108960E940C2087E0F801AFE3DF
:104F9000B2E001900D928A95E1F70E948D2657CFDD
:104FA00090914502292F207F51F48FE392E00E94D7
:104FB0000C2087E0F50111928A95E9F77DCF8823CF
:104FC00009F43DCF809140028C1110C080913F02C6
:104FD000D8120CC0E1100AC09683C8010E940C20B0
:104FE00087E0F50111928A95E9F729CFC8010E945F
:104FF0001713882309F428CFEE2009F425CF8091D8
:105000004502803210F220913F02309140023A83F3
:1050100029839C828B82909143029D831E828F8381
:10502000CE010196B0CF483C5105D0F6882309F453
:105030000ECFFE2CEE2009F407CF809140028C1198
:1050400020C080913F02D8121CC08091450280FD93
:105050000FC0982F907F61F08683903F31F0982F9A
:10506000907F905F8F70892B8683C8010E940C20EF
:1050700087E0F801AFE3B2E001900D928A95E1F785
:10508000DECEC8010E94171381117FCF80914502A7
:10509000816080934502C8010E940C20D0CEABE114
:1050A000B0E0E5E5F8E20C94A6324E8B5F8B688F9A
:1050B000798F8A8F9B8F192F911110924F021D8A21
:1050C00086E0FE017696DE011F9601900D928A958C
:1050D000E1F70A8D002341F021E04F855889698965
:1050E0007A89C8010E943A130B8B1C8B87E0FE0162
:1050F0003F96DE01189601900D928A95E1F7CE0158
:1051000008960E94E82681112AC087E0FE013896A1
:10511000DE01119601900D928A95E1F78C85882326
:10512000F1F020910D0430E0C901019687709927B4
:105130004091460448171906E9F097E0929FD00184
:10514000939FB00D1124A25FBB4FFE0131960190D9
:105150000D929A95E1F780930D040E94300917E0B3
:105160008091460490910D04891314C06B96E4E07D
:105170000C94C2321092F6030E94A60C10920D04F9
:105180001092460487E0EFE3F2E0DF011D928A957A
:10519000E9F7E5CF819FC0011124825F9B4F0E94F8
:1051A000E826882319F38091460490E001968770E1
:1051B000992780934604D4CFA6E0B0E0E2EEF8E26F
:1051C0000C94A6320E94251B8C0180915102909173
:1051D00052028017910781F019821A820E94251BC2
:1051E000682F49815A81792F80E090E00E944F28F2
:1051F00010935202009351022696E4E00C94C232BE
:105200001F921FB61F9211248F939F93AF93BF934A
:105210008091F003811113C08091F1039091F2030A
:10522000A091F303B091F4034196A11DB11D8093A9
:10523000F1039093F203A093F303B093F403BF91AF
:10524000AF919F918F911F901FBE1F901895CDB762
:10525000DEB7A6970FB6F894DEBF0FBECDBF85B7F9
:10526000806885BF85B7806885BF84B7877F84BF26
:105270000FB6F894A89580916000886180936000D3
:10528000109260000FBE80E890E00FB6F894809313
:105290006100909361000FBE85EF97E09093190233
:1052A000809318020E9424050E94C5058091E200A7
:1052B00084608093E2007894809103048823A1F0B5
:1052C0001091E9001F709091EC00892F817090FD82
:1052D00080E8182B1092E9008091E80083FD0E947D
:1052E000BA0C1F701093E90082E084BD93E095BD75
:1052F0009AEF97BD80936E001092CC021092CD026F
:105300001092CE021092CF020E946813811102C047
:105310000E948E120E948E118093000180910001E4
:10532000882309F46BC010927D018EE180937E0189
:105330000E943E1181110E942231809100018091D2
:10534000000194E0811190E09093D90284E0891BE0
:105350008093D80284EF0E94230885EF0E942308DF
:1053600086EF0E94230887EF0E94230807EE11E0D2
:105370005DEEE52E51E0F52ED8018D918D018F3F28
:1053800011F00E942308E016F106B1F788E0E7EE7D
:10539000F2E0DF01882E1D928A94E9F7E0EDF2E059
:1053A000DF011D928A95E9F70E94BD15811102C0A7
:1053B0000E94D01782E090E00E945F338093DD026C
:1053C00084E090E00E946D339093DB028093DA02D8
:1053D0000E94531EEFE3FCE93197F1F700C0000093
:1053E0000E94531E8091E70280FF0CC06FEF7FEF99
:1053F00090E080E00E94A1330E9481068EE18093BC
:105400007D0194CF83E090E00E945F330E94A50964
:105410008091BF030E94A80991E0833009F090E0D9
:10542000892F0E94B9090E943E11882309F4A6C160
:1054300080E08093E00380E880934F040E94DC2F9B
:105440006BE070E089E892E00E9481138823E9F123
:105450008091E00365E070E081FD92C184E892E014
:105460000E948113882389F16DE070E082E792E069
:105470000E948113882349F10E949206605A754167
:105480008F4F9F4F6093E2037093E3038093E40395
:105490009093E503E2E5F4E080E092E0DF019C0117
:1054A0001D9221503040E1F7F0935906E0935806E1
:1054B0008FEF9FEF909351048093500481E080938D
:1054C000E9038093E6031092E1038091DC028111ED
:1054D00076C00E94BD15811104C00E94D0170E94A1
:1054E000891588E090E00E9467334B015C0184E2FB
:1054F00090E00E945F33282F30E040E050E060E011
:1055000070E080E090E000E20E940A332829392907
:105510004A295B2920934704309348044093490467
:1055200050934A0460934B0470934C0480934D0451
:1055300090934E0480910A03836080930A032E7F28
:1055400089F50E94891588E090E00E9467336B011D
:105550007C0184E290E00E945F33282F30E040E03D
:1055600050E060E070E080E090E00E940A33B22FEB
:10557000A32FF42FE52F5B0197018601BC29A12BF6
:10558000FE29E32BB0934704A0934804F093490409
:10559000E0934A0460934B04B0924C0480934D0412
:1055A00090934E040E9404078091470480FF04C03A
:1055B00060E086950E942F1581E08093DC020E94B6
:1055C0003E11811102C00E9425310E9492190E9451
:1055D0003E1181112EC08CEC91E19093500180938B
:1055E0004F0129E130E030934B0120934A0189E3D8
:1055F00090E090934E0180934D0141EE57E050931F
:1056000058014093570130935301209352019093D6
:105610005601809355014AE758E150936001409349
:105620005F0130935B0120935A0190935E01809358
:105630005D010E94BD15882379F18FE090E00E9402
:1056400067338B01F82E862F8F770E946518001F15
:105650000027001F612F6370660F602B6093940119
:1056600012FB882780F90E942A0B812F887F09F47A
:105670008AC0169516951695212F30E02F5F3F4F63
:1056800042E3429FC001439F900D11240E941C0BD6
:105690008F2D8370809395010E94A61181E691E081
:1056A0009093ED038093EC033FEEE32E32E0F32E74
:1056B00046E9C42ED12C8091030400E112E185302B
:1056C00009F4A2C00E94531E0EED12E097EEA92E1F
:1056D00092E0B92E2DEE822E21E0922E9401B5019A
:1056E000F8019191DB018D91BD01D9014D919D0191
:1056F0008423B2E0E63EFB0709F492C0981789F3D1
:105700000E943E11382E612CF50171905F01D40189
:105710008D914D017822F80121908F01271431F1EC
:10572000512C442443942724822D8421B9F0332022
:10573000A9F059A26AA20E94251B9CA38BA3F1E0A9
:10574000FDA391E0842D872109F490E09EA349A157
:105750005AA16BA17CA18DA10E944F285394440CA7
:1057600026E05212E1CFF80131977082639438E05D
:105770006312CACF0E94741111E057C082E059CE63
:105780008FE792E06DCE8AE892E080CF80910304AB
:10579000843041F10E94AB130E94501D1092F0031F
:1057A00048E150E080E40FB6F894A895409360007B
:1057B0000FBE8093600083B7817F846083BF83B70F
:1057C000816083BF7894889583B78E7F83BF0FB63F
:1057D000F894A89580916000886180936000109291
:1057E00060000FBE80910204882371F00E94531E56
:1057F000E7EEF2E0ADEEB1E081919D91892309F0F1
:10580000E9C2EE16FF06C1F780910304853009F462
:10581000BDCF1092F6030E94A60C0E94631152CFD6
:1058200098136ECF0E94DC2810E00E943E110E9467
:10583000501D882339F00E9474110E94311B0E9470
:10584000C61304C00E94311B1111F9CF0E946311CD
:105850009091E602891721F08093E6020E94920659
:1058600080910304843009F4DDC00E943E11882336
:1058700009F421CF0E9492062091F50221116DC0FA
:105880000091F1021091F2022091F3023091F402A2
:105890004B015C01801A910AA20AB30A95018401A6
:1058A000043F11402105310508F457C06093F1020F
:1058B0007093F2028093F3029093F4028091EF02CE
:1058C0009091F00201969093F0028093EF0219827A
:1058D0008E010F5F1F4F21E050E040E060E089E063
:1058E0000E941116811106C08091EF029091F00282
:1058F0000A979CF181E08093F5028093830199815E
:10590000911101C080E0809384018091820110E0B8
:10591000882329F00E948E1111E0811112E08091FC
:105920008401882309F452C20E948E11811150C251
:1059300082E0182B0E945F134B015C01DC01CB015C
:105940008C7FBC01CD01612B86169706A806B9068F
:1059500011F00E9470120E94A61180918401882388
:1059600009F4A9CE0E9492064B015C018091F602D7
:105970009091F702A091F802B091F902A50194016B
:10598000281B390B4A0B5B0BDA01C9010497A105EF
:10599000B10580F119821A821B821C828E010F5F71
:1059A0001F4F24E050E040E060E08AE00E941116C2
:1059B0008823C1F069817A818091890190918A015F
:1059C0000E94FA0A90938A01809389016B817C81FD
:1059D00080918B0190918C010E94FA0A90938C0126
:1059E00080938B018092F6029092F702A092F802C7
:1059F000B092F90280918E01882309F45CCE8091E7
:105A00008D01898310E000E020E0AE014F5F5F4F21
:105A100061E08BE00E941116882309F44CCE1092AD
:105A20008E0149CE83E08093E9008091E80082FFF7
:105A30001CCF8091E80090E085FF05C00E944305DF
:105A4000882399F091E08091E8008B778093E800BB
:105A5000992309F40ACF8981EFEFE80FE33168F564
:105A6000F0E0EC50FC4C0C94FD3280E2A82EB12CFE
:105A70008E010F5F1F4F8091E80085FD0AC0809165
:105A8000E8008B778093E8000E944305882399F310
:105A9000D9CF8091F100D8018D938D01B1E0AB1A7F
:105AA000B10849F7CFCF1A828CE08B831AC08A8164
:105AB000823001F128F4813061F08FEF898311C0C9
:105AC0008330D9F08430C9F71B821C821D821E826C
:105AD00008C00E9492060E9403336B837C838D83EF
