:100000000C94E6040C9403050C9403050C94D53170
:100010000C9403050C9403050C9403050C94030540
:100020000C9403050C9403050C94221A0C94DE190D
:100030000C945A290C9403050C9403050C940305A5
:100040000C9403050C9403050C9403050C94030510
:100050000C9403050C94FB1A0C9403050C940305F3
:100060000C9403050C9403050C9403050C940305F0
:100070000C9403050C9403050C9403050C940305E0
:100080000C9403050C9403050C9403050C940305D0
:100090000C9403050C9403050C9403050C940305C0
:1000A0000C9403050C9403050C9403050501090247
:1000B000A10185020901A1000509190129081500FE
:1000C0002501950875018102050109300931158165
:1000D000257F95027508810609381581257F9501D0
:1000E00075088106050C0A38021581257F95017572
:1000F000088106C0C005010980A101850319012AF4
:10010000B700150126B700950175108100C0050CD8
:100110000901A101850419012AA002150126A002E6
:10012000950175108100C00660FF0961A101096297
:10013000150026FF00952075088102096315002629
:10014000FF00952075089102C005010906A101056F
:100150000719E029E7150025019508750181029529
:1001600001750881010507190029FF150026FF0008
:100170009506750881000508190129051500250156
:10018000950575019102950175039101C00000006C
:10019000000000000000000000000000000000005F
:1001A000000000000000000000000000000000004F
:1001B000007E0F00D4FFFFFFC700000078000000A2
:1001C00000000000002A2B280000000000000000B2
:1001D000000000000000000029000000002C1E3478
:1001E00020212224342627252E362D3738271E1F7E
:1001F000202122232425263333362E37381F0405A9
:10020000060708090A0B0C0D0E0F10111213141516
:10021000161718191A1B1C1D2F3130232D350405F4
:10022000060708090A0B0C0D0E0F101112131415F6
:10023000161718191A1B1C1D2F3130354C616263BB
:100240006465666768696A6B6C6D6E6F70717273F6
:100250007475767778797A31323334353637383980
:1002600030524542545F2D3D5B5D5C233B27602C43
:100270002E2F00DA0281FFD9F1DB20A4A62EAF00D9
:10028000A0C0D30000A1C8D30000AED580A81F40F5
:100290008D14200000010101010101010101020290
:1002A0000202020202020203030303030303030424
:1002B00004040404040405050505050606060606EF
:1002C000070707070708080808090909090A0A0AA9
:1002D0000B0B0B0C0C0C0D0D0D0E0E0E0F0F0F104B
:1002E00010111111121213131414151516161717D5
:1002F000181819191A1A1B1B1C1D1D1E1E1F202041
:10030000212222232424252626272829292A2B2C8A
:100310002D2D2E2F30313232333435363738393AAD
:100320003B3C3D3E3F404142434445464748494AA5
:100330004C4D4E4F50515354555658595A5B5D5E73
:100340005F616264656668696B6C6D6F707273750E
:1003500077787A7B7D7E8082838587888A8C8E8F72
:1003600091939596989A9C9EA0A2A3A5A7A9ABADA0
:10037000AFB1B3B5B7BABCBEC0C2C4C6C9CBCDCF8E
:10038000D1D4D6D8DBDDDFE2E4E7E9EBEEF0F3F53C
:10039000F8FAFDFFFFAA7F554000AF00AE20200015
:1003A000BABB004B657920B10020C0C100BEBF00C0
:1003B000484F005654003030200020202020B1BC8F
:1003C000BD0042616C6CB100B4B500B2B300C2C3F1
:1003D000004CB6B772B100202000290014001A00AA
:1003E0000800150017002B00040016000700090084
:1003F0000A00E1001D001B000600190005000000B6
:10040000E200E30091212C4190434C0013001200C4
:100410000C0018001C00240233000F000E000D0019
:100420000B00870038003700360010001100000074
:100430004600E600913128422A000F7E3A003B0038
:100440003C003D003E000D7E0100010052002800EE
:100450004C000E7E0100500051004F002A000000A9
:1004600001000100010001000100440043004200BE
:10047000410040003F004500D300D2005200D100AF
:100480004B00010001004F00510050004E000000E1
:1004900001000100010001000100010034022400FC
:1004A000250026002502010033022100220023003E
:1004B000300001002D021E001F002000300200004D
:1004C00027003700010001000100010021022F0078
:1004D00023021E0226021F02340020022E022D00DB
:1004E0003200890238022F022E00870232020000F9
:1004F00001000100010001004C0020780A7E0B7E03
:100500000C7E0100010021782378257827780100EE
:10051000087E22782478267828780100097E000059
:10052000007C007E01000100010030782F782E78D9
:100530002D782C782B7801000100347833783278CC
:100540003178017E0100047E027E037E057E00007C
:10055000007C007E01000100010009025B00030134
:1005600000A0FA09040000010301010009211101A2
:10057000000122440007058103080001090401006D
:1005800002030000000921110100012222000705D9
:100590008203200001070503032000010904020073
:1005A0000103000000092111010001227B00070561
:1005B00084032000011201000200000008575900C6
:1005C0000400010102000114034B00650079006280
:1005D0000061006C006C003400340000001003590E
:1005E000006F0077006B0065006500730000000479
:1005F00003090400000000000000002F00000000BC
:100600000700070000123F123F1200242A7F2A121F
:100610000036091E241B0018262912280000000796
:10062000000000001E214000000040211E000014B8
:10063000083E08140008083E08080000003070005A
:100640000008080808080000003030000020100CE6
:100650000201001E2925231E0000223F2000002247
:100660003129292600122125251A001814123F10BD
:10067000001725252518001E2525251800013109FC
:100680000503001A2525251A00062929291E000020
:1006900000333300000000337300000814142222DA
:1006A0000014141414140022221414080002012946
:1006B0000502003E59555D3E003816111638003FC0
:1006C0002525251A001E21212112003F2121211E4E
:1006D000003F25252521003F09090901001E212190
:1006E000291A003F0404043F0000213F21000010AC
:1006F0002020201F003F040C1221003F202020203A
:10070000003F0204023F003F020C103F001E212167
:10071000211E003F09090906001E2129112E003F54
:10072000090919260012252529120001013F01019E
:10073000001F2020201F000718201807000F300C72
:10074000300F0021120C1221000304380403003181
:100750002925232100007F4141000001020C1020C7
:10076000000041417F0000040201020400404040BB
:10077000404000000103040000102A2A2A3C003FE8
:100780002422221C001C22222224001C2222243F7C
:10079000001C2A2A2A0C0000043E0505000C5252B7
:1007A000543E003F080404380000003D00000020D3
:1007B00040403D00003F080814220000013F200097
:1007C000003E023C023C003E0402023C001C22228D
:1007D000221C007E1422221C001C2222147E003EB9
:1007E0000402020400242A2A2A120000021F220006
:1007F000001E2020103E000618201806000E300CA7
:10080000300E002214081422000E5050483E0022E0
:10081000322A26220008087741410000007F0000AC
:1008200000414177080800180408100C000000007F
:10083000000000000000000000000000000000C0F8
:10084000F0F88C86C6E7FFFFFFFFFFFFFEFCFCF819
:10085000E080000000F0F0F00000C0E0F0707000F8
:100860000000000000000000000000000000000088
:100870000000000000F8F8F8000000000000000090
:100880000000000000000000000000F8F8F8000080
:10089000F8F8F8000000000080E07078686C64C729
:1008A000C7C7C7C7C7E73F1F0F3FFFFFFFFFFFFFD8
:1008B0003F0F000000FFFFFF1E3FFFF3E18000003D
:1008C000F8FCFE3636363EBCB8000E3EFEF080F038
:1008D000FE3E0E0000FFFFFF060606FEFEFC700057
:1008E000E6F6F63636FEFEFC000000FFFFFF0000D5
:1008F000FFFFFF000000003C7F6360E0C0C0C0C09D
:10090000C0C0C0C0FFFFC06030180F030303010068
:1009100000000000000303030000000303030300C2
:10092000010303030303030301007070393F1F0732
:10093000010000000001030303030303030100009F
:10094000010303030303030100000003030300008A
:100950000303030010101000000000550000003ECB
:10096000635D5D637F417B77413E00001C22221C5A
:10097000003E0A003E0A00322A3C0026281E001CC7
:100980002A2C0000003F09360000001E2121000033
:100990000000003F0837001E2121001E2121003FDA
:1009A000090600213F2100222519001E2121003FB8
:1009B0000936003F211E00213F21000F300F003E6D
:1009C000093E003F063F003F2020000011241FBECB
:1009D000CFEFDAE0DEBFCDBF12E0A0E0B1E0E8EE9D
:1009E000F8E602C005900D92A035B107D9F726E0D0
:1009F000A0E5B2E001C01D92A739B207E1F70E945D
:100A000081290C9424340C940000482F20918104F7
:100A10009091480457E0291302C080E0089530E027
:100A2000529FF001539FF00D1124E75BFB4F818132
:100A3000681306C08081481303C085818111EECF01
:100A40002F5F3F4F2770E7CFE8EDF0E080818E7F8A
:100A500080831092E2001092DA001092E100A0EE82
:100A6000B0E08C9181608C9380818F77808319BCFA
:100A7000A7EDB0E08C918E7F8C9380818F7E8083F8
:100A80001092300408952091E4003091E50095E63D
:100A9000A9012091EC00822F817020FF06C0809177
:100AA000E80080FF06C080E008952091E80022FD64
:100AB0001AC080913E04882389F0853089F08091A6
:100AC000EB0085FD0FC02091E4003091E500421756
:100AD0005307F9F29150E1F684E0089582E0089519
:100AE00083E0089581E008958091400487FF13C05A
:100AF0008091E80082FF06C08091E8008B778093A8
:100B0000E80004C080913E048111F2CF08958091E5
:100B10003E048823D9F38091E80080FFF8CF8091CC
:100B2000E8008E77ECCF982F9093E900242F762F52
:100B300050E0891731F07091EC002091ED00509158
:100B4000F00021FD07C09F5F973071F78093E900A7
:100B500081E008953091EB003E7F3093EB003091BF
:100B6000ED003D7F3093ED003091EB00316030932C
:100B7000EB007093EC002093ED005093F000209177
:100B8000EE0027FDE0CF80E00895B0E0A0E0EBECC0
:100B9000F5E00C940F33C8EDD0E088818F7E888318
:100BA000E7EDF0E080818160808384E082BF81E0B6
:100BB0008093300488818E7F888302EE10E0F801F4
:100BC00010821092DA0081EEC82ED12CF60110822C
:100BD00088818F77888388818068888388818F7DEA
:100BE000888319BC10923E0410923F0410923D0479
:100BF00010923C0490EEE92EF12CF70180818B7F5E
:100C0000808388818160888342E060E080E00E9488
:100C10009305F60180818E7F8083F8018081816059
:100C20008083808188608083F70180818E7F8083CC
:100C3000888180618883CDB7DEB7E8E00C942B33E0
:100C4000FC01809146049091470486179707A0F015
:100C50006115710529F49091E8009E779093E80062
:100C600090E06115710551F4911108C08091E80080
:100C700082FF34C080E00895BC01F2CF80913E0431
:100C80008823C1F18530C1F18091E80083FD30C037
:100C90008091E80082FDEACF8091E80080FFE1CFFB
:100CA0008091F3002091F200382F6115710519F041
:100CB0002830310558F091E02830310509F090E0F6
:100CC0002091E8002E772093E800CBCF819180938C
:100CD000F100615071092F5F3F4FE7CF80913E04D3
:100CE000882341F0853041F08091E80083FFBECF3A
:100CF00081E0089582E0089583E0089580913304AF
:100D0000089587E797E7909301088093000888E1AA
:100D10009AE00FB6F894A895809360000FBE909368
:100D20006000FFCF2FB7F89460912C0470912D04D0
:100D300080912E0490912F042FBF0895A3E0B0E07E
:100D4000E4EAF6E00C9415332091290430912A044A
:100D500028173907A1F090932A0480932904E09181
:100D60002704F0912804309751F024E029839B83D5
:100D70008A830680F781E02DCE010196099523969E
:100D8000E2E00C943133A3E0B0E0E9ECF6E00C943F
:100D90001533209125043091260428173907A1F036
:100DA0009093260480932504E0912704F091280471
:100DB000309751F023E029839B838A830680F78153
:100DC000E02DCE01019609952396E2E00C94313393
:100DD000FC01680F791F8FEF91E32191822728E0B2
:100DE00030E087FF09C0880F892721503109C9F7F2
:100DF000E617F70791F70895880FF7CFFA018111E9
:100E000001C0FB010995089580918204982F9E7F6F
:100E100061F48170826080938204809185048739B7
:100E200018F086E98093850408958831B0F38170C5
:100E30008661F1CFAF92BF92DF92EF92FF920F9354
:100E40001F93CF93DF93082F162FE901E42FF0E0D3
:100E5000EC56FD4F611110C0E4915E2F4E2F498377
:100E6000E8835A83DF91CF911F910F91FF90EF900C
:100E7000DF90BF90AF900895E62EF12C4491D42ED0
:100E8000E42FF0E026E0829FC00111242FEF30E034
:100E9000B9010E94F132802F90E0880F991F55E52B
:100EA000569FD001579FB00D11248A1B9B0B982F82
:100EB000990F890F5901AE18BF08AE9ED001AF9EA1
:100EC000B00DBE9EB00D11245B2F189F8001112420
:100ED000012F11275901A01AB10AAE9E8001AF9EC1
:100EE000100DBE9E100D11245901A81AB108AE9C18
:100EF000C001AF9C900DBE9C900D1124892F9927A5
:100F0000281B390B2E9FC0012F9F900D3E9F900DE7
:100F10001124E92F62307105A1F050F461157105BB
:100F200009F49DCF6130710581F0EB2F512F97CFE0
:100F30006430710569F080F06630710509F48FCF77
:100F4000F4CFE42F4B2F592F8ACFE42F412F87CF97
:100F5000EB2F542F492F83CF4B2F5D2DE12F7FCFC8
:100F600090917C01882341F09F5F90937C011092C7
:100F700079011092780108959150F7CFE1E7F1E0FF
:100F8000828591E089278287108617820895809153
:100F90007A01811114C080917C01811110C080916F
:100FA0007B0181110CC09091420396959695969580
:100FB00081E020917201921380E08170089581E0B8
:100FC000FCCFCF93DF93EAE8F1E083819481A581A0
:100FD000B681E90188839983AA83BB831482138233
:100FE00016821582DF91CF91089580E0089563E025
:100FF00070E08CEA92E00E94E8069091AB028913BF
:1010000018C0E091AC02ED30A4F488E0E802F001F1
:101010001124EF5FFE4F0680F781E02D309749F0F5
:101020002FEC32E04091AE026FEA72E08091AD02A7
:1010300009950895E6E9F2E0878980933101808D72
:10104000809344010895F894E82FE295EF70F0E062
:1010500031A1282F2F7081E090E001C0880F2A95E0
:10106000EAF7982F9095932391A392A1892B82A3BD
:1010700078940895811520E59207D0F5811540E414
:10108000940708F08FC0803E910520F58D3C9105B6
:1010900008F080C0883A910578F4853A910508F007
:1010A00070C08130910519F1009709F184309105E4
:1010B000F0F490E080E01BC0833C9105D0F7885AA3
:1010C000E82FF0E0EE0FFF1FED51FE4F8081918180
:1010D00094640895811550E2950708F0B8C0811511
:1010E00061E0960708F058C0883E910510F7089512
:1010F000803672E5970720F5803422E5920708F0E4
:101100005BC0803242E5940708F04FC0811552E57C
:10111000950708F483C0282F2695269570E2279F0F
:1011200090011124837041E050E0BA0102C0660FC3
:10113000771F8A95E2F7CB01822B932B9D68089548
:10114000803A62E5960760F4803872E5970708F404
:1011500049C08F7190E0982F8827846F906A089516
:10116000803C22E5920708F453C0803E42E5940794
:1011700008F09FCF982F882788279F71806F906AEB
:101180000895855AE82FF0E0E052FE4F808190E00C
:10119000906408959065089520E0392FB901682B77
:1011A000CB0108959F70906A08958F7190E0982FF9
:1011B0008827816F906A0895282F26952695277095
:1011C00070E2279F90011124837041E050E0BA0142
:1011D00002C0660F771F8A95E2F7CB01822B932B13
:1011E0009C680895282F26952695277070E2279FE2
:1011F00090011124837041E050E0BA0102C0660FF3
:10120000771F8A95E2F7CB01822B932B9A6808957A
:101210008F7190E0982F8827906208959C0195E047
:10122000369527959A95E1F72F7030E0322F2227D7
:10123000482F4F7150E084FF05C084E0440F551FD4
:101240008A95E1F7C901842B952B906908959F71C8
:10125000E3CF8095909131049823909331040895C1
:101260008091810490914804981301C008958F5F84
:101270008770FACF292F983078F5863068F590E09E
:1012800036E0239F800D911D1124682F677023E0A5
:10129000969587952A95E1F7FC01EE0FFF1FE80F61
:1012A000F91FEB59FD4F50E040E080E0219130E024
:1012B000062E02C0369527950A94E2F7217033274F
:1012C000042E01C0220F0A94EAF7822B4F5F5F4F72
:1012D0004330510559F7089580E00895292F98303B
:1012E00098F5863088F590E036E0239F800D911DBB
:1012F0001124282F277041E001C0440F2A95EAF7F6
:1013000023E0969587952A95E1F7FC01EE0FFF1FE4
:10131000E80FF91FEB59FD4F30E020E070E05191EC
:10132000DF011197CB01022E02C0969587950A9492
:10133000E2F7817081958527842385278C932F5F21
:101340003F4F2330310559F708958093FA030895EC
:101350009091FA0321E030E0F90101C0EE0F8A9587
:10136000EAF7D90102C0AA0FBB1F6A95E2F7EA2B80
:1013700001C0220F4A95EAF7892F8E23E81305C092
:10138000292B822F0E94A509089520952923F9CFA2
:1013900021E030E001C0220F8A95EAF72095809184
:1013A000FA0382230E94A509089590914203809533
:1013B000892380934203282F277069F4891759F0F5
:1013C0009091130392FF07C08695869586950E949B
:1013D000C80910924203089521E030E001C0220FB5
:1013E0008A95EAF78091FA03822B0E94A509089555
:1013F000809388020895CF93C82F809197018C170E
:1014000051F00E9492066093980170939901809325
:101410009A0190939B01C0939701CF910895B0E0FA
:10142000A0E0E5E1FAE00C940F338C01EB01E091D0
:101430009C01E11101C0E4E0E150FF0B81E090E08C
:101440006C010E2E02C0CC0CDD1C0A94E2F7D80110
:10145000ED90FC90C701B6010E9456339B01CB0171
:101460000E2E02C0880F991F0A94E2F7E81AF90AB3
:10147000D8011196FC92EE921296ED90FC90C70165
:10148000B6010E945633CB0102C0880F991FEA951E
:10149000E2F7E81AF90AF801F382E2826138FFEF15
:1014A0007F07F4F060387105ECF46D8321388FEF1D
:1014B0003807D4F020383105CCF4822F81958C8305
:1014C000442319F061956D832C8380919D018823BD
:1014D00079F0813079F0CDB7DEB7E8E00C942B33AA
:1014E00061E8E3CF6FE7E1CF21E8E7CF2FE7E5CF72
:1014F0001D82F1CF1C82EFCFFC01DB012281338101
:1015000091E821388FEF38072CF0922F20383105E1
:101510000CF09FE712969C9312972081318121381D
:101520008FEF3807A4F0203831059CF413962C93E4
:101530001397442339F0919512969C931297219515
:1015400013962C931182108213821282089521E83F
:10155000EDCF2FE7EBCF8F708A3010F4805D0895C8
:10156000895A0895382F20E287FF02C031952DE275
:101570004AE0832F642F0E944833905D90935D0270
:1015800081110BC020935C0220E220935B0220E2D9
:1015900020935A028AE592E00895642F0E9448330E
:1015A000905D90935C02832F64E60E944833882309
:1015B00061F3805D80935B02EBCF9C01860F971FE8
:1015C00037FD07C077FD04C097FF02C08FEF9FE78C
:1015D000089577FFFDCF97FDFBCF80E090E8089559
:1015E000EAE7F1E083E0DF011D928A95E9F7E6E79B
:1015F000F1E084E0DF011D928A95E9F708952091DA
:101600007301309174012817390731F090937401F8
:10161000809373010E94F00A0895909171019817C8
:1016200021F0809371010E94F00A0895CF93909168
:101630003D0380913603981323C080913E03882395
:1016400021F09091370389131BC080913F038823B9
:1016500021F090913803891313C0809141038823AE
:1016600021F090913A0389130BC090914003992384
:1016700029F081E020913903291303C080E001C0E3
:1016800081E0C82FC17080FF0FC0E0912704F09166
:101690002804309749F082E080933C030480F58170
:1016A000E02D8CE393E0099590913D0386E0ECE317
:1016B000F3E0DF01282F1D922A95E9F790933D036F
:1016C000A5E3B3E001900D928A95E1F781E0C111A5
:1016D00003C0911101C080E08170CF9108952FE285
:1016E000280F283078F481E090E001C0880F2A9517
:1016F000EAF720913D03662331F0822B80933D036E
:101700000E94160B089580958223F8CFCF93DF9324
:10171000282F81E02A3019F02D3031F480E00E942A
:101720001A0CDF91CF9108958091930690919406C1
:1017300036E0FC01ADE8B6E001900D923A95E1F794
:1017400030EE320F343A08F458C026E0FC01119212
:101750002A95E9F7C0919306D091940646E050E0AF
:10176000BE018DE896E00E94B6339E012D583440AC
:10177000892B41F1C90145E0969587954A95E1F796
:1017800041E050E0BA0102C0660F771F8A95E2F788
:10179000CB0160918B0470918C04862B972BB9013F
:1017A0006B5F7F4FE5E076956795EA95E1F702C0BC
:1017B000440F551F6A95E2F7842B952B90938C0468
:1017C00080938B042A5F3F4F40918A04642F70E01E
:1017D000C9010E94F132481B463010F4240F311D1C
:1017E000211572E0370710F030E020E023573B4F1F
:1017F000309394062093930694CF2052330B46E007
:10180000429FB001439F700D11246D507A4F46E006
:1018100050E00E94AD339ECFCF93DF93EC01FE01E9
:101820008491811103C0DF91CF9108950E94860BAE
:101830002196F5CFCF93382FE0919306F09194063F
:10184000ED58F44020918A04622F70E0CF010E948D
:10185000F132281B822F332361F066E00E943C3373
:10186000C82FC15010F4CF91089580E20E94860BDA
:10187000F8CF9F01280F311D2115324018F080E06C
:10188000F0E0E0E08E0F9F2F911D83579B4F9093C8
:10189000940680939306E7CF80913104909187025C
:1018A000892B8093520290918602992391F0892B83
:1018B0008093520220E084E592E0FC013191CF0157
:1018C00031112F5FF2E08A359F07B9F7211110928D
:1018D000860248E050E06EE772E082E592E00E9406
:1018E000B633892BA9F088E0E2E5F2E0AEE7B2E09A
:1018F00001900D928A95E1F7E0912704F091280478
:10190000309731F00280F381E02D82E592E0099575
:101910000895E4E5F2E086E0DF011D928A95E9F79B
:1019200090E080E00E94C30690E080E00E949E0666
:10193000109287020E944C0C0895AAE2B0E0E3EAFC
:10194000FCE00C94143380E494E02091F100DC017D
:101950002D93CD01B4E088349B07B9F78091410401
:10196000833009F472C0B8F4813009F449C0823080
:1019700009F4B5C08091E80083FF8DC280914004D6
:10198000909141049A3008F086C2E92FF0E0EA5DB8
:10199000FB4C0C946A338A3009F490C08B3009F404
:1019A00071C0893039F780914004813219F78091F4
:1019B000440490914504009711F00297D9F6809164
:1019C000E800877F8093E8008091E80082FF38C0BC
:1019D0009091F3008091F200029731F48091F10030
:1019E000813011F0863021F48091F100809333042E
:1019F0008091E8008B778093E8000E947405BACF4D
:101A000080914004813A09F0B5CF8091E800877F4A
:101A10008093E8008091440490914504892B61F4FF
:101A200068E084E394E070E00E9420068091E80082
:101A30008B778093E8009ECF60E090E080E0F3CF6A
:101A400080913E048111C0CF95CF80914004813AAE
:101A500009F090CF8091440490914504892B09F0BE
:101A600089CF8091E800877F8093E8008091E8002B
:101A700080FFFCCF809184018093F1008091E80089
:101A80008E77B9CF80914004813209F073CF809175
:101A9000440490914504892B09F06CCF8091E800B3
:101AA000877F8093E8000E947405809142048093B0
:101AB0008401109231040E94890C5CCF8091400413
:101AC000813209F057CF8091E800877F8093E8004A
:101AD0000E94740580914304809332044BCF80911F
:101AE0004004813A09F046CF8091E800877F8093D7
:101AF000E8008091E80080FFFCCF80913204BCCFE9
:101B0000803899F0823809F0C6C1809144048F7002
:101B1000873008F0C0C18093E9008091EB0085FB1D
:101B2000882780F91092E90006C080913C049091CA
:101B30003D04911182609091E800977F9093E800B6
:101B40008093F1001092F1008091E8008E779FC1A0
:101B5000882309F48DC1823009F09DC1809142042F
:101B6000811190C1809144048F702FEF280F26308F
:101B700008F091C18093E9002091EB0020FF82C121
:101B8000933031F48091EB0080628093EB007AC156
:101B90009091EB0090619093EB0021E030E001C068
:101BA000220F8A95EAF72093EA001092EA008091CA
:101BB000EB008860EACF81116EC1109142041F775B
:101BC0008091E3008078812B8093E3008091E8008E
:101BD000877F8093E8000E9474058091E80080FF71
:101BE000FCCF8091E30080688093E30082E01111D4
:101BF00083E080933E044FC18058823008F04BC18F
:101C000020914204309143042C3DE3E03E07A1F5CE
:101C100083E08A838AE289834FB7F894DE011396C2
:101C200020E03EE051E2E32FF0E050935700E491D2
:101C300020FF03C0E295EF703F5FEF708E2F90E0C2
:101C4000EA30C0F0C7968D939D932F5F243159F7EA
:101C50004FBF8091E800877F8093E8006AE270E0E0
:101C6000CE0101960E9420068091E8008B77809338
:101C7000E80011C1C096E7CF8091440490914504DB
:101C8000432F55274330510509F44AC078F54130B8
:101C9000510509F47AC08BE590E0EAE5F5E04230C1
:101CA000510509F0F8C02091E800277F2093E80053
:101CB00020914604309147048217930708F49C0151
:101CC00040E02115310509F065C0411163C08091E4
:101CD000E80082FDC9CF80913E04882329F2853037
:101CE00019F28091E80083FFF2CFBECF4132510557
:101CF00009F43CC04232510509F0CDC08330910552
:101D000008F0C9C0FC01EE0FFF1FEC5BFD4F019016
:101D1000F081E02D8F5B9D4FDC018C9190E01AC02B
:101D2000332721303105D1F02115310561F0223002
:101D3000310509F0B0C0E7ECF5E0E4918E2F90E0BA
:101D4000E7ECF5E007C0EFEEF5E0E4918E2F90E0D0
:101D5000EFEEF5E0009709F49EC0A5CFEDEDF5E0BC
:101D6000E4918E2F90E0EDEDF5E0F4CF8330910516
:101D700008F091C0880F991FFC01E65BFD4F0190B0
:101D8000F081E02D89E090E08ECF82E190E0E5EBFC
:101D9000F5E089CF80913E04882309F465CF853032
:101DA00009F462CF8091E80083FD5ECF8091E80066
:101DB00082FD8DCF8091E80080FF83CF9091F3006A
:101DC0008091F2002115310519F08830910550F00D
:101DD00041E0089709F040E08091E8008E77809319
:101DE000E8006FCF44914093F100319621503109C2
:101DF0000196E8CF803809F04EC08091E800877FD7
:101E00008093E80080913F048093F1009DCE811182
:101E100042C0109142041230F0F58091E800877FB3
:101E20008093E80010933F040E947405112311F081
:101E300084E005C08091E30087FDFACF81E08093C4
:101E40003E0442E061EC81E00E94930542E261ECD5
:101E500084E00E94930542E261EC82E00E949305D7
:101E600042E260EC83E00E94930580913E0413C03F
:101E700080914204813079F481E0933009F080E070
:101E800080933D041092E9008091E800877F809361
:101E9000E8000E9474058091E80083FF0AC08091E9
:101EA000E800877F8093E8008091EB008062809358
:101EB000EB00AA96E3E00C943033882321F00E94D3
:101EC00029090E944C0C0895882339F0909131041F
:101ED000982B909331040E944C0C08958823D1F1E3
:101EE0009CEF980F913A78F4E4E5F2E09191891330
:101EF00003C0DF0111971C9292E0EA35F907B1F7B0
:101F00000E944C0C089590E2980F983050F487701E
:101F100091E001C0990F8A95EAF7892F0E9429095B
:101F2000EFCF9BE5980F933028F490E080E00E947B
:101F3000C306089598E5980F9B3128F490E080E05F
:101F40000E949E06089593E3980F933118F460E081
:101F50000E946F0B08950F931F93CF93C82F882370
:101F600049F18CEF8C0F813AB8F504E512E08AE56F
:101F700092E0F8012191C21709F122E0EA35F20757
:101F8000C9F7EFEF80E0D8019D918D01C91781F06D
:101F9000EF3F19F4911101C0E82F8F5F863099F758
:101FA000EF3F31F00E2E000CFF0BEE5AFD4FC283B7
:101FB0000E944C0CCF911F910F910895E4E5F2E03F
:101FC0002191C21303C0DF0111971C928E179F0746
:101FD000B9F70E944C0CD5CF80E28C0F883068F4A2
:101FE000C77021E030E001C0220FCA95EAF7809166
:101FF0003104822B80933104DBCFEBE5EC0FE3302F
:1020000040F4F0E0E052FE4F808190E00E94C30671
:10201000D1CFE8E5EC0FEB3150F4F0E0EE0FFF1F0D
:10202000ED51FE4F808191810E949E06C3CF83E3D4
:102030008C0F833108F0BECF61E08C2F0E946F0BB4
:10204000B9CF0F931F93CF93DF93EC01FC01019065
:102050000020E9F78F0101501109C017D10728F0BE
:10206000DF91CF911F910F91089589910E94860B66
:10207000F4CF0F931F93CF93DF938B01EA019091DD
:102080003E04943061F58093E9008FEF9091E80071
:10209000815095FD06C095ED9A95F1F700008111EC
:1020A000F5CF8091E80085FF1AC00E944305811199
:1020B00011C08091E80085FD06C08091E8008E7710
:1020C0008093E800F2CFF80181918F018093F100B5
:1020D000219779F78091E8008E778093E800DF916F
:1020E000CF911F910F91089543E050E0BC0184E02F
:1020F0000E943910089546E050E0BC0184E00E943F
:1021000039100895CF93DF93EC0148E050E0BC0113
:1021100081E00E94391088E0FE01A4E3B4E0019060
:102120000D928A95E1F7DF91CF9108956091860134
:102130008091820480FF20C08091850143E0849FCC
:10214000C00111248A5B9C4F539A2BB1277F3BB16E
:1021500038605FB7F894FC01649FE00DF11D112415
:10216000BF0168177907D1F45FBF8FE594E001974D
:10217000F1F700C0000008958091870190918801D7
:1021800023E0829FF0011124EA5BFC4F8917A0F63F
:102190001182108212828F5F3396F8CFFC01419139
:1021A000CF01E8E03BB9000000C047FF2BB9440F66
:1021B000000000C000C000C02BB900C0EA9591F734
:1021C000D0CF9091820490FF0FC02C3368F430E0A0
:1021D000F901EE0FFF1FE20FF31FEA5BFC4F818353
:1021E000608342830E9496100895FB0120812C3366
:1021F00040F48181882331F04FEF6FEF8FEF0E9421
:10220000E110089540E060E080E0F9CFE2E8F4E01A
:1022100080818E7F8083E3E4F3E08281816082832A
:102220000E9496100895B0E0A0E0E9E1F1E10C947D
:102230000D337C015B016A018091030301E010E032
:102240008A3010F40AE010E0C1E0D0E0B501C70127
:10225000F6010995811104C021960C171D072CF475
:10226000CDB7DEB7EAE00C942933CC9F9001CD9F27
:10227000300D300D112490E080E045E34A95F1F7F0
:102280000000019682179307C1F7E0CF8091950275
:10229000811119C088EC90E02091E30027FD10C067
:1022A000EFE3FCE93197F1F700C000000197A1F7D7
:1022B00082E0809395020E94240510923E0403C0A0
:1022C00081E08093950281E090919502913011F028
:1022D00080E0089508950E944611882359F0E09106
:1022E0002704F0912804309729F00190F081E02D27
:1022F0000995089580E008950F931F930E94461159
:10230000882329F00E9492061F910F9108950E9440
:102310009206009104031091050320910603309169
:102320000703600F711F821F931FEECF54985C9AB2
:10233000879A8F9885E08A95F1F7000089B1879890
:102340008F9A90EA9A95F1F790E024E09595879519
:102350002A95E1F78095909581700895CF93DF934A
:1023600080918A01CEE18111CDE180918B01D0E095
:10237000882329F080918C01DEE18111DDE10E944A
:10238000961181110FC08D2F80938501C093860116
:10239000CD0F10928701C0938801C0938901DF910E
:1023A000CF91089580E0F0CF80918A01F901808378
:1023B0000E94AE1108951F93CF93DF93182FEB0166
:1023C0000E94AB0F8FE99FE00197F1F700C000007A
:1023D0002197C1F7812F0E946E0FDF91CF911F913E
:1023E0000895109231040E94890C2FEF84E39CE041
:1023F000215080409040E1F700C0000088E19AE061
:102400000FB6F894A895809360000FBE909360007B
:10241000FFCFCF93DF93C9E6D2E060E0CE010E9408
:10242000F0332196C11584E0D807B9F7DF91CF9139
:1024300008951F93CF93DF93122F8630E0F4683016
:10244000D0F44630C0F4C42FD0E0CC0FDD1F9CE0A8
:10245000699FC00DD11D112490E6899FC00DD11D2B
:102460001124632FCE0189960E94F033612FCE0193
:102470008A960E94F033DF91CF911F910895B0E0CA
:10248000A0E0E5E4F2E10C940F339AEDE92E93E03D
:10249000F92ED12C8701C12C1CC04C2F83E021E0E8
:1024A00030E08D1540F0FE01EE0FFF1FE00FF11F31
:1024B000859194919C016C2D8D2D0E94191221966D
:1024C000C630D10551F7C394045F1F4F88E0C8168A
:1024D00019F0D0E0C0E0E1CFD39480E6E80EF11C23
:1024E00086E0D812D7CFCDB7DEB7E8E00C942B3317
:1024F00088E290E00E94F0330895CF93DF93D82FC5
:10250000CFEF8111C6E26C2F85E290E00E94F0339C
:102510006FEFD11166E086E290E00E94F0336C2FFD
:1025200087E290E00E94F033DF91CF91089580E040
:102530000E947D1260E070E0CB010E9478120E9440
:102540003F120E94091281E00E947D1208950F93AC
:102550001F93CF93DF93863030F5683020F54630F7
:1025600010F5C42FD0E0CC0FDD1F2CE0629FC00D12
:10257000D11D112430E6839FC00DD11D1124CE0141
:1025800089960E94CC33082F10E0102F0027CE012F
:102590008A960E94CC339801282BC901DF91CF91F4
:1025A0001F910F91089590E080E0F8CF462F78308A
:1025B00040F4663030F4863020F4672F0E94A71272
:1025C000089590E080E00895CF92DF92FF920F93FC
:1025D0001F93CF93DF936C010091FA0380918802DF
:1025E000082BC5E0D0E010E0FC2EC8010C2E02C084
:1025F000959587950A94E2F780FD0CC02197A0F786
:10260000F12C8F2DDF91CF911F910F91FF90DF90D3
:10261000CF900895B6018C2F0E94D6120E943A08DE
:10262000019761F3EECFCF93DF93EC010E94E412A8
:10263000BE010E94D6120E943A08DF91CF91089500
:10264000FC0124812223C1F0808191810E94131317
:1026500092959F70963091F058F4925F9F709230EF
:1026600058F4803F19F030F4883E30F481E008954A
:102670009A5FF4CF843FD1F380E00895883EB0F3B1
:10268000813FD1F7F3CFA6E0B0E0E9E4F3E10C94A9
:10269000143349835A8349815A819923A1F0222313
:1026A00091F0CA010E94E412182F682F89819A8143
:1026B0000E946E0969817A81812F0E94D612269626
:1026C000E3E00C943033CA010E943A09182FF2CF8C
:1026D00088E290E00E94CC33682F70E090E080E0C8
:1026E000089585E290E00E94CC33863289F486E238
:1026F00090E00E94CC33863059F487E290E00E944B
:10270000CC3391E0863209F090E0892F81700895F2
:1027100080E0FCCFB0E0A0E0E0E9F3E10C940F33FF
:102720006C017B0164E670E088E70E944F308C0109
:10273000E601EC0CFD1C17FD0BC0FE01849164E664
:1027400070E00E94BB308C012196CE15DF0599F711
:102750000E94313181E00115110509F080E0CDB70B
:10276000DEB7E8E00C942B3380912104909124048F
:10277000911103C091E089270895882369F062E0F0
:1027800070E08BE993E00E948A13811103C080916D
:10279000210408951092210480912104EBCFCF935E
:1027A000C0912104809124048823D1F00E949206D4
:1027B000605A75418F4F9F4F60931D0470931E04A4
:1027C00080931F0490932004C11108C062E070E060
:1027D00089E993E00E948A13811105C0C091210408
:1027E0008C2FCF91089581E080932104F7CFB0E042
:1027F000A0E0EDEFF3E10C940B3349015A016B01BA
:102800007C010E9404078401A4016A2D7B2D88E0CD
:1028100090E00E94023494014A2D5B2DB601C7015D
:1028200000E20E949233622F84E290E00E94F03333
:10283000CDB7DEB7ECE00C942733A3E0B0E0E3E2E1
:10284000F4E10C940E33F82EE62E042FD22E809154
:10285000820480FF55C0909183049F1108C090911D
:102860008404961304C090918504941729F09091E4
:102870004503926090934503E82FE695AE2FB0E0B4
:10288000A35DBD4F9C91909343038E7F823009F0EE
:1028900041C0402F073908F046E99E012F5F3F4FA6
:1028A0006E2D8F2D0E941A078091820480FF11C027
:1028B0002B8139814A81809187019091880153E071
:1028C000859FF0011124EA5BFC4F8917E8F00E9414
:1028D0009610F0928304E092840400938504DD2036
:1028E00079F02091820460918604709187043F2DD5
:1028F0004E2D502F80918804909189040E94F713E7
:102900002396E9E00C942A334183308322838F5F3E
:102910003396DBCF9230E9F6E2506E2F6170B62E1F
:10292000E695F0E0EC56FC4F1491C12C60918901C2
:10293000C61668F6C19EC001112470E00E94F132F3
:102940008F2DB11017C0860F20918701622F6C0D5B
:102950007727771F9B01220F331F260F371F2A5B14
:102960003C4F402F073908F046E96E2D0E941A07A8
:10297000C394DCCF861BE8CFE2E8F4E043812FE08C
:10298000421B08F440E021E0628181810E941D1415
:102990000895E2E8F4E043812FE0420F08F44FEF9E
:1029A00021E0628181810E941D140895E2E8F4E033
:1029B000628121E1621B08F460E021E043818181B2
:1029C0000E941D140895E2E8F4E0628121E1620FA3
:1029D00008F46FEF21E0438181810E941D14089566
:1029E000E2E8F4E0818121E04381628181510E942B
:1029F0001D140895E2E8F4E0818121E043816281C1
:102A00008F5E0E941D14089580918604882319F01A
:102A100081508093860420918204309183044091F8
:102A2000840450918504609186047091870480919C
:102A30008804909189040E94F71308958091860478
:102A4000833018F48F5F8093860420918204309144
:102A500083044091840450918504609186047091B0
:102A6000870480918804909189040E94F713089547
:102A70009091820490FF28C09170811126C09260CD
:102A8000909382048091450381608093450366237F
:102A900091F02091820430918304409184045091FC
:102AA00085046091860470918704809188049091D8
:102AB00089040E94F71320E040918504609184040A
:102AC000809183040E941D1408958C3010F096614B
:102AD000D7CF880F982BD4CF8091820486958150D0
:102AE00009F48BE061E00E9438150895809182041A
:102AF00086958F5F8C3008F081E061E00E94381588
:102B000008958091820480FF08C0869582588F774F
:102B1000893018F40E947615089561E082E00E94E1
:102B200038150895E2E8F4E083E0808311828FEFA6
:102B3000828386E983831482A3E4B3E012968C91A6
:102B40001297836012968C93758123E030E04FEFEB
:102B500056E960E0868197810E94F713089590916D
:102B6000130392FB222720F9281779F080FB92F9B2
:102B700090931303609112037091130384E090E02B
:102B80000E940E3482E00E94D509089590E080E012
:102B90000E94DA33863E9E4F19F40E947113089505
:102BA00080E00895B0E0A0E0E8EDF5E10C9410338A
:102BB0007901C82F880FDD0B41155105A9F0FE01E1
:102BC00093E0EE0FFF1F9A95E1F7EF5FFE4F8181D3
:102BD00092818A569D4F208130E04217530708F4B6
:102BE0009A01A9010E94C333CE010E947B32D82EE4
:102BF0008823D1F001151105B9F083E0CC0FDD1F5A
:102C00008A95E1F7FE01EF5FFE4F438150E0041724
:102C1000150708F4A801CF5FDE4F6C817D816A56ED
:102C20007D4FC7010E94C3338D2DCDB7DEB7E7E0DE
:102C30000C942C33A5E0B0E0E0E2F6E10C940D3307
:102C40008D83E62E5A01F22E6801809103038A30AB
:102C500028F080E02596EAE00C9429338D818930B4
:102C6000C4F31A8219828A836B832C8363E070E039
:102C7000CE0102960E94E8068983E0923101F0922B
:102C8000440110E000E030E020E044E050E0BE010C
:102C90006F5F7F4F85E00E94D2158823D1F24E2DC1
:102CA00050E030E020E0B50186E00E94D215882394
:102CB00081F230E020E041E050E0BE016B5F7F4FE9
:102CC00087E00E94D215882321F20F2D10E0960193
:102CD00050E040E070E060E088E00E94D215BACF9A
:102CE000A4E0B0E0E6E7F6E10C9413334091F7027C
:102CF0005091F8026091F9027091FA022FB7F8949E
:102D000080912C0490912D04A0912E04B0912F0459
:102D10002FBF841B950BA60BB70B11E084369105D2
:102D2000A105B10518F10E947C116E5F7F4F8F4F96
:102D30009F4F69837A838B839C8310E000E030E0AF
:102D400020E044E050E0BE016F5F7F4F82E00E94D0
:102D5000D215182F882351F00E9492066093F70233
:102D60007093F8028093F9029093FA02812F2496CF
:102D7000E4E00C942F33A5E0B0E0E1ECF6E10C9434
:102D800011337B0101E010E09E012B5F3F4F50E0CB
:102D900040E070E060E080E00E94D215182F8823A8
:102DA00009F456C04091F3025091F4026091F5028B
:102DB0007091F6022FB7F89480912C0490912D0415
:102DC000A0912E04B0912F042FBF841B950BA60B4E
:102DD000B70B84369105A105B10548F464E070E0B5
:102DE00087E992E00E94E8069D81891789F104E055
:102DF00010E09E012F5F3F4F50E040E070E060E048
:102E000081E00E94D215082F64E070E087E992E02B
:102E10000E94E80611E09D81981310E0102331F123
:102E20000E9492066093F3027093F4028093F5027D
:102E30009093F60289819A81AB81BC818093EF02E5
:102E40009093F002A093F102B093F20211E00EC051
:102E50008091970290919802A0919902B0919A0264
:102E600089839A83AB83BC831111E4CF8091EF02F5
:102E70009091F002A091F102B091F202F7018083EB
:102E80009183A283B383812F2596E6E00C942D33A2
:102E90008F929F92AF92BF92EF92FF920F931F93E8
:102EA000CF937B01942FB901A801F7018080918015
:102EB000A280B380EFB7F89400912C0410912D04F8
:102EC00020912E0430912F04EFBF081919092A0907
:102ED0003B09043611052105310518F4C1E0992399
:102EE00081F010E000E030E020E00E94D215C82F11
:102EF000882339F00E949206F701608371838283F0
:102F000093838C2FCF911F910F91FF90EF90BF90E3
:102F1000AF909F908F900895A1E0B0E0E2E9F7E1D3
:102F20000C9413338091210489832091AA0290E0AC
:102F300041E02817190609F440E001E010E09E0185
:102F40002F5F3F4F6FEF72E084E00E944817219699
:102F5000E4E00C942F33ABE0B0E0E1EBF7E10C944C
:102F6000133388E0E2E8F4E0DE01119601900D925F
:102F70008A95E1F78091430390914403A091450322
:102F800089879A87AB8741E08B85811101C040E03A
:102F90000BE010E09E012F5F3F4F6BEF72E083E08C
:102FA0000E9448178111109245032B96E4E00C947F
:102FB0002F33A8E0B0E0EFEDF7E10C94153366EEA7
:102FC0007EEF90E080E00E940E3460E082E090E0CE
:102FD0000E94F03360E083E090E00E94F0331092B2
:102FE000880260E074E184E090E00E940E3460E0CA
:102FF00086E090E00E94F0336FEF87E090E00E945F
:10300000F03340E050E0BA0188E090E00E940234E2
:1030100060E084E290E00E94F03360E087E190E0BD
:103020000E94F03360E08CE090E00E94F03360E0BA
:103030008DE090E00E94F03319821A821B821C827C
:103040001D821E821F82188648E050E068E170E011
:10305000CE0101960E94E03340E050E0BA0180E2E8
:1030600090E00E94023480E00E947D120E9497123C
:1030700040E050E0BA018FE090E00E94023440E06E
:1030800050E0BA0183E190E00E9402342896E2E029
:103090000C94313328E030E043E060E086E30E94A6
:1030A000772F0895CF93DF93D82FC62F0E944A1809
:1030B0008D2F80680E94EF2F8C2F0E94EF2F8AEBBC
:1030C0008A95F1F700C00E941F3083E492E00197D7
:1030D000F1F700C00000DF91CF910895682F893784
:1030E00008F068E76093950191E0909396019091C4
:1030F0008A01992339F06150811101C064E08FE0A9
:103100000E9452180895FB0180810E946E18089554
:1031100090919501911101C095E0282F880F330BF4
:10312000A901490F511DCA011816190614F081E0B2
:1031300090E00E946E180895ACE0B0E0E2EAF8E199
:103140000C940F334F83588769877A878B879C87C6
:1031500080918A01882309F446C080915F02811121
:1031600007C060E080E50E94521881E080935F0212
:103170000E944A1880E50E94EF2F8AEB8A95F1F7AA
:1031800000C00E9407300E9407300E9407307C0177
:103190000E94073020E0E22AF82A0E9407308C01C2
:1031A0000E94073020E0022B182B0E941F3085E080
:1031B0008A95F1F70000F894B70180918D01909104
:1031C0008E010E94DD0A90938E0180938D01B801DB
:1031D00080918F01909190010E94DD0A909390015F
:1031E00080938F0178940E944611882309F469C066
:1031F0000E94920600916002109161022091620289
:10320000309163026B017C01C01AD10AE20AF30A11
:1032100097018601083011052105310508F451C0D8
:1032200060936002709361028093620290936302E4
:10323000009198011091990120919A0130919B0180
:10324000601B710B820B930B623371058105910535
:1032500080F410928E0110928D01109290011092C4
:103260008F0110929201109291011092940110928C
:103270009301109197010E949611482FBE01695F3A
:103280007F4F8DE891E0112389F10E940F0A009190
:10329000970110918A010E94961141E04827BE01D2
:1032A000695F7F4F81E991E0011719F10E940F0AD0
:1032B00086E0FE013796A2EAB1E001900D928A9570
:1032C000E1F786E0FE013796DE01119601900D923E
:1032D0008A95E1F729813A814B815C816D817E81FC
:1032E00080E090E02C96E8E00C942B330E947C0A5E
:1032F000CECF0E947C0ADCCFCF93C82F0E944A1801
:103300008C2F0E94EF2F8FE792E00197F1F700C01A
:1033100000000E940730C82F95E09A95F1F7000051
:103320000E941F3085E68A95F1F7000010925F0237
:103330008C2FCF910895CF93DF930E946F2F269A01
:103340000E944A186AE58AE30E9452182FEF80E72C
:1033500092E0215080409040E1F700C0000082E000
:103360000E947C1983E00E947C1984E00E947C19F1
:1033700085E00E947C1986E00E947C1960E080E173
:103380000E94521880E00E947C19D82F81E00E9490
:103390007C19C82F0E941F30D23419F481E0C1304B
:1033A00009F080E0817080938A01882321F064E035
:1033B0008FE00E945218DF91CF9108951F920F92D3
:1033C0000FB60F9211242F933F934F935F936F93F8
:1033D0007F938F939F93AF93BF93CF93DF93EF939D
:1033E000FF93D091E900DF708091EC00C82FC1708D
:1033F00080FDC0E81092E9008091F000877F809303
:10340000F00078940E949D0C1092E9008091F000E9
:1034100088608093F000CD2BCF70C093E900FF91BE
:10342000EF91DF91CF91BF91AF919F918F917F915C
:103430006F915F914F913F912F910F900FBE0F9021
:103440001F9018951F920F920FB60F9211242F9371
:103450003F934F935F936F937F938F939F93AF931C
:10346000BF93EF93FF938091E10082FF09C08091A9
:10347000E20082FF05C08091E1008B7F8093E10034
:103480008091DA0080FF24C08091D80080FF20C0A6
:103490008091DA008E7F8093DA008091D90080FFDE
:1034A0009DC080E189BD82E189BD09B400FEFDCFE8
:1034B00081E080933E0480913004811109C00E9414
:1034C00024050E94C5058091E20084608093E2009B
:1034D0008091E10080FF17C08091E20080FF13C05F
:1034E0008091E2008E7F8093E2008091E200806113
:1034F0008093E2008091D80080628093D80019BC4C
:1035000085E080933E048091E10084FF2BC0809190
:10351000E20084FF27C080E189BD82E189BD89B5D1
:10352000982F917080FFFBCF8091D8008F7D809382
:10353000D8008091E1008F7E8093E1008091E200CD
:103540008F7E8093E2008091E20081608093E200B0
:1035500080913F04882309F447C084E080933E04AF
:1035600080913E048091E10083FF27C08091E200BA
:1035700083FF23C08091E100877F8093E10082E098
:1035800080933E0410923F048091E1008E7F8093EF
:10359000E1008091E2008E7F8093E2008091E20062
:1035A00080618093E20042E060E080E00E94930549
:1035B0008091F00088608093F000FF91EF91BF91BF
:1035C000AF919F918F917F916F915F914F913F91BB
:1035D0002F910F900FBE0F901F90189519BC10924D
:1035E0003E041092300474CF8091E30087FD93E095
:1035F00090933E04B5CF78941F921FB61F9211246A
:103600008F939F93AF93BF9380912C0490912D043F
:10361000A0912E04B0912F040196A11DB11D80939D
:103620002C0490932D04A0932E04B0932F04BF91EB
:10363000AF919F918F911F901FBE1F9018959C0175
:103640004FB7F89480912C0490912D04A0912E04F2
:10365000B0912F044FBF821B930B08952FB7F8949E
:1036600080912C0490912D04A0912E04B0912F04F0
:103670002FBF08952F923F925F926F927F928F9209
:103680009F92AF92BF92CF92DF92EF92FF920F93F1
:103690001F93CF93DF9380912404882309F4FEC005
:1036A00080912204909123040E941F1BC29708F46A
:1036B000D5C00E942E1B90932304809322048DE892
:1036C00094E090939406809393060E944611882379
:1036D00009F401C183EA93E00E940C0C88EB0E947C
:1036E000860B8091A1010E94AB0A0E94860B89EB98
:1036F0000E94860B8091A0010E94AB0A0E94860B5B
:1037000080EA93E00E940C0C80919E0190919F01B1
:1037100054E0969587955A95E1F70E94AB0A0E946E
:10372000860B80919E010E94AB0A0E94860B8DE958
:1037300093E00E940C0C88EA91E00E94211082EC38
:1037400093E00E940C0C8091A4010E94B20A0E9496
:1037500021108091A5010E94B20A0E94211080913F
:10376000A7010E94B20A0E9421108091A6010E9426
:10377000B20A0E9421108AEB93E00E940C0C809107
:103780009501811101C085E00E94B20A01960E9454
:10379000211086EB93E00E940C0C80919D01882300
:1037A00031F0813009F48CC08DEA93E002C083EBE4
:1037B00093E00E940C0C80919701882309F483C048
:1037C0008BEC93E00E940C0C89EA93E00E940C0CB5
:1037D00080919C01811101C084E0805D0E94860B74
:1037E00081ED93E00E940C0CC1E0D0E08091FA03DF
:1037F000882309F46BC090E00C2E02C09595879544
:103800000A94E2F780FF62C08C2F0E94AB0A0E94EC
:10381000860B2196C830D10549F780E20E94860BBD
:103820008EEC93E00E940C0C80917101882309F4C6
:103830004FC08BEC93E00E940C0C8091730190912F
:1038400074016AE070E00E94F132862F0E94B20A91
:1038500001960E94211080E30E94860B80918B04C8
:1038600090918C04892B09F04CC08091210488230D
:10387000A9F00E94920600911D0410911E0420914F
:103880001F0430912004601B710B820B930B6F3F60
:103890007F4F8F4F9F4710F40E94B413DF91CF9159
:1038A0001F910F91FF90EF90DF90CF90BF90AF905E
:1038B0009F908F907F906F905F903F902F90089592
:1038C00080EB93E076CF88EC93E07CCF80EB9FCFCA
:1038D00088EC93E0B0CFC0E9D0EFDC0F87ED93E048
:1038E0000E940C0C11E01D0F8D2F0E94860BD12F12
:1038F0001C13F8CF80E00E941A0CC05FC03C61F737
:10390000ADCF80912404882309F4AFCF80911C04AB
:103910008111ABCF0E94CF1320918B0430918C0486
:103920002115310509F4A1CF80E041E050E0082FD6
:1039300010E01A01082E02C0220C331C0A94E2F790
:10394000B10162237323672B11F48F5FF0CF909145
:103950001B0490FF95C0880F880F880F80937F010C
:1039600010928201895F8093800183E080938301BC
:1039700024E630E047E050E06DE771E088E70E9420
:10398000E930892B09F071CFA80125E0440F551FBC
:103990002A95E1F780911B0480FF84C0EBEFF3E0F0
:1039A00080E2DF011D928A95E9F7ADE3B2E009E319
:1039B00012E081E4C82E82E0D82E97E0592E7724B9
:1039C00073948D91E80129918E01240F352F311DBB
:1039D00023573B4FE82FF0E0E550FC4F90E080E0AC
:1039E000652C681A872C082E01C0880C0A94EAF707
:1039F0007901A12CE701B9907E01B820662D6A19E2
:103A00006770962E062E000C770BDB2D01C0DD0FA4
:103A10009A94EAF77195619571096770772701C0EB
:103A2000B6946A95EAF7BD2A6081962E9B2890820B
:103A3000A39468E0A612DECF0196319688309105F6
:103A400079F6CA16DB0609F0BCCF04E610E020E2E6
:103A500030E04BEF53E060E488E70E940A31892BA5
:103A600009F003CFE101C095D09580918B0490912E
:103A70008C04C823D923D0938C04C0938B04F5CE37
:103A80008295880F807680937F01980136952795DF
:103A90003695279520938201815E80938001209343
:103AA000830166CF43575B4F04E610E020E230E02D
:103AB000D2CFAEE1B0E0EFE5FDE10C9414334091DC
:103AC0003C0350913D0360913E0370913F03809110
:103AD0004003909141030E949C1820933C03309333
:103AE0003D0340933E0350933F0360934003709324
:103AF000410386E0ECE3F3E0DE01179601900D92BE
:103B00008A95E1F786E0FE013796DE011D96019069
:103B10000D928A95E1F786E0FE013D96DE01119651
:103B200001900D928A95E1F786E0FE013196ACE3B3
:103B3000B3E001900D928A95E1F786E0ECE3F3E0C3
:103B4000DE01599601900D928A95E1F786E0FE011B
:103B50007996DE01179601900D928A95E1F786E03D
:103B6000FE013796DE01119601900D928A95E1F7DC
:103B700086E0FE013196DE01539601900D928A9502
:103B8000E1F786E0FE017396DE01179601900D9233
:103B90008A95E1F786E0FE013796ACE3B3E0019049
:103BA0000D928A95E1F786E0ECE3F3E0DE011796EB
:103BB00001900D928A95E1F780917101882309F4B3
:103BC00045C080917601909177010E941F1B209142
:103BD000750128171906D0F5809178019091790127
:103BE0000E941F1B893C910588F189859A85892B44
:103BF0009B85892B9C85892B9885892B91E009F4DD
:103C000090E090937A010E94C7071091FA038823ED
:103C100051F10E942E1B90937701809376011092B0
:103C200079011092780180917201111105C08823E9
:103C300069F00E94EC090AC0212F30E0082E02C072
:103C4000359527950A94E2F720FFF3CF0E94160BD3
:103C500081112FC080913B0310923B0381706E96BF
:103C6000E3E00C94303380917201111118C081117E
:103C7000EDCF80917601909177010E941F1B2091DA
:103C80007301309174012817390700F78091720190
:103C90000E94C8091092770110927601D7CF212F88
:103CA00030E002C0359527958A95E2F720FFCECF08
:103CB000E0CF81E090E0D0CFA3E1B0E0E2E6FEE12A
:103CC0000C940A338E01045F1F4F88E0D8011D92C7
:103CD0008A95E9F78BE1C82E82E0D82EF12CE12CF1
:103CE000AA24A394B12C25E2822E22E0922EF60182
:103CF00081916F018F3F09F442C0F894E82FE2955B
:103D0000EF70F0E021A18F70A50102C0440F551F94
:103D10008A95E2F7CA01922F982B91A392A18095E0
:103D2000892382A3789400C0EFE1F2E0712C31E0A6
:103D300021912F3F09F46BC0A22FA295AF70B0E084
:103D400090968C9190E02F7002C0959587952A955A
:103D5000E2F780FD5CC0832F782A330F8E169F0612
:103D600039F7F601319780818F3F11F00E942308C7
:103D700050EA5A95F1F7F801EE0DFF1D70828FEFB2
:103D8000E81AF80AA4E0EA16F10409F0B0CF48E016
:103D900050E0B80188E093E00E94B633009741F00C
:103DA00028E0F801A8E0B3E001900D922A95E1F730
:103DB00000911103892B69F181E080938D020E94AB
:103DC0002E1B90938C0280938B0280918B0290919A
:103DD0008C020E941F1B059700F110E0015E1C4F32
:103DE00044E050E068E073E0C8010E94B633B12CB3
:103DF000892B51F084E0E8E0F3E0D80101900D92C6
:103E00008A95E1F7BB24B39410928D0207C080E03D
:103E1000A3CF80918D028111D8CFB12C0E94461181
:103E2000A82EE0911103882309F489C019821A820F
:103E30001B821C820E2F10E0015E1C4F8091030339
:103E40008A3008F046C04BEB56E1BE016F5F7F4FF2
:103E5000C8010E941311882309F460C040E756E1AD
:103E6000BE016F5F7F4FC8010E941311882309F4C0
:103E700055C04BEA57E1BE016F5F7F4FC8010E94FA
:103E80001311882309F44AC04CE857E1BE016F5F63
:103E90007F4FC8010E941311882309F43FC010927C
:103EA00003038091100390E044E050E0BE016F5F97
:103EB0007F4F815E9C4F0E94B63321E02093940295
:103EC000892BF1F4A12C8A2D8B296396EDE00C94BB
:103ED000263380918E0290918F020E941F1B843F97
:103EE000914008F0B0CF80919402882359F384E088
:103EF000FE013196DF011D928A95E9F71092940236
:103F0000E0911003F0E0E15EFC4F89819A81AB8182
:103F1000BC8180839183A283B383D5CF8091030337
:103F20008F3F31F08F5F809303038A3008F4B9CF5D
:103F30000E942E1B90938F0280938E02D4CFF0E0CC
:103F4000E15EFC4F84E0A7E9B2E001900D928A9512
:103F5000E1F764E070E087E992E00E94E806809370
:103F60009602C0909B02D0909C02E0909D02F0903F
:103F70009E028091900290919102A0919202B09144
:103F80009302C816D906EA06FB06D1F0C092900249
:103F9000D0929102E0929202F09293020E94461116
:103FA00081110EC00E949206C61AD70AE80AF90AC1
:103FB000C0920403D0920503E0920603F092070337
:103FC0008BE0EFE9F2E0DE01119601900D928A9507
:103FD000E1F79981892F86950A81FB80EC801B850A
:103FE0001092A9021123A1F010FF0AC090FF17C080
:103FF0009091820491609093820460E00E94381551
:1040000011FF06C020E04E2D6F2D802F0E941D1441
:104010008091AA02882331F00E94CF1354CF0E94CE
:104020000611EECF0E94B4134ECFA8E0B0E0EBE152
:10403000F0E20C9407338C01DC0114968C911497F8
:10404000882309F4BDC021E04C9111965C91119731
:1040500012966C91129713967C91139715969C91DA
:104060000E9443137C01F801D580DD2009F469C169
:1040700097578038910508F064C1FFE0FE1508F4F9
:104080008FC08FEF93E00E94CC33811189C0E9E6A5
:10409000AE2EE2E0BE2EE1104DC0FE01339686E06A
:1040A000DF011D928A95E9F77AE0472E7501BFEF8F
:1040B000EB1AFB0AC5010E94CC3389831A8288233C
:1040C00009F46EC0813009F07FC06501E2E0CE0ED8
:1040D000D11CC7010E94CC338A83882309F460C0B5
:1040E0009FEF980F9330A0F5F3E0AF0EB11CC6011F
:1040F0000E94CC338B83882309F452C01C82DE01DA
:1041000011967D01F7012081222381F2213009F0EF
:10411000BAC091818281913009F058C0F2E0EF0E6F
:10412000F11C65E070E0893311F460E570E00E94F5
:10413000DB1153C0A11424E0B20691F1C5010E9425
:10414000CC33811101C0EA943FEFA31AB30AA3CF85
:1041500056018430A1F662E0E62EF12C56012FEFD5
:10416000A21AB20AC6010E94CC33E1E0F0E0EC0FE3
:10417000FD1FEE0DFF1D8083882391F08C3741F4E5
:10418000E2E0F0E0EC0FFD1FEE0DFF1D1082B7CF57
:104190003FEFE31AF30A650187E0E816F104F1F650
:1041A00080914203877061F0D80115968C91882325
:1041B00039F08091130382FF03C082E00E94D50989
:1041C0002896E0E10C942333570199CF923039F5CA
:1041D00022E0E20EF11C0E94AB0FFFEFEF1AFF0A84
:1041E0008FE99FE00197F1F700C00000AFE9BFE061
:1041F0001197F1F700C00000EFE9FFE03197F1F708
:1042000000C000008FE99FE00197F1F700C00000B7
:10421000AFE9BFE01197F1F700C0000073CF933012
:1042200031F432E0E30EF11C0E946E0FD6CF9430D1
:1042300021F08FEFE81AF80AD0CF92E0E90EF11CD6
:1042400030E020E0B7016F5F7F4FD70111964C91AE
:104250008053990B8A30910558F02150310908F4A8
:10426000BCCFEFE9FFE03197F1F700C00000F5CFD8
:10427000429EF001439EF00D11249C012E0F3F1F22
:10428000842F7B01DFCFE22FF0E0E354FE4F549008
:10429000822F86958695869590E0FC01E355FE4F2A
:1042A00064902770712C022E02C0759467940A9452
:1042B000E2F731E063227724FC01E356FE4F84905D
:1042C000912C022E02C0959487940A94E2F7A1E003
:1042D0008A229924FC01E357FE4FC490D12C02C0DE
:1042E000D594C7942A95E2F7B1E0CB22DD2461147E
:1042F000710419F081EE0E94AB0F8114910419F042
:1043000086EE0E94AB0FE9E365E070E05E1202C04A
:1043100060E570E0852D0E94DB118114910419F095
:1043200086EE0E946E0F6114710419F081EE0E94F6
:104330006E0FC114D10409F450CF65E070E08CE237
:10434000F6CE80917101882309F46FC0B0E2EB16BC
:10435000B2E5FB0608F052C0E114E2E5FE0608F003
:1043600000C1E114F0E4FF06E0F5E11420E2F206FA
:1043700008F023C130EEE316F10450F088EEE816A1
:10438000F10408F44DC0E11491E0F90608F048C0CA
:10439000F8018481882309F443C0F7E0EF16FEE7B3
:1043A000FF0609F4F5C0C7018D5C9109439708F435
:1043B000EFC00E94C707811133C0DD2059F0809102
:1043C00072012091FA032111FFC0882309F405C16D
:1043D0000E94F00A0E942E1B90937901809378012D
:1043E0001FC0E114A0E5FA0608F0D6C0F8018681E6
:1043F000807F09F0E2C08F2D9927D4C0B0E8EB167A
:10440000B2E5FB0608F083C0E0E6EE16E2E5FE0644
:1044100008F0A7C0F0E4EF16F2E5FF0608F4AFC01D
:1044200080917C0187FD10927C01F0929F01E092C7
:104430009E01D8018D919C9111979093A101809339
:10444000A001F7013497E533F105B0F4E35CFD4FCB
:10445000E49115968C9120EB811102C02E2FE0EB98
:10446000A8EAB1E090E080E03D913213B9C08657F0
:104470009E4FDC015E96EC93F8018081863020F53A
:104480004181242F30E090E0443008F0AFC046E096
:10449000429FF001439FF00D1124E853FE4FE80FB7
:1044A000F91FD080FFEFDF1679F00E949611D80136
:1044B00015969C91882309F4B5C0892F81952D2DDF
:1044C000482F682F0E94E110C7019A9581159F41DE
:1044D00008F0B0C0F701FF27D80115968C91E13D97
:1044E000F10548F0E93DF10508F4A6C0E730BEE764
:1044F000FB0709F4B8C0882309F4A2C0FE57E031D5
:10450000F10508F09DC0E05DFB4C0C946A3320EC93
:10451000E21622E5F20608F483CF30EEE31632E528
:10452000F30608F035CF20917201C7018F719927EA
:104530002817190609F074CF8D2D0E94B007D801F5
:1045400016968C911697807F803509F069CF159665
:104550008C91882361F180917C01815080937C0152
:104560005FCF20917201C7018F7199272817190613
:1045700009F056CFD11054CF0E94BE0751CF2091E1
:104580007201C7018F7199272817190609F048CFC2
:104590008D2D0E94B00744CFC70155E096958795B1
:1045A0005A95E1F78F70992720917201EDCF0E9403
:1045B000BE0780917C018F5FD1CFD80116968C9178
:1045C000807F09F42DCFE4CE30E0082E02C035956F
:1045D00027950A94E2F720FFFBCE0E94C809F8CE87
:1045E00001968630910509F03FCF46CF245031091E
:1045F00046E0429FF001439FF00D1124E055FE4F2D
:10460000E80FF91FD080BFEFDB1609F45DCF0E94E1
:104610009611F8019581811105C0892F81952EE1B0
:104620002D0D4ECFD09232039093330381E08093CF
:1046300034034ACFF70150CF682F8E2F0E946F0BA3
:10464000D80115968C918111B4C380913104827286
:10465000F701E052F847E531F10508F0E9C0E05C08
:10466000FB4C0C946A330E94FB09EACF80E00E9465
:104670006E1810929C0180E00E940D0B8AE892E077
:104680000E94FF0A8DCD4091950120919C0120FB55
:1046900047F9269523708091710180FB22F9809162
:1046A00073019091740162E370E00E94F1325FEF58
:1046B000560F550F550F550F522B60919D0163708A
:1046C00070E08FE090E00E9402346ACD81E00E94A9
:1046D000881866CD8FEFFBCF8AE0F9CF86EFF7CF52
:1046E0009091970181E089270E94FB0959CD809123
:1046F0009C01811101C084E08F5F18160CF081E0ED
:10470000883008F087E080939C014ACD80919C011D
:10471000811101C084E08150F0CF81E080939D0140
:104720003FCD10929D013CCD82E0F8CF9091710178
:1047300081E089270E940D0B33CD80917301909108
:104740007401C296893EE3E09E0708F499CF88EE93
:1047500093E096CF8091730190917401C297843653
:10476000910508F08DCF84E690E08ACF8091820495
:1047700080FF1CC0282F2E7F209382043091830459
:10478000409184045091850460918604709187045F
:1047900080918804909189040E94F71380914503C9
:1047A0008160809345030E949610FACC81608093CB
:1047B000820461E086950E943815F2CC4CE655E102
:1047C00066E775E10E94FE06EBCC46E755E16CE634
:1047D00075E1F8CF40EF54E16AEF74E1F3CF4AEFAF
:1047E00054E160EF74E1EECF46ED54E163EE74E125
:1047F000E9CF43EE54E166ED74E1E4CF4CEB54E1D4
:1048000069EC74E1DFCF49EC54E16CEB74E1DACF91
:1048100044E055E16EE175E1D5CF4EE155E164E04C
:1048200075E1D0CF61E081E0C6CF0E948115B8CCA0
:10483000B7E7EB16BCE7FB0609F460C0E8E7EE1645
:10484000ECE7FE0609F45EC0F8018581E080F180A6
:10485000882309F49FC0C7010E94E412D82E682F54
:10486000C7010E946E09B7018D2D0E94D6120E94C9
:104870003A087C01882ED8011596AC9015971696AB
:104880009C9092943FE09322809142038770F1F0D4
:10489000CA2CAA20E1F08F2D807F803451F080E275
:1048A0008E0D883098F0911004C08F2D807E80325C
:1048B00069F08091130382FF09C082E00E94D5094C
:1048C000809142038770CC24C3948111C12CBF2CEA
:1048D000B2942FE0B222BBE0BB1508F4C3C0EB2DAD
:1048E000F0E0EB5AFB4C0C946A3381E00E94EC0937
:1048F00043E062E081E00E94A80952CC81E00E947E
:10490000C809F6CF82E0FBCFF3E0EF16FCE7FF0625
:1049100071F160F4E1143CE7F306D1F081E0E816B0
:104920008CE7F80609F090CF0E94F1119BE5E9169B
:104930009CE7F90669F1ACE5EA16ACE7FA06F1F096
:10494000BAE5EB16BCE7FB0609F07ECF81E01DC09F
:10495000109231040E94890CEFEFF4E32CE0E15057
:10496000F0402040E1F700C000000E9481066FEF98
:104970007FEF90E080E00E940E34D6CF8091130349
:1049800082FB882780F991E089270E94AF155CCFD0
:1049900080E0FBCFC7010E943A09D82E64CFEF2DEB
:1049A000EF70DE2E8F2D807F19F0D29490EFD922F8
:1049B000AA20B9F0DD2069F080E28E0D883010F079
:1049C000811009C080913104D82AD09231040E940C
:1049D0004C0C8E2D45C080918702D82AD092870238
:1049E000F6CF8E2D0E946E0FDD20E1F180E28E0D5C
:1049F000883010F0811004C08D2D0E94290906C056
:104A0000D09480918702D822D09287020E944C0CC9
:104A100029C0FF2DFF70DF2E8F2D807F803219F08F
:104A2000D29480EFD822882059F021E0821609F430
:104A300081C0AA2009F48DC0992009F44FC0C9CFC4
:104A40008091130382FD46C0AA20F1F1DD2039F0E8
:104A500080913104D82AD09231040E944C0C80E01D
:104A60000E94AB0FAB2DA850BB0B149710F40E9403
:104A70006B11CC20A9F08091420380FD11C0F80198
:104A800015828695869586950E94EC09C8010E943C
:104A90001520809142038695869586950E94C809C7
:104AA00020E0D8014C9111965C91119712966C916F
:104AB000129713967C91139714968C9114971596D0
:104AC0009C910E9443137CCB80E00E946E0FDD20FE
:104AD00049F292CFAA20A1F0911004C08D2D0E941E
:104AE000640FC0CF31E09312BDCF809186029D2D1F
:104AF0009823D91609F4B6CFD82AD0928602B2CF1D
:104B00009110B0CF8D2D0E945D0F909186028D2D5A
:104B1000892329F08D2D80958923809386028091A9
:104B200064029D2D982309F49DCFD094D822D09271
:104B3000640298CFAA2029F085E0891508F492CF65
:104B4000CDCF94E0991508F48DCF8D2D0E945D0F87
:104B500089CF9920D1F3A9E38A1223C1BFEFE7EEF1
:104B6000F3E0B150E040F040E1F700C000008E2DCE
:104B70000E946E0F77CF8F2D86958695837061F09A
:104B8000813009F06FCFC7019370A11002C080E09F
:104B900090E00E949E0666CFC7019370A11002C0EC
:104BA00080E090E00E94C3065DCF6A2D8E2D0E94AA
:104BB0006F0B58CF8F2D837091F5A11053CF4E2DD1
:104BC000429546954770440F440F8E2D8F70042EEA
:104BD00001C0880F0A94EAF72E2D2071E4FE07C069
:104BE0002FE030E001C0220F4A95EAF720953F2DD3
:104BF000369536953370323069F050F44091880222
:104C0000313029F0822B84230E94F8092BCF842B8A
:104C1000822BFACF282B809188028227F5CF8695A8
:104C2000AA2011F08F2D8170882309F41BCF4E2DFF
:104C3000429546954770440F440F8E2D8F70042E79
:104C400001C0880F0A94EAF72E2D2071E4FE07C0F8
:104C50002FE030E001C0220F4A95EAF720953F2D62
:104C6000369536953370323069F050F44091FA033E
:104C7000313029F0822B84230E94A509F3CE842BA6
:104C8000822BFACF282B8091FA038227F5CF9F2D14
:104C90009F70F92EAA2029F0892F0E94EC098E2DF1
:104CA0001ECF8E2D0E945D0F8F2D0E94C809DACE77
:104CB0008E2DA2EF8A16B1F1A81570F0B0EF8B1609
:104CC000D1F0E1EF8E1691F0AA2009F45EC09110A8
:104CD00080CE8F2D8F712AC0F3EF8F1651F124EF04
:104CE0008212F2CF8091130382FD2FC08F2D8F711E
:104CF000AA20D9F21BC0AA2081F034E0391508F4AB
:104D0000B1CE2F2D2F7181E090E001C0880F2A9540
:104D1000EAF79091FA038927AFCF85E0891508F467
:104D2000A1CEEFCF8F2D8F71A110BFCF0E94EC09C4
:104D300099CE80E0AA2009F49FCF9F2D9F7181E03A
:104D400001C0880F9A95EAF797CFAA2099F09F2D76
:104D50009F71F92E892F0E94EC098091130382FF25
:104D600007C0A8E0FA9EC00111248360809342032B
:104D70008F2DDCCF81E00E94D509B1E0B91508F094
:104D800071CE82E00E94D5096DCE992079F08933E9
:104D900041F4EFEFF7EE23E0E150F0402040E1F77F
:104DA000E4CE8FE19EE40197F1F7DFCE8F2D8F7176
:104DB0007CCFB7E7EB16BCE7FB0609F496CDE8E736
:104DC000EE16ECE7FE0609F09FCD82E08FCDCF9383
:104DD000DF9380917D02807F09F04DC080917C023D
:104DE000882309F448C0E091810450914804C0919F
:104DF0007802D09177026091790270917A0247E04F
:104E00005E17C9F18E2F90E0E49FF0011124E75B5B
:104E1000FB4F2481222391F1489FF001499FF00D1F
:104E20001124DF01A75BBB4F11962C9111972C1316
:104E300025C02C912D1322C015962C911597211168
:104E40001DC012962D913C91261B370B283C310535
:104E5000A8F480917D028F70806180937D02E15B78
:104E6000FB4F80818F708061808387E792E00E9492
:104E700015200E943009DF91CF910895FC013196F1
:104E8000E770BECFA4E1B0E0E8E4F7E20C940B33A6
:104E90008C0186E0F801DE011F9601900D928A9543
:104EA000E1F7F8018481E58097E7A92E92E0B92E19
:104EB00090917B02911128C0882319F1EE20F1F026
:104EC000C8010E942013F82E8823C1F087E0F80162
:104ED000D50101900D928A95E1F780917B02813096
:104EE00031F480917702909178020E9413130E940E
:104EF000E7268F2D6496ECE00C942733C8010E94BE
:104F00001520FF24F394F5CFD080C1808280938058
:104F1000F0907C022091790230917A02A401421B28
:104F2000530BFF2009F4D9C0483C510508F092C04A
:104F30008823F9F29091780280917D02282F207FBA
:104F400009F056C0C91214C090917702D91210C04E
:104F5000E11048C08F70806180937D0287E792E006
:104F60000E94152080917D02F8018683F12CC1CF2B
:104F7000E11038C06C2D8D2D0E9405056C2D8D2DF6
:104F80000E940505E82E8111F1CFDF86C88A8F8542
:104F900098890E941313292F22952F70243058F4DA
:104FA0009F70223088F0992399F0F8019681907FC4
:104FB00079F4FE2C9ECF2A5F2F70223068F0C80152
:104FC0000E941520EF2CF5CF992311F0882389F347
:104FD000805E883070F3F3CF803F58F3815F833079
:104FE00070F7E7CF80917D02816080937D02BECF14
:104FF000C91207C090917702D91203C0EE2009F4BC
:105000008DC0C8010E942013882309F477CFEE20B9
:1050100009F474CF80917D02803288F0209177026C
:1050200030917802398728879B868A8690917B0207
:105030009C871D868E87CE0108960E94152087E0EA
:10504000F801A7E7B2E001900D928A95E1F70E947E
:10505000E72657CF90917D02292F207F51F487E7D3
:1050600092E00E94152087E0F50111928A95E9F7F8
:105070007DCF882309F43DCF809178028C1110C038
:1050800080917702D8120CC0E1100AC09683C80143
:105090000E94152087E0F50111928A95E9F729CF42
:1050A000C8010E942013882309F428CFEE2009F4B8
:1050B00025CF80917D02803210F2209177023091CD
:1050C00078023A8329839C828B8290917B029D8314
:1050D0001E828F83CE010196B0CF483C5105D0F699
:1050E000882309F40ECFFE2CEE2009F407CF80911F
:1050F00078028C1120C080917702D8121CC0809158
:105100007D0280FD0FC0982F907F61F08683903FD5
:1051100031F0982F907F905F8F70892B8683C80124
:105120000E94152087E0F801A7E7B2E001900D92F8
:105130008A95E1F7DECEC8010E94201381117FCF4E
:1051400080917D02816080937D02C8010E941520BC
:10515000D0CEABE1B0E0EFEAF8E20C9413334E8B23
:105160005F8B688F798F8A8F9B8F192F9111109287
:1051700087021D8A86E0FE017696DE011F96019069
:105180000D928A95E1F70A8D002341F021E04F85C9
:10519000588969897A89C8010E9443130B8B1C8B3B
:1051A00087E0FE013F96DE01189601900D928A95E8
:1051B000E1F7CE0108960E94422781112AC087E0BC
:1051C000FE013896DE01119601900D928A95E1F765
:1051D0008C858823F1F02091480430E0C9010196C4
:1051E000877099274091810448171906E9F097E0E4
:1051F000929FD001939FB00D1124A75BBB4FFE017E
:10520000319601900D929A95E1F7809348040E949F
:10521000300917E08091810490914804891314C0EB
:105220006B96E4E00C942F33109231040E94890CA9
:10523000109248041092810487E0E7E7F2E0DF0172
:105240001D928A95E9F7E5CF819FC0011124875B04
:105250009B4F0E944227882319F38091810490E09C
:1052600001968770992780938104D4CFA6E0B0E09F
:10527000ECE3F9E20C9413330E942E1B8C01809115
:10528000890290918A028017910781F019821A820F
:105290000E942E1B682F49815A81792F80E090E06F
:1052A0000E94A92810938A02009389022696E4E0BE
:1052B0000C942F331F921FB61F9211248F939F932C
:1052C000AF93BF9380912B04811113C080912C0464
:1052D00090912D04A0912E04B0912F044196A11D10
:1052E000B11D80932C0490932D04A0932E04B093B1
:1052F0002F04BF91AF919F918F911F901FBE1F9060
:105300001895CDB7DEB7A6970FB6F894DEBF0FBEDF
:10531000CDBF85B7806885BF85B7806885BF84B7F6
:10532000877F84BF0FB6F894A8958091600088614C
:1053300080936000109260000FBE80E890E00FB68E
:10534000F89480936100909361000FBE85EF97E021
:1053500090935102809350020E9424050E94C5053B
:105360008091E20084608093E200789480913E0412
:105370008823A1F01091E9001F709091EC00892F13
:10538000817090FD80E8182B1092E9008091E80070
:1053900083FD0E949D0C1F701093E90082E084BD84
:1053A00093E095BD9AEF97BD80936E001092040331
:1053B0001092050310920603109207030E947113C6
:1053C000811102C00E9497120E94961180930001E1
:1053D00080910001882309F46BC0109285018EE151
:1053E000809386010E94461181110E948F31809125
:1053F00000018091000194E0811190E090931103ED
:1054000084E0891B8093100384EF0E94230885EFBA
:105410000E94230886EF0E94230887EF0E9423083A
:105420000FE112E055E2E52E52E0F52ED8018D9104
:105430008D018F3F11F00E942308E016F106B1F7AD
:1054400088E0EFE1F3E0DF01882E1D928A94E9F70E
:10545000E8E0F3E0DF011D928A95E9F70E94C615A6
:10546000811102C00E94D91782E090E00E94CC33E3
:105470008093150384E090E00E94DA339093130345
:10548000809312030E945C1EEFE3FCE93197F1F771
:1054900000C000000E945C1E80911F0380FF0CC0B2
:1054A0006FEF7FEF90E080E00E940E340E94810653
:1054B0008EE18093850194CF83E090E00E94CC330D
:1054C0000E94F8090E944611882309F4B3C180E0C4
:1054D00080931B0480E880938A040E9449306BE02B
:1054E00070E089E892E00E948A138823E9F18091B4
:1054F0001B0465E070E081FD9FC184E892E00E949A
:105500008A13882389F16DE070E082E792E00E94BF
:105510008A13882349F10E949206605A75418F4F81
:105520009F4F60931D0470931E0480931F049093FB
:105530002004EDE8F4E080E092E0DF019C011D92A0
:1055400021503040E1F7F0939406E09393068FEFFB
:105550009FEF90938C0480938B0481E080932404CC
:105560008093210410921C0480911403811176C051
:105570000E94C615811104C00E94D9170E9492157D
:1055800088E090E00E94D4334B015C0184E290E01B
:105590000E94CC33282F30E040E050E060E070E023
:1055A00080E090E000E20E947733282939294A29D7
:1055B0005B292093820430938304409384045093A6
:1055C0008504609386047093870480938804909385
:1055D0008904809145038360809345032E7F89F57C
:1055E0000E94921588E090E00E94D4336B017C0108
:1055F00084E290E00E94CC33282F30E040E050E07D
:1056000060E070E080E090E00E947733B22FA32F3B
:10561000F42FE52F5B0197018601BC29A12BFE2900
:10562000E32BB0938204A0938304F0938404E0936B
:10563000850460938604B0928704809388049093D5
:1056400089040E9404078091820480FF04C060E006
:1056500086950E94381581E0809314030E944611BC
:10566000811102C00E9492310E949B190E94461132
:1056700081113CC084ED91E19093500180934F01E2
:1056800029E130E030934B0120934A0189E390E017
:1056900090934E0180934D0141EE57E05093580195
:1056A0004093570130935301209352019093560138
:1056B0008093550143E858E15093600140935F01A6
:1056C00030935B0120935A0190935E0180935D01BA
:1056D00045EF50E1509368014093670130936301B7
:1056E0002093620190936601809365010E94C61524
:1056F000882379F18FE090E00E94D4338B01F82E5B
:10570000862F8F770E946E18001F0027001F612FC1
:105710006370660F602B60939C0112FB882780F9F1
:105720000E940D0B812F887F09F489C0169516956C
:105730001695212F30E02F5F3F4F42E3429FC0017B
:10574000439F900D11240E94FF0A8F2D8370809338
:105750009D010E94AE1189E691E090932804809308
:1057600027043EE1E32E33E0F32E46E9C42ED12C8C
:1057700080913E0400E112E1853009F4A2C00E944C
:105780005C1E06E113E09FE1A92E93E0B92E25E20D
:10579000822E22E0922E9401B501F8019191DB0155
:1057A0008D91BD01D9014D919D018423EE16FF0617
:1057B00009F493C0981791F30E944611382E612C7A
:1057C000F50171905F01D4018D914D017822F801AE
:1057D00021908F01271431F1512C44244394272424
:1057E000822D8421B9F03320A9F059A26AA20E9427
:1057F0002E1B9CA38BA3F1E0FDA391E0842D8721B8
:1058000009F490E09EA349A15AA16BA17CA18DA1AE
:105810000E94A9285394440C26E05212E1CFF801CB
:1058200031977082639438E06312CACF0E947C1172
:1058300011E058C082E04CCE8FE792E060CE8AE85B
:1058400092E081CF80913E04843041F10E94B413F4
:105850000E94591D10922B0448E150E080E40FB6DD
:10586000F894A895409360000FBE8093600083B7C2
:10587000817F846083BF83B7816083BF789488957C
:1058800083B78E7F83BF0FB6F894A8958091600090
:10589000886180936000109260000FBE80913D048B
:1058A000882379F00E945C1EEFE1F3E0A5E2B2E00C
:1058B00081919D91892309F0FAC293E0E732F907BB
:1058C000B9F780913E04853009F4BCCF10923104C1
:1058D0000E94890C0E946B1152CF98136DCF0E94C9
:1058E000362910E00E9446110E94591D882339F084
:1058F0000E947C110E943A1B0E94CF1304C00E9498
:105900003A1B1111F9CF0E946B1190911E03891758
:1059100021F080931E030E94920680913E04843001
:1059200009F4EDC00E944611882309F421CF0E949A
:10593000920620912D0321116DC000912903109131
:105940002A0320912B0330912C034B015C01801A18
:10595000910AA20AB30A95018401043F114021056E
:10596000310508F457C06093290370932A0380938C
:105970002B0390932C038091270390912803019689
:10598000909328038093270319828E010F5F1F4F86
:1059900021E050E040E060E089E00E941A168111A9
:1059A00006C080912703909128030A979CF181E01B
:1059B00080932D0380938B019981911101C080E028
:1059C00080938C0180918A0110E0882329F00E9445
:1059D000961111E0811112E080918C01882309F465
:1059E00062C20E949611811160C282E0182B0E944F
:1059F00068134B015C01DC01CB018C7FBC01CD0144
:105A0000612B86169706A806B90611F00E94781237
:105A10000E94AE1180918C01882309F45CC00E9421
:105A200092064B015C0180912E0390912F03A0916F
:105A30003003B0913103A5019401281B390B4A0BA7
:105A40005B0BDA01C9010497A105B10580F1198248
:105A50001A821B821C828E010F5F1F4F24E050E0D0
:105A600040E060E08AE00E941A168823C1F0698154
:105A70007A8180919101909192010E94DD0A909328
:105A80009201809391016B817C818091930190912F
:105A900094010E94DD0A9093940180939301809277
:105AA0002E0390922F03A0923003B0923103809185
:105AB0009601882381F080919501898310E000E0B0
:105AC00020E0AE014F5F5F4F61E08BE00E941A164D
:105AD00081111092960180913403882309F448CEF5
